:400000000080002011000000AD0C0000AD0C000010B500F053FEC04610B51222214B1A60302001F089FB204A204B1A600024204B1C60204B204A1A602049214A1160214A94
:400040001A60E021C900204A1160204A1A60E82149011F4A11601F4A1A60882189011E4A11601E4A1A60822212061D4B1A608022D2021C4B1A60C0221B4B1A607F3A1B4BA9
:400080001A6001321A4B1A6001321A4B1A601A49082001F075FA082001F05CFA174B1C6010BDC046300010400600008004010B40000301400000014040FF008000FF5207A5
:4000C00000050140C0FF00800403014041FF00800803014042FF00800C03014043FF008008010B4000010B404C01014028010140100101400C010140B51900000C020B40F5
:4001000010B572B601223D4B1A7000240FE03C486200131959000B00411889881A5AC31858880004104300F089FD0134E4B2012CEDD933490C313348183000F065FDAA2256
:40014000314B1A60113A314B1A60EE221202304B1A60EE222F4B1A6099231B042E4A13602E4A13602E4A13602E4A13602E4A13602E4A13602E4A2F4B1A602F4A2F4B1A60F5
:4001800001232F4A13602F4A13602F490B783C22934314221343DBB20B702C4A117816230B43DBB213700222294B1A60294A2A4B1A60313A294B1A60C13AFF3A284B1A60FC
:4001C000C223284A13603121274A1160274A1360F222274B1A60274A274B1A60DB225203264B1A600322264B1A602132254B1A60FFF712FF00F038FD10BDC0461C700F405C
:40020000B4520000B45700000000024000020240000302400005024000500F4010500F4020500F4040500F4050500F4070500F4004040444D8300F4004040484D8340F401F
:400240002000104000800F4001700F4000700F40000004407102000008000440080104401801044000020440080204401802044000030440902D4900080304400804044035
:40028000000504400805044010B5064C2378002B07D1054B002B02D0044800E000BF0123237010BD4801002000000000B0520000084B10B5002B03D00749084800E000BF73
:4002C00007480368002B00D110BD064B002BFBD09847F9E7000000004C010020B0520000C000002000000000F8B504000D0000F067FF0F2020401A4E30603F212940194B5E
:400300001960194C00252570800108434005E060164FA760164B1B686360200000F01CFE01232370E560A760124B1B686360200000F012FE022323703368DB06FC22D204A9
:400340001343E360A7600C4B1B686360200000F003FE00F0FDFC09491D2001F011F9F8BDC8010020DC010020CC010020FFFF1F80A0002F40C0002F40E0002F407104000095
:4003800010B586B0002815D0038802AC02930023237163718278A271E3716B460593C11C0822684604F072FF200000F01FFF002802D102E0022000E0012006B010BDC04661
:4003C000014B18787047C046DC010020014B18787047C046C8010020104B1878C0B2002819D15A78D2B29B78DBB29A4205D20B4A93785078181AC0B20EE0084B5A78D2B26A
:400400009B78DBB29A4207D9044A93785078181A1030C0B200E010207047C04664010020124A93780133DBB293709378DBB20F2B02D900220D4B9A700C4B1B78002B0BD0BD
:400440000A4A53780133DBB253705378DBB20F2B02D90022054B5A70044A537891785B1A59424B41DBB213707047C0466401002070B580225201444B1A60444B1B68DA070A
:4004800006D49A0706D45A0706D41B0706D406E0002404E0012402E0022400E003243C4B9A78D2B264013B4B9C4664442368DB0202D46168490D02E06168C90889B2364B67
:4004C000500082189000C152314A9178C9B22068000C0F2528404D0069188D005D19A8709178C9B2A5682D0E4800411888001818C5709178C9B2A068000CC0B24D00691825
:400500008D005D1928719178C9B2A068000AC0B24D0069188D005D1968719178C9B2A568EDB2480041188800181885719178C9B2E5682D0E4800411888001818C57191784A
:40054000C9B2E068000CC0B24D0069188D005D1928729178C9B2E068000AC0B24D0069188D005D1968729278D2B2E068C0B251008A1891005B189872FFF752FF226801239E
:400580001343236070BDC04600002F4008002F4064010020A0002F40E001002010B5FFF71BFF00280BD0064A53780133DBB253705378DBB20F2B02D90022014B5A7010BDCB
:4005C0006401002010B582B0041E17D0FFF704FF6B46D87107331B78002B11D00A4B5B78DBB25A00D3189900084B59180C22200004F04CFEFFF7D2FF002002E0022000E0FC
:40060000022002B010BDC04664010020E001002070B504001E00012000F022F820800823A370E51CF621280000F028F82418E670421C0499280000F033F870BD8079704740
:4006400070B504001D00002000F00AF820800423A370E01C092100F011F82418E57070BD80028023DB0018408901403B194001433F200240114308007047C04610B50400EE
:400680000170FFF7A3FE6070FFF79AFEA070032010BDC0464079704700797047C078704710B50B0E8354531C0C14C454931C0C12C4540332815410BD407970470079704787
:4006C0004079704780797047272070470020704710B5431C642B06DC0303181A642102F07FFA273007E00303181A642102F078FA024B9C466044C0B210BDC04627F0FFFFBC
:4007000010B5431C642B06DC0303181A642102F067FA273005E00303181A642102F060FA27300012C0B210BD70B505000C0001F00BFD002302222900200001F025FD00282D
:400740000DD101F0E9FC8307FBD501F0E5FC830507D401F0DBFC022805D0FF2004E0FF2002E0FF2000E0002070BDC04600B583B001F0CCFA01F0BEFA01A8002303708033DF
:4007800043704021FFF7D0FF03B000BD00B583B001AB1870597040211800FFF7C5FF03B000BDC04670B50D008000C4B2A61DF6B2FFF78AFF01003000FFF7E8FFFFF786FFC7
:4007C0000100E31DD8B2FFF7E1FF2800FFF780FF010023000833D8B2FFF7D8FF2800FFF78FFF01000934E0B2FFF7D0FF70BDC04610B501F045FD03230340054C01220221D9
:400800002000FFF71DFF2000FFF7BAFD10BDC046A0020020F8B562B601F038FD384801F065FD01210720FFF75FFD01F005FAFFF79DFF01F095FD01F0D3FD01F0F5FE00F031
:400840001DF900242000FFF7BDFE0028F9D12000FFF724FF0E2819D0F52837D00D2844D10C3801F005F9FA20400000F0C1FE002001F0FEF82000FFF721FF05002000FFF721
:400880001BFF0100280000F011F9DAE7012001F0EFF8FA20400000F0ABFE002001F0E8F800242000FFF70AFF05002000FFF704FF07002000FFF704FF06002000FFF702FFBF
:4008C00001003B003200280000F028F9012001F0CFF8FA20400000F08BFE002001F0C8F80024200000F068F8ABE7002001F0B4F8FA20400000F07CFE012001F0ADF8A0E7EF
:40090000F107000010B5040001F0A6F9022001F0B7F901F0ABF9200001F0C6F980B210BDF8B504000E0017001D0001F00DFC14220021200001F0FAFA1421300001F084FB21
:400940000A2001F055FB14220121200001F0EEFA060000240FE06B1E9C4205DA39191422002001F095FB04E039191422012001F08FFB0134E4B2AC4201D2002EEBD0142082
:4009800001F036FBC0B2F8BD30B583B06B46DD1D00232A0073217020FFF7C2FF6B469C1D0023220071217020FFF7BAFF287800022378184303B030BDF0B587B00400FFF775
:4009C0003DFE05002000FFF767FE06002000FFF761FE0400162D04D0172D06D0142D0BD107E00020FFF78EFF07E00120FFF78AFF03E0FFF7C9FF00E0002000902B002200E0
:400A0000310003A8FFF704FE03A8FFF7B9FC002809D0002001F020F8FA20400000F0E8FD012001F019F807B0F0BDC046F0B583B000AF78600C0015001E0001F085FB721C09
:400A40000836F608F6006B469B1B9D4669460C70012304E0E81801380078C85401339342F8DB0023786801F08FFB040001F054FB8307FBD5E0B2BD4603B0F0BD10B582B016
:400A800001F044F901F036F901AC06232370053B6A46073218217020FFF742FF0123220070217020FFF7C2FF02B010BD10B50400B32900DDB321002900DC0121042C25D80F
:400AC000002C0BDD022C10DD072C07D1080002F0F5FE0F4902F01CFB031C06E0080002F0EDFE0B4902F014FB031CFE218905181C02F098F9074902F00BFB074902F022FC04
:400B000002F05AF981B22000FFF74CFE10BDC046000034430000A0400000C842F0B583B00600019115001C00032802D0042813D004E00027FC239B05009310E0002000F09F
:400B40008BFFFA20400000F053FD012000F084FF01270023009302E00027274B0093280002F0ACFE254902F0D3FA011C009802F0E9FB002D21D0019B002B0ED104F0B2F8F3
:400B800002000B0000201E4903F022FD00221D4B03F008FA02F028F912E0019B012B0ED104F0A0F80022164B02F0D0FE0022154B03F0F8F902F018F902E0002000E000202A
:400BC000002F03D101003000FFF7ECFD032E07D101F09AFB8442FBDC00213000FFF7E2FD042E07D101F0D0FB8442FBDC00213000FFF7D8FD03B0F0BDCDCCCC3E0000C84204
:400C00000000F83F00001440F0B50025002711E0BB00C658F3B2FF22964308E06A008A181478A419527822700135013BDBB2002BF4D10137112FEBD9F0BDC04610B50A0089
:400C4000002104F02CFB10BD064B1B68002803D080221206134301E05B005B08014A13607047C04680033A4010B50323094A1360094A136080221206084B1A60C023084A42
:400C80001360084A13600022074B1A600120FFF7DBFF10BD300030403000314000003A4000033A4040033A40000E3F4010B504F0C1FA03680C2B00D1FEE7FEE770B50F4E9B
:400CC0000F4D13E029686B68AC68002202E001C901C30432A242FAD1E868002202E0002102C304328242FAD11035013E002EE9D104F0A6FAFFF78EFDFEE7C046010000004A
:400D0000D85A000010B50E4A136801218B43136000230AE0032B03D89A000A49505800E009489900094A885001332F2BF2D9FFF7E7F9034A116801230B43136010BDC04639
:400D40000000104000000000AD0C000000000020054B1A6801210A431A601B68194201D1012000E00020704704002F4010B50E4A0E4B1A60FFF7ECFF1D2000F0EBFB0C4A5A
:400D8000116801230B431360C02300E0013B002B03D0074A1268D207F8D5002B01D1012000E0002010BDC0460112000000002F4010002F4003B2002B0DDB094A1168094B8D
:400DC0000B400004034313601268074B1340984203D0012002E0022000E000207047C04614002F40FFFF00800000FF7F002809D10C4B19680C4A0A401A601B68DB040CD587
:400E000001300DE0074B1A68802149010A431A601B680B4203D1012002E0002000E000207047C04614002F40FFEFFFFF70B5841EE4B20D2C35D88C1EE4B2052C03D9002B00
:400E400031D1012931D1032A31D8904231D3914231D31C4D2C68240AE4B20F26B44320432E68194C3440000204432C602C686040F0242401204220D1002B00D002234901A3
:400E8000C9B29200D2B2114319430E4A1368EE2083430B4313601368034099420FD0ED380EE002200CE002200AE0022008E0022006E0022004E0022002E0012000E00020A7
:400EC00070BDC04614002F40FFF0FFFF002809D10B4B1A6810218A431A601B6819420BD001300CE0064B1A6810210A431A601B68194203D1012002E0002000E000207047D0
:400F000014002F40002809D10B4B1A6801218A431A601B6819420BD001300CE0064B1A6801210A431A601B68194203D1012002E0002000E00020704714002F40054B186082
:400F40001B681B041B0C984201D0012000E000207047C04604002F4010B503785B01204A944663441F4A41680A431A6003785B01634419681C4A11401C4A4468224091424F
:400F800024D182681A6103785B0163441A6981688A421DD1C2685A6103785B0163445A69C1688A4216D1012252429A6103785B0163449A6901320FD10022DA6103785B01B7
:400FC0006344DB69002B09D0012008E0012006E0012004E0012002E0012000E0002010BDA0002F40800080007F007F007FFF7FFF10B503781B01104A944663440F4A4168BA
:401000000A431A6003781B01634419680C4A11400C4A4468224091420AD182685A6003781B0163445A6883689A4203D0012002E0012000E0002010BD20002F40080080002B
:40104000F7007F00F7FF7FFF70B500240AE063001B199800104B1818FFF7CAFF002805D10134E4B2072CF2D9002500E00125002D0BD00FE0230108486030C018FFF76CFFB4
:40108000002806D10134E4B200E000240F2CF1D900E00125280070BD14580000002809D10C4B19680C4A0A401A601B689B040CD501300DE0074B1A68802189010A431A60BB
:4010C0001B680B4203D1012002E0002000E000207047C04614002F40FFDFFFFF10B580221206334B1A60334A136801218B431360A0231B0100E0013B002B03D02D4A126851
:40110000D207F8D4002B49D01D2000F02DFA2A491D2000F035FA03211D2000F043FA0020FFF748FE002819D1FFF760FE002817D1FFF7B4FF002815D10023002201210C30E9
:40114000FFF774FE00280FD1FFF7C0FE00280DD1FFF7D8FE00280BD001230AE0012308E0012306E0012304E0012302E0012300E00023002B14D1FFF767FF002812D10F484F
:40118000FFF7DCFE00280FD10A4B1A6807218A431A601B68194209D0013008E0012006E0012004E0012002E0012000E0002010BD00042F4010002F40E91100000112000045
:4011C00010B5084B1B78002B02D1FFF787FF00E00020002804D10122024B1A70FFF7C6FD10BDC046680100207047C046F8B54F464646C0B4040001200023984691E04C4B91
:401200001B6832041A427AD12379002B01D1002701E08027BF036379002B07D12B01454A94466344226852055A6009E080235B031F432B013F4A944663442268D2005A60F6
:40124000A379072B03D81B041F43B94603E080231B031F43B946E379002B03D004234A461A43914600232AE0032B13D92801324A94466044026894465907CA1AD10038314F
:40128000FF228A4067469743E268D25C8A403A43026012E02801274A94466044826894465907CA1AD1001831FF228A4067469743E268D25C8A403A4382600133DBB2A27980
:4012C000934201D2072BCFD91D2000F04DF92B01184A94466344194A4F4617431F60227A002A04D0196803220A431A6003E0196801220A431A601D2000F02CF900207600DC
:40130000F6B2002807D00135EDB201E001260025072D00D873E7002806D043460133DBB298464346022BF1D90CBC90469946F8BD08002F4020002F402C002F40080080009D
:40134000074B1B78272B05D8064B1B78DBB2064A136004E0054B1B78DBB2034A1360704702F3FF0F42F3FF0F20FF0B40C1F1FF0F00230AE0204A12683F210A401F49C95CC2
:401380008A4201D1033303E001332D2BF2D903231B4A12781B2A16D8302B05D1194B1B78DBB2194A136006E0182B04D1174B1B78DBB2154A136016490B681F229343173AC0
:4013C00013430B6016E0302B05D1124B1B78DBB20D4A136006E0182B04D10F4B1B78DBB2094A13600A4A13681F218B430B4909780B4313607047C0462CFF0B40745900000D
:4014000002F3FF0F3FF3FF0F28FF0B403EF3FF0F34FF0B40C3F1FF0FC2F1FF0FC0F1FF0F00230AE00D4A12683F210A400C49C95C8A4201D1033303E001332D2BF2D90323C2
:4014400008490868084A02400A60084A944663441B78DBB2064A13607047C0462CFF0B407459000000002240FFFFFFBF4DF3FF0F28FF0B40034B18688023DB05184000D0A0
:40148000012070470000224010B50B4A136801218B431360094B1A68094B1A60094A12685A60FFF765FFFFF74BFF074A116802230B43136010BDC04650000C4034FF0B4098
:4014C0006C01002020FF0B4024002C4030B500230AE0134A12683F210A401249C95C8A4201D1033303E001332D2BF2D903230E490A68022082430A600C4C21681F2291432E
:401500000B4805682A400A4322604168094A1160094A944663441B78DBB2084A136030BD2CFF0B407459000024002C4034FF0B406C01002020FF0B404DF3FF0F28FF0B4097
:40154000034B1B680220184000D001207047C04624002C401F2318401E3B8340014A13607047C04600E100E01F2318401E3B8340014A13607047C04680E100E001BE704708
:4015800070B504000D001F2802D90020FFF7F6FF1034A40080239B059C4664442068256070BDC04670B504000E00032902D90020FFF7E4FF1F2C02D90020FFF7DFFF03255A
:4015C0002540ED00063501F0B0F8A408A400074B9C46644421680323AB4099430B003100A9401943216001F0A4F870BD00E400E010B5040006E0084B586801F08DF8074B19
:401600009C46644480231B029C42F4D8024B9868604301F081F810BDC40000200080FFFF70B582B000F070F9002862D001F07DF80500314A116801230B43136000230AE0D2
:401640002E4A12683F210A402D49C95C8A4201D1033303E001332D2BF2D903230021294A1160294A1268D20606D1274802681F318A4313390A430260244C2168244A1140B5
:40168000244A5A438023DB019C466244D20B013A5205520D0B001343A0225203134323601D4B1B680193302001F046F81B4A13688021C9050B4313602668194B1E40002477
:4016C00007E00120FFF794FF1034A30533430F4A1360EE2CF5D90120FFF78AFFFF239B051E430A4B1E60019A0B4B1A60280001F020F802B070BDC04650000C402CFF0B401A
:401700007459000028FF0B4034FF0B400800224000F800C040420F003000104000002240FFFF3FC010B5034B1B7B584300F0F4FF10BDC046C4000020F0B55F4656464D4603
:401740004446F0B483B0040000F0EFFF0190FFF791FE002804D0FFF763FE01239A4601E000239A46FFF7ECFE002808D0182C01D0302C07D1FFF7AAFE01239B4604E0002302
:401780009B4601E000239B46E61E2D2E74D8464B1B78DBB29C4208D8444B1B78DBB29946434B1B78DBB2984631E0424B1B78DBB29C4208D8404B1B78DBB299463F4B1B780C
:4017C000DBB2984623E03E4B1B78DBB29C4208D83C4B1B78DBB299463B4B1B78DBB2984615E03A4B1B78DBB29C4208D8384B1B78DBB29946374B1B78DBB2984607E0364B48
:401800001B78DBB29946354B1B78DBB29846344B9F5D2F2F09D92A2C07D91922314B1A60052000F079FF192503E02E4B1D683F231D40BD4206D92A4B9A5D2A4B1A60052040
:4018400000F06AFF254B9C4664442378DBB2264A1360264B4A461A60254B42461A600520FFF760FFBD420AD21D4B9A5D1D4B1A60052000F051FF02E00020FFF77FFE534614
:40188000012B01D1FFF7CCFE5B46012B01D1FFF7FBFD019800F04DFF03B03CBC90469946A246AB46F0BDC04640F3FF0F41F3FF0F42F3FF0F43F3FF0F44F3FF0F45F3FF0F87
:4018C00046F3FF0F47F3FF0F48F3FF0F49F3FF0F4AF3FF0F4BF3FF0F4CF3FF0F4DF3FF0F745900002CFF0B4028FF0B401CFF0B4020FF0B40034B1868C0231B02184000D019
:401900000120704700010B40034B1B68002B01DA012000E0002070470000224010B500F004FF044A1368C02109020B43136000F000FF10BD00010B4010B500F0F6FE084942
:401940000A68084B1A408024E40122430A600A6813408022120213430B6000F0EAFE10BD00010B40FF3FFFFF70B5050000F0DDFE0400FFF7BFFF002803D0FFF7DDFF0121EB
:4019800000E0002108482840084A1568084B2B40184310601368012901D1FFF7BFFF200000F0C7FE70BDC0460404040010020B40FBFBFBFF10B5244B1B685B0715D5234B19
:4019C0005B685B070ED5224B596A042001401F4C62688A4362605A6A82435A629B69002B00D098470420FFF7BFFF174B1B685B0518D5164B5B685B0510D5154B596A80222B
:401A0000D2001140114842688A434260596A114A0A405A62DB69002B00D098478020C000FFF7A2FF084B1B685B030CD5074B5B685B0304D5064B1B6A002B00D09847802027
:401A4000C002FFF791FF10BD10020B40D80000208C010020FFFBFFFF04490A68D2B240239A43800118401043086070470004044004490A68D2B210239A4300011840104342
:401A8000086070470004044010B503211120FFF789FD43491120FFF773FD0322414B1A60414B1B68002B01DA404900E04049414A13680B431360404A404B1A60404A414B68
:401AC0001A600023404A1360404A41490A6041490A60414A116880204002014311603F490A6802430A603E4A13603E4A136001223D4B1A603D4A11683D4B0B408021890579
:401B00000B431360002248E03A4891000C58DC239B0123408018007A03433748844661440B60E30707D52E480168012393401B041B0C0B43036093002E495B589B0707D5A6
:401B400028480168012393401B041B0C0B4303609300284959588B0502D58020400001E080204001CB0504D45300002423495C5203E05300002421495C52214B43438021A2
:401B8000C9008C466344D9174905490DCB18DB121BB290001B4943500132012AB4D910BDD51C000020003A4080033A40C0201010C020001000003A408C00008004003A40F7
:401BC0000000FF0718003A401C003A400400040010003A4014003A4000033A4040033A4028023A4038023A4018023A4030003A40FEFFFFDFA459000080003A40B40200201F
:401C000010270000AC02002010B5094B1B68002B0CDB084B1B68002BFBDB054A1368802109060B4313600A20FFF77CFD10BDC04600003A4008023A4010B5064B1B78002BA1
:401C400004D1FFF721FF0122024B1A70FFF7DCFF10BDC046B4010020034A1368802149020B4313607047C04604003A40024A1168024B0B401360704704003A40FFFFFEFF56
:401C8000020083070CD0074B1B680120184001D19307F8D4002804D00122024B1A6000E00020704710023A4010B50400012802D90020FFF763FC012C07D8A400044B9C46EA
:401CC000644420680004000C00E0002000B210BD80013A40014B1A681A60704710023A4010B50B20FFF736FC10BDC04610B500F01DF810BD10B5044A1368802109060B4391
:401D00001360FFF7EDFF10BD0000264010B5064B1B78002B04D1FFF7E9FF0122024B1A70FFF7E8FF10BDC046B801002010B50024184B1C60184A194B1A60194B194A1360CF
:401D4000194A1460194A1460194A1360194B1C600B20FFF709FC03210B20FFF723FC16490B20FFF70DFC154B1C60154B1C60154B1C60154B1C60154B1C60154B1C60102292
:401D8000144B1A70144B1C80144B1C60144B1C6010BDC0460000264077080080600026400701008000032640040326401003264000022640040226408D270000C80E2640F0
:401DC000880E2640480F2640080F2640C80F2640880F2640B8020020C8020020D8020020C002002010B50E4A13685B005B08136000230C490B600C490B600C4804680C4952
:401E0000214001600B490B600B490B6010210B4B19701368802109060B43136010BDC04600002640680026406C00264060002640FF5CFFFF880F2640C80F2640B80200205A
:401E400010B504000368002B09D00120FFF76AFC2368013B2360002B03D0002003E0002001E08020000610BD10B5002839DBC023034208D00022284B1A601032274B1A70A0
:401E8000002310243DE0C3070FD5244B1B781B072BD5234B1B685B0001D5002300E0012310211E4A117001242BE0C30520D4830722D4C30605D51022184B1A700023002404
:401EC0001FE0164B1B781B0719D5144B1B78DB0701D5252200E02422104B1A70002300240FE00123802424060BE00123012408E001238024640004E00023022401E0002342
:401F00000024012B02D1FFF76DFF02E0054A064B1A60200010BDC04668002640B80200206000264017030000000F264070B582B004000D001600244B1B78102B40D10B2039
:401F4000FFF712FB214B1B68DB0734D4FA239B005E43019600221E4B1A601E4A1E4B1A601E4A1F4B1A606400FF231C40002D03D12422154B1A7004E02522134B1A700123AF
:401F80001C43184B1C600222174B1A60124B1C680823FF3320001840144B1B68C02423401843040001A8FFF74BFF2043EED0FFF75BFF040000E008240B20FFF7CBFA00E075
:401FC0000424200002B070BDB802002064002640080F264017030000000F2640ED0F0000C00F26404002264068002640400F264010B582B0104B1B789B061AD5FA239B0081
:40200000584301900D4B1B689B0601D5182200E010220B4B1A600B4B18681223FF331840040001A8FFF70CFF2043F4D0FFF71CFF00E0042002B010BDB80200206400264064
:4020400068002640000F264010B582B00D4B1B789B0613D5FA239B00594301910A4B18600A4B18680823FF331840040001A8FFF7E7FE2043F4D0FFF7F7FE00E0042002B025
:4020800010BDC046B802002040022640000F2640F0B583B004000D00164B1B789B0626D5FA239B005A430192134B18680223FF3318400700114B1B6804261E4001A8FFF75B
:4020C000BFFE384333000343EED0002E05D00C4B1B682B700B4A094B1A60FFF7C5FE002806D1002C04D10422074B1A6000E0042003B0F0BDB8020020000F2640C00F264043
:4021000040032640ED0F000068002640014B18687047C046C002002010B50B20FFF724FA074B1C88A2B21400064B1B789B0602D504231A4394B20B20FFF70CFA200010BD25
:40214000C8020020B802002010B50B20FFF70CFA044B1C88A4B200221A800B20FFF7FAF9200010BDC8020020054B1B682022134000D0082301221343024A13607047C04667
:402180006400264068002640F0B583B001900C0017001D00002917D02A4B1B78102B08D10B20FFF7E1F9284B1B68DB070ED508260FE0244B1B78602B0AD1244A1388082145
:4021C0008B431380002604E0042602E0002600E00426002E2FD128221A4B1A7000231C4A13601C4A13601C4B1F601C4B1C60EAB21B4B1A70019B5C00FF231C40134A138839
:4022000002218B4313804023164A13601649174A11601421FF31164A1160164A1360EB0704D5FFF7A1FF144B1C6004E0124B1C600222124B1A600B20FFF78CF9300003B02D
:40224000F0BDC046B802002064002640C8020020BC020020C0020020C4020020DC020020D0020020800F264017030000000F2640080F2640880F2640400226406800264013
:40228000014B1878C0B2704767000F4010B500F04CFA044A117810230B43DBB2137000F048FA10BD97000F40014B18647047C0460000002010B5040000F037FA044A1368C3
:4022C000C0218B43A4011C43146000F032FA10BD00E400E00122014B1A60704700E100E00122014B1A60704780E100E010B50400FFF7F6FF2000FFF7D7FF0320FFF7DAFF36
:40230000FFF7E8FF10BDC04610B500F099F8024B9C46604400B210BD0080FFFF024B18780F2318407047C04663000F40014B18707047C04683000F4010B50F20FFF7F6FFBF
:40234000FFF7ECFF00F0F1F9044A117810230B43DBB2137000F0EDF910BDC04693000F4010B500F0BFF88020000200F063F8054B1B78002B02D10122024B1A70FFF7DCFFAA
:4023800010BDC046C001002010B500F0D7F8024B9C46604400B210BD0080FFFF024B18780F2318407047C04666000F40014B18707047C04686000F4010B50F20FFF7F6FFF7
:4023C000FFF7ECFF00F0B1F9044A117810230B43DBB2137000F0ADF910BDC04696000F4010B500F0FDF88020000200F0A1F8054B1B78002B02D10122024B1A70FFF7DCFF2B
:4024000010BDC046C1010020034A117880235B420B43DBB21370704773000F40014B18707047C04681000F40014B1878C0B2704761000F40014B18807047C04600100F40E4
:40244000024B1B78024B188880B2704700000F4080100F40014B188880B2704780100F40014B18807047C04640100F40014B18807047C04660100F4010B501E0FFF7EAFF9F
:40248000FFF7D2FF4306F9D410BDC04610B5134B1A7807218A431A701A7804398A431A70FFF7EAFF802424022000FFF7D9FF2000FFF7C0FF0020FFF7B1FFFFF7B5FF200016
:4024C000FFF7D4FF00F031F9054A117810230B43DBB2137000F02DF910BDC04673000F4091000F4010B5064B1B78002B04D1FFF7CDFF0122024B1A70FFF786FF10BDC04652
:40250000C2010020034A117880235B420B43DBB21370704776000F40014B18707047C04685000F40014B1878C0B2704765000F40014B18807047C04608100F40024B1B78C2
:40254000024B188880B2704704000F4088100F40014B188880B2704788100F40014B18807047C04648100F40014B18807047C04668100F4010B501E0FFF7EAFFFFF7D2FF93
:402580004306F9D410BDC04610B5134B1A7807218A431A701A7804398A431A70FFF7EAFF802424022000FFF7D9FF2000FFF7C0FF0020FFF7B1FFFFF7B5FF2000FFF7D4FF13
:4025C00000F0B3F8054A117810230B43DBB2137000F0AFF810BDC04676000F4095000F4010B5064B1B78002B04D1FFF7CDFF0122024B1A70FFF786FF10BDC046C30100202D
:4026000010B500F075F810BD10B500F01DF810BD10B5044A1368802109060B431360FFF7EFFF10BD0000254010B5064B1B78002B04D1FFF7E9FF0122024B1A70FFF7E8FFA1
:4026400010BDC046C4010020154A164B1A600023154A13601549164A1160164A16490A6007201649086016490B6006381549086015490A60154A13600421154A1160154A71
:402680001360154A1360154A1360154A1360154A1360154A13601268144B1A807047C0460B000002000025404000254001000A004800254007000080000325400403254033
:4026C0001003254044002540000225400402254050002540880E2540C80E2540480F2540080F2540C80F2540880F2540C601002005490B68F0229343603A13430B60034B53
:402700001A88034B1A60704700020240C6010020880F2540000000000230800803D00138FDD1C046C046C0467047EFF3108072B6704780F31088704770B50400FFF7F5FFCE
:402740000500102C05D8104A136803218B43136016E0202C07D80C490B6803229343023A13430B600CE0302C07D807490B6803229343013A13430B6002E00020FEF7FEFE4C
:402780002800FFF7D6FF70BD3000104010B5AF4B1B68002B00D09847AD4B1B68DB0702D50022AC4B1A60AC4B1B789B0628D5AB4B1B68DB0507D5AA4A1188C0239B000B43E0
:4027C0001380012300E00023A44A1268D20706D5A34A118890239B000B4313800123002B0FD09D4A1278D20701D5012200E002229B49088802430A800021974A117000E033
:402800000023954A1278920600D417E1934A1268D20611D51022934B1A608F4B1B78DB0701D5012300E002238D4A11880B4313801022894B1A7007E1874A1278120720D589
:40284000864A126892070AD50222864B1A60844A118888239B000B431380012311E07E4A1278D20703D525217B4A117009E02421794A11707C4A1268002A02D014397B4A35
:402880001160754A1278520700D4AEE0724A1278D20749D5764A1268120727D5754A1268754909681F240C40744909686418141B082C09D8002C16D1714A1168714B0B40E4
:4028C0001360012308340EE008240CE06B4A11686D48006841186D480068C0B20870116801311160013C002CF0D119E0604A1268520715D5614A1168634800684118634873
:402900000068C0B208701168013111601168594A1268914203D204215D4A116000E001235C495D4A116060E04C4A1268920726D502224C4B1A6059490B681D321A400968A5
:4029400080231B020B4000D001239B18544A1168CB1A13601268534B1A60414A118884239B000B431380504B1A68802149020A431A6019684D4A0A401A60012335E04C4AE2
:402980001268D2061ED427E0454A1168364A126891421DD2344A1268013A414909688A4204D1402243490A6030490A603C4A11684148006841180978C9B240480160116857
:4029C00001311160354A12681F210A40082ADBD11021384A116008E0354A1268520604D52F4B1A682F4B1A600123002B2CD0244A1168244B0B4013600023314A13601B4AD8
:402A00001360304B1B789B070ED5134B1B78DB0701D5092300E00A23114A11880B43138060220D4B1A700FE0274B1B689B0601D5182200E01022164B1A6005E0064B1B782A
:402A4000DB0601D4FFF7CEF910BDC046BC0100208C0E2640880E2640B80200200C0F2640C8020020000F2640C4020020880F2640CC0F2640D402002008032640D8020020F8
:402A800060002640FFFEFFFFCC0200204003264068002640ED0F0000C00F264008022640BC020020C002002004022640FFFFFEFF8C0F2640800F2640DC020020400226408C
:402AC000C80F2640D002002064002640002243088B4274D303098B425FD3030A8B4244D3030B8B4228D3030C8B420DD3FF22090212BA030C8B4202D31212090265D0030BB3
:402B00008B4219D300E0090AC30B8B4201D3CB03C01A5241830B8B4201D38B03C01A5241430B8B4201D34B03C01A5241030B8B4201D30B03C01A5241C30A8B4201D3CB0206
:402B4000C01A5241830A8B4201D38B02C01A5241430A8B4201D34B02C01A5241030A8B4201D30B02C01A5241CDD2C3098B4201D3CB01C01A524183098B4201D38B01C01A18
:402B8000524143098B4201D34B01C01A524103098B4201D30B01C01A5241C3088B4201D3CB00C01A524183088B4201D38B00C01A524143088B4201D34B00C01A5241411AEF
:402BC00000D20146524110467047FFE701B5002000F0F0F802BDC0460029F7D076E7704703460B437FD4002243088B4274D303098B425FD3030A8B4244D3030B8B4228D382
:402C0000030C8B420DD3FF22090212BA030C8B4202D31212090265D0030B8B4219D300E0090AC30B8B4201D3CB03C01A5241830B8B4201D38B03C01A5241430B8B4201D34E
:402C40004B03C01A5241030B8B4201D30B03C01A5241C30A8B4201D3CB02C01A5241830A8B4201D38B02C01A5241430A8B4201D34B02C01A5241030A8B4201D30B02C01A62
:402C80005241CDD2C3098B4201D3CB01C01A524183098B4201D38B01C01A524143098B4201D34B01C01A524103098B4201D30B01C01A5241C3088B4201D3CB00C01A5241A6
:402CC00083088B4201D38B00C01A524143088B4201D34B00C01A5241411A00D201465241104670475DE0CA0F00D04942031000D34042534000229C4603098B422DD3030AA2
:402D00008B4212D3FC22890112BA030A8B420CD3890192118B4208D3890192118B4204D389013AD0921100E08909C3098B4201D3CB01C01A524183098B4201D38B01C01A2C
:402D4000524143098B4201D34B01C01A524103098B4201D30B01C01A5241C3088B4201D3CB00C01A524183088B4201D38B00C01A5241D9D243088B4201D34B00C01A5241DD
:402D8000411A00D20146634652415B10104601D34042002B00D54942704763465B1000D3404201B5002000F005F802BD0029F8D016E770477047C0469E2110B5C905041C4B
:402DC00002F052F8002803D1201C00F055FD10BD9E21201CC90500F0C9FB00F04DFD80231B069C466044F2E770B500220C4B04000D0001F0FFFF002804D12000290001F0A1
:402E00003BFF70BD064B00222000290001F0E0FB01F032FF80231B069C466044F1E7C0460000E041F8B54A02430244004E00C50F240E28009B09360EC90F92098D4259D0E7
:402E4000A01B002800DC8DE0002E1AD1002A00D079E05A0704D00F221A40042A00D004335A0138D50134FF2C00D189E028009B015B0AE4B25B02E4055B0A2343C0071843D1
:402E8000F8BDFF2CE5D08021C9040A431B2800DD89E016002021C640081A8240511E8A4132439B1A5A0114D59B019E09300001F0E5FF05388640844265DC041B330020206C
:402EC0000134E340041BA640721E964100243343BFE75A07BFD1DF082800FF2C2FD1002F00D187E08022D20313003B435B025B0AFF24BFE7A11B002949DD002E29D0FF2C4C
:402F0000A7D08026F60432431B2900DD8DE017002026CF40711A8A40511E8A413A439B185A01D6D50134FF2C64D0012276491A405B080B4013438CE7031ECAD100207B02A6
:402F40005B0AE4B296E701380028AAD0FF2C9DD17FE7002A00D17CE701390029DFD0FF2CD2D176E7002820D1601CC0B2012853DD80279E1AFF0437402FD0D61A0D0095E7B3
:402F80002800002376E7614B241A334061E700294DD1611CCEB2012E2FDDFF292AD09B185B080C0055E701227BE7002C1BD1002B5BD0C04300280CD0FF2E7ED01B2800DD30
:402FC00092E01D002024C540201A8340581E83412B43D31A34000D0064E7002E00D065E700200024ABE7FF2E67D08024E40440422343E3E7FF2400233CE7002C61D1002B27
:403000007ED0002A00D124E79B185A0100D460E73E4A0C0013401CE7002C1ED1002B2FD1002A66D013000D0013E7012277E7002C1FD1002B5AD0C94300290BD0FF2E50D01A
:403040001B295FDC1F002024CF40611A8B40591E8B413B439B18340062E7002B1CD1002A4AD013000D00FF24F3E6130034000D00EFE6FF2E35D08024E40449422343DFE712
:40308000002A00D1E5E68027981AFF04074000D152E7D31A0D00DCE6FF24002A00D1D8E68020DB08C003034204D0D208024201D113000D00DB00FF24CBE61300FF240D00A4
:4030C000C7E6002B0DD0FF24002A00D1C1E68021DB08C9030B42EDD0D2080A42EAD11300E8E71300FF24B4E6012372E713003400AFE60027002022E780270020FF03F1E620
:403100001300A6E60123A5E7FFFFFF7DFFFFFFFBF0B5564644465F464D46F0B444024600C70F83B08846650A360EBA463DD0FF2E22D00023EC00802599469B46ED04254318
:403140007F3E43465C025800DB0F640A000E984636D0FF2830D080230021E400DB041C437F38301A0190484642460843724E800030587A4013008746002D44D1082399465B
:40318000063B9B46DDE70122FF2000241A406402C305640AD2071C431443200003B03CBC90469946A246AB46F0BD002D20D104239946033B9B46C4E7002C17D1022102E031
:4031C000002C0AD10121321A01924A4643460A435A48920082587B409746200001F04EFE431F76309C4040420021BAE70321B8E7280001F043FE431F9D4000237630464289
:4032000099469B469DE70C239946093B9B4698E780240022E403FF20B9E70024C2468B465A465346022AAED0032A7DD0012A31D1012200201A400024A9E70122101A1B28C4
:4032400056DD1A4000200024A1E78023DB031D424BD18023DB032B435C02640A3A00FF2095E76D016001854230D2019A0024013A01921B220127290064006D00002901DBE0
:40328000A84201D82D1A3C43013A002AF3D16A1E95412C4301987F300028CEDD620704D00F222240042A00D00434220103D5244A019814408030FE2800DD64E70122A40152
:4032C000640AC0B21A4062E72C00A9E72D1A1A220124CFE76B02BCD500248023DB031C436402640A4246FF2051E71C42B3D1F4E721002022C140101A8440621E94410C43C9
:40330000620704D00F222240042A00D00434620104D5012201201A40002438E70122A401640A1A40002032E78023DB031C436402640A5246FF202AE7B0590000F0590000D3
:40334000FFFFFFF7F0B557464E4645464300E0B446028846760A1F0EC40F002F47D0FF2F25D0002380259A469946F600ED042E437F3F434642465D02D20F5B006D0A1B0E39
:40338000904640D0FF2B39D080220020ED00D20415437F3BFB1842465746591C62408C4607430F2F5CD86F49BF00C9598F46002E45D108239A46063B9946DAE74246022830
:4033C0002DD0032800D1C3E0012800D0A2E0002500260240D4B27602ED05760A2E43E407264330001CBC90469946A246F0BD002E1AD104239A46033B9946BAE72A00511E2B
:403400008A41901CC6E70120002DC3D0280001F035FD431F76309D4043420020BAE70124FF2514400026D6E7300001F027FD431F9E400023763047429A46994699E70C234C
:403440009A46093B994694E780260024F603FF25C1E735004846B2E7350022004846AEE72904090C0800370C3604360C2C0C7943704367437443060C64183619B14203D9AC
:4034800080214902884647440004000C310409188D01681E8541890E2943350CED19AD010D43290104D5012369081D4063460D4319007F31002925DD680704D00F20284083
:4034C000042800D00435280103D5274980330D401900FE29A3DC0124AD016E0A1440CDB279E78020C003064207D0054205D128434602760A4446FF256DE706437602760AD4
:40350000FF2568E70124611A1B2905DD14400025002660E76346CBE72E002023CE40591A8D406B1E9D412E43730704D00F233340042B00D00436730104D501240125144062
:40354000002648E70124B601760A1440002542E780260124F6032E437602760A1440FF2539E7C046305A0000FFFFFFF7F8B54A024E0043024400240EC50F9B09360EC90F19
:403580009209FF2E00D183E001204140A01BA9425CD0002800DC95E0002E1CD1002A00D081E05A0704D00F221A40042A00D004335A013BD50134FF2C00D191E001209B01ED
:4035C0005B0AE4B205405B02E4055B0AED0723432B431800F8BDFF2CE3D08021C9040A431B2800DD90E016002021C640081A8240511E8A4132439B1A5A0115D59B019E09F5
:40360000300001F03BFC0538864084426CDC041B330020200134E340041BA640721E964100243343BDE70D005A07BCD1DF0801231D40FF2C33D1002F00D190E08022D20314
:4036400013003B435B025B0AFF24BCE700284FDD002E2ED0FF2CA4D08025ED042A431B2800DD97E016002025C640281A8240501E824132439B185A01D5D50134FF2C6DD018
:4036800001227B481A405B08034013430D0088E7002A00D07AE777E7031EC5D100257B025B0AE4B28FE701380028A4D0FF2C97D177E7002A00D174E701380028DAD0FF2C7D
:4036C000CDD16EE7002821D1601CC0B2012858DD80279E1AFF0437402FD0D61A0D008FE701231D4000236EE7624B241A334058E7002851D1601CC6B2012E33DDFF282DD0EF
:403700009B185B0804004CE7012274E7002C1AD0FF2E1FD08024E404404223431B2800DD96E01D002024C540201A8340581E83412B43D31A34000D005EE7002E00D05FE7C0
:4037400000250024ABE7002B44D0C0430028F0D0FF2EE3D11300FF240D0022E70D00FF24002330E7002C5DD1002B7DD0002A00D117E79B185A0100D456E73E4A04001340E4
:403780000FE7002C1ED1002B2FD1002A65D013000D0006E701226DE7002C1FD1002B59D0C04300280BD0FF2E4FD01B285EDC1D002024C540201A8340581E83412B439B18ED
:4037C000340058E7002B1CD1002A49D013000D00FF24E6E6130034000D00E2E6FF2E34D08024E40440422343DFE7002A00D1D8E68027981AFF04074000D14DE7D31A0D000A
:40380000CFE6FF24002A00D1CBE68020DB08C003034204D0D208024201D113000D00DB00FF24BEE6002B10D0FF24002A00D1B8E68020DB08C003034203D0D208024200D1DF
:403840001300DB000D00FF24ABE61300FF24A8E601236EE713003400A3E6002700251EE780270025FF03E9E613009AE60123A6E7FFFFFF7DFFFFFFFB4302590A4300C20F2C
:403880001B0E00207E2B0EDD9D2B0DDC802000040143952B0BDC9620C31AD9400B005842002A00D118007047034BD018FBE7963B99400B00F3E7C046FFFFFF7F70B500285A
:4038C00030D0C317C5185D40C40F280001F0D6FA9E231B1A962B0DDC9622D21A95406A02520AD8B25202C005520AE40702432243100070BD992B19DC9922D21A9540124A75
:403900002A40690704D00F210D40042D00D00432510103D50C4B1A409F231B1A9201520AD8B2DFE7002400200022DBE705222E00121AB921D6402A00C91A8A40551EAA4146
:4039400035001543DBE7C046FFFFFFFBF8B556465F464D464446F0B40F00FD0FAA4609037C002E005F00450F490A7F0D2943C5001803BC46400A570F640DDB0F3843D20052
:403980009A4500D1AAE06646A61B002E00DCFFE06346002B39D10300134300D0D9E06B0709D00F232B40042B05D02B1DAB42AD416D4249191D000B0200D482E0CA4B0134ED
:4039C0009C4200D1FEE00A005646C84BED081A405007640552020543120B640D002112030B0D1B056405120B1A436308C04CF60714401C43640064083443280021003CBC48
:403A000090469946A246AB46F8BDB74B9C42C6D080231B041843382E00DDEBE01F2E00DD1EE120239B1B9C4603006746BB40984613004746F3403B436746BA40571EBA41AD
:403A400013430200F240EB1A9D42B6411D008A1A7642911B0B0231D54A02560A002E00D1B4E0300001F00AFA0300083B1F2B00DDB5E020222900D21AD1409E400A009D4016
:403A800032439C4200DDB1E01C1B631C1F2B00DDD5E0202114002800C91A8C40D8408D400443DA40681E854111002543002476E74146314300D134E2310045466B0700D01B
:403AC0006FE756464807ED08C9080543864B9C4235D00A036405120B640D7FE76346E31A9B46002B00DC8BE06746002F3CD07E4FBC4200D153E780273F0438435B46382B39
:403B000000DCF7E00243501E82410020D2B253194218AB4289411D00494289180B02CDD5714B01349C4200D13DE101206F4A6B080A4028401843D507054351082FE72B006D
:403B40000B4300D1CBE180231B030B431A03120B44E7013E002E6DD1AE1AB5429B41091A5B42C91A350075E70700174300D116E701235B429C46E3445B46002B00D0E0E037
:403B8000AA18AA429B4109185B4259181500C5E7002E75D1661C7605760D012E00DCF3E0AE1AB0464545BF410E1A7F42F61B370200D48FE0551BAA42B641411A76428E1BEC
:403BC0009A464BE756460022002507E7280001F055F920300300083B1F2B00DC49E72A002838824000259C4200DC4DE73F49E41A1140D4E60243501E8241D3B2002222E779
:403C0000002B00D0F3E0631C9C465B055B0D012B00DC9FE0344B9C4500D1C3E0AA180918AA42804140424118CD075208154349086446B4E62C4B9C4200D0ECE6AFE611000F
:403C40001F3CE1400C00202B00D17FE04021CB1A9A4015436A1E95410021254300242DE733000700203BDF403B00202E70D04027BE1BB0400243501E824113430022E2E647
:403C8000002C4FD0184CA44500D1ABE08024240476422143382E00DDDFE01F2E00DD43E12027BC1BA1460C004F46BC40A0462C004746F4403C434F46BD406F1EBD41F14096
:403CC0002C43151BAA429241411A5242891A64469A46BFE641464546314300D0BEE6002600240025F2E6C046FF070000FFFF7FFFFFFF0F801F2B59DC2027FF1ABC46070067
:403D000063469F405B46B9461700DF40B8464F4643461F4363469A40531E9A415B463A43D840F4E60C002C435CD0F643002E55D1551BAA42A441411A6442091B9A466446A4
:403D400088E6964FBC4200D0D8E628E6002280E700208FE70B002B43002C00D0C2E0002B00D101E10300134300D118E6AB18AB42B6410918764271180A0200D409E1884A75
:403D80001D00114064460AE6002C5BD10E002E4300D08AE00100114300D1C2E0010015009A46FCE56446002100258FE620235B429C46DC4463460700DF405B46BC46202B47
:403DC00000D1ACE040235F46DB1B98400243501E8241634613431A00002098E66F4CA44500D057E70100150064469A46D7E5002C39D10C002C436ED0DB43002B1AD0674C80
:403E0000A44568D0382B00DDA4E01F2B00DDAEE020240F00E41AA740B9462F00DF40B846A3464F46444627435C46A5406C1EA541D9403D43AD1895429B4109185B425918BC
:403E400064466BE60C002C4315D1010011437BD0010015009A46514CA1E50D43691E8D410021ECB22DE74D4CA44534D0802424045B422143C6E7040014434ED0ED084C07F4
:403E80002C438025C9082D03294208D0C6082E4205D1D208410711430C009A463100620FC900E50011433D4C79E50600164300D175E5AE1AB0464545BF410E1A7F42F61BDD
:403EC000370200D4F4E5551BAA42B641411A7642891B9A4663E50100150064465FE5002200257BE5002B3BD00300134315D0ED084B072B438025C9082D03294207D0C40822
:403F00002C4204D141070B002100D2081343C9005A0F1143DD00214C41E5204C3FE5002054E700260025D1E534000F00203CE7403C00202E2BD04027BE1BB1400D43691E65
:403F40008D4100212C43BCE6802100260903134C0025BBE50D43691E8D410021EDB269E7010015000D4C1AE50100150017E51C000F00203CE7403C00202B0CD04027FB1A88
:403F800099400D43691E8D410021254352E70021D4E71D0092E50021F3E7C046FF070000FFFF7FFFF0B556464D4644465F46F0B41D000E034C00CB0F87B0070092468146F6
:403FC000360B640D98466AD06D4B9C4235D08022430F12041343F6001E43C3009946694B00279C460023644402932B0368001B0BED0F51469B46400D009500D178E0604B00
:4040000098426CD05B46DA004B0F802109040B4313439B465346D9005A4B9C46002360444246201A6A40924601901F430F2F00D9B0E05548BF00C0598746374300D088E0D0
:40404000002399460233082700260293CDE74346B34649460093029B009A9246022B00D0BFE1002153460122002689461A40444B002136030C0D2405360B2643434C1B056B
:4040800026401E437600D207760816434846310007B03CBC90469946A246AB46F0BD330003434FD0002E00D1BCE1300000F0E6FE03000B3B1C2B00DDADE11D220100D31A0A
:4040C00008393A008F408E40DA40B9461643304B00279C46002360444442029385E753465A4613432CD1002300219B46023397E70B4320D05B46002B00D19EE1584600F018
:40410000BDFE03000B3B1C2B00DD8FE102005946083A91408B461D21CB1A5146D9400B0059460B4351469B469140194B9C4660444042002374E7002300219B4601336FE7B5
:4041400003236DE70023994601330427002602934BE703230C27029347E70122D51A382D00DCB0E153461A4000210023002689467EE700238026994600223603004B77E73A
:40418000FF07000001FCFFFF705A0000FFFF0F80F30300005E4500D972E100D16DE1019B4D46013B01930023340002935B461E020B0E1E430B020393330C994633041B0C7E
:4041C000494620000093FEF781FC009B370043430600494620009846FEF7FEFC2C0C09040C43A04509D9E419731EA74200D95CE1A04500D859E1023EE4194346E41A4946FF
:404200002000FEF763FC0300009A80465343494620009B46FEF7E0FC2A040904120C0A4393450DD94346D219013B974200D93AE1934500D837E102235B429C46D219E04454
:404240005B46D21A4346360433439B460399180C0B0C1D00059309045B46090C0C001B041B0C4443049159436B4368431B190D0CEB189C4203D980246402A44660441C0C1B
:4042800009041B04090C20185D18824200D2DEE000D1D7E0161A029B9C465D1BAC459B415B42F61AB74200D106E149463000FEF70DFC009B04004343494630009846FEF76E
:4042C0008BFC2E0C09040E43B04509D9F619631EB74200D9F3E0B04500D8F0E0023CF6194346F31A494618000293FEF7EFFB009B06004343494602989846FEF76DFC2D043B
:4043000009042D0C0D43A84509D9ED19731EAF4200D9D6E0A84500D8D3E0023EED192404210043463143049E059A3000ED1A0B040C0C1B0C58436643534354439A19030C04
:404340009B189E4203D980225202944664441A0C00041B04000C14191B18A54250D34DD001231943964A019B94466344002B00DCF3E64A0709D00F220A40042A05D00A1D4E
:404380008A42894149428B4411005A46D20108D55A468C4B1A4093468022D2009446019B6344894A934200DD5BE65A46C908500708435602514601225B058146360B5B0DB6
:4043C0000A4055E680231B031E4211D05A461A420ED15E461E433603360B2A0089467B4B46E6032B00D1E1E0012BBBD11A40BBE61E433603360B4246744B39E6002BB1D091
:404400007D194A1EAF4252D91100A542A8D1039A9A42A5D1A6E703003E00283B9E400023994654E600F02AFD203041E603005246283B9A400021934677E6504600F01EFD59
:4044400020305EE6029B0026AB4200D323E7039E0299B44661448846B045B6415B467642F619B218013B0291974213D290424FD800D18EE0161A9B460DE7894500D28EE676
:4044800074084B46F60735005B081D434B46DB0702938BE69742EDD10399029CA142E5D93E1A9B46F7E69846CAE61E00A5E6AC423ED874D0110053E70121494252E71C002D
:4044C0000EE71E002BE71F2D3CDC20230A0058465B1B9840EA4099400243481E81415E461143EE404B0709D00F230B40042B05D00B00191D99429B415B42F61833023CD5CF
:404500005346012200211A40002601238946AFE502235B429C46039CE344A446029B63449846A045B6417642F6190293B218B1E603988A1E41008142B6417642F619AD19BD
:40454000039161E71F225242D31A5A46DA401300202D29D040225846551BA8400143481E814107200B4318400026002809D00F2200261A401900042ABBD10B007007760254
:40458000360BDB0803439946012253461A4000236EE502998D42BBD89B4600267BE603989842C5D3110032E70020D7E780265B4636031E433603360B009A8946034B57E55E
:4045C000FF030000FFFFFFFEFE070000FF070000F0B557464E464546E0B40E001100F20F9246C500420F180337037400400A4E0F7F0A3043CF4E17435A00640D520DDB0FB9
:40460000C900B24200D1E5E001267340A61AB446534500D1AFE0002E00DC0DE1002A3AD103000B4300D0E4E06B0709D00F232B40042B05D02B1DAB42AD416D427F191D0016
:404640003B0200D488E0BB4B01349C4200D110E13A00B94B51461A4001235007ED08520264050543120B640D0B400021280012030D0D120B64052D0515436208AF4CDB079A
:404680002C401443640064081C4321001CBC90469946A246F0BDA74B9C42C5D080231B0418436346382B00DDFDE01F2B00DD30E1624620239B1A02009A40664690460A003D
:4046C0009940F24046464B1E99413243114363460200DA40691A8D429B410D00BA1A5B42D71A3B0235D57A02530A98464346002B00D1C4E0404600F0C1FB0300083B1F2BCC
:4047000000DDC5E020222900D21A4746D1409F400A009D403A439C4200DDC0E01C1B631C1F2B00DDE4E0202114002800C91AD8408C408D400443DA40681E85411700254386
:40474000002471E7424663461A4300D14CE2674645466B0700D069E7012351467807ED08FA080B40054373498C4238D012036405120B640D79E7002E00DC9AE0002A47D0DF
:404780006C4A944200D14FE78022120410436246382A00DC08E10143481E81410022C9B24919D219A942BF410D007F42BF183A0200D442E15F4A0134944200D14EE101209E
:4047C0005D4A69083A4028400843D507054357089A4629E706000E4300D017E714E72900114300D1F9E1802109030A431203120B3BE701235B429846C4446346002B72D1AD
:40480000691A8D429B413F1A5B42FF1A0D0068E702000A4300D107E7012252429046C4446246002A00D0E6E06918A942B6413F187642F7190D00BAE7002E00D080E0621CC8
:404840005205520D012A00DCF9E06A1A91464D45B6413A1A7642921B9046120200D499E04D1BA9428941C71B49427A1A90469A463CE752460123002513400022F5E628007E
:4048800000F0FCFA20300300083B1F2B00DC39E72A002838824000259C4200DC3EE7264FE41A1740C0E60143481E81410022C9B210E7002E00D0F1E0621C94465205520D99
:4048C000012A00DCA0E01B4A944500D1C5E06918A94292413F185242D2194908D5070D4357086446A0E6134B9C4200D0D9E69BE611001F3CE1400C00202B00D180E040219A
:40490000CB1A9A4015436A1E95410027254300241FE763460200203BDA406346202B71D0402366469B1B98400143481E814111430022CFE6FF070000FFFF7FFFFFFF0F80B1
:40494000002C48D0CA4CA24200D1A2E07442A1468024240427434C46382C00DDDBE01F2C00DD44E14E462024A41B3E00A640A246B0464C462E00E640B446464664462643E0
:404980005446A5406C1EA54134002C434D46EF400D1B28E04A4643464D461A4300D0A5E6002300240025DEE61F2A5ADC66462022921B060096409146B04662460E00D64050
:4049C000424616434A4691404A1E9141020060463143C240E4E63C002C435AD0F443A146002C52D14D1BA9428941C71B49427F1A14009A4675E69E4A944200D0C7E613E66B
:404A000000227FE700208FE7002C00D0C8E03B002B4300D10FE103000B4300D104E66918A9429B413F185B42DF193B0200D41AE1904B0D001F406446F6E59A4689E63A00A9
:404A40002A43002C5CD1002A75D102000A4300D1CAE007000D009A46E6E564460022002581E662460600203AD6406246B046202A00D1B7E040226646921B9040014342465A
:404A8000481E8141114300228AE6794CA24200D061E707000D0014009A46C5E5002C41D13C002C4378D0F443A146002C20D0704CA24271D04C46382C00DDB2E01F2C00DD9C
:404AC000BCE02026341BA2463C005646B4404E46A0462C00F440A446444666463443A4465446A54064466E1EB54125434C46E7406D188D4289413F184942CF19140056E672
:404B0000002A2FD102000A4300D184E007000D009A46574C88E53D436F1EBD41ECB200270D1B60E7524CA24236D0744280263604A1463743BEE702000A4300D174E56A1A63
:404B400090464545B6413A1A7642921B9446120200D4F7E54D1BA9428941C71B49427F1A9A4661E502000A433AD0ED087C072C438025FA082D032A4208D0C7082F4205D1CD
:404B800045072C003A009A46C9080C43670FD200E5001743364C47E507000D00140043E53A002A4343D002000A4319D0ED087C072C438025FA082D032A4207D0C6082E428D
:404BC00004D147073C003200C9080C43D700620FE50017439A46264C26E50022002544E5234C21E5002049E700230025BBE54C463E00203CE6404C46B446202C31D0402474
:404C00004E46A61BB7403D436C1EA54164462C4300270D1BE7E6802200231203144C0025A1E53D436F1EBD410027EDB260E707000D000F4CF8E407000D00F5E44E463C00FE
:404C4000203EF440A0464C46202C0ED040244E46A41BA7403D436F1EBD4144460027254346E70027CFE70D0073E50027F2E7C046FF070000FFFF7FFF0B0330B5134D1A0BCF
:404C80004B005B0DC90F0024AB4211DD104CA34210DC8024640322430E4CE41A1F2C0CDD0D48C31ADA4013005C42002900D11C00200030BD094BCC18FAE7E040084CA446AA
:404CC00063449A4013000343EEE7C046FE0300001D0400003304000013040000FFFFFF7FEDFBFFFF4200120E511C4302C9B270B55D0AC40F012915DDE02189008C466D0753
:404D00001B0B6244002128000D0D2D052B431C4D52052B40520813435B00E4075B082343190070BD002A15D1002D1FD0280000F0A5F80A281DDC0B232A001B1ADA401300AE
:404D40000200153295400F4A1B03121A52051B0B520DD7E7002D06D080221B0B120313436D07094ACEE7084A0023CBE700220023C8E703000B3B9D402B000025E3E7C046C5
:404D8000FFFF0F8089030000FF0700008446101C62468C46191C634600E0C0461FB500F0DFF9002801D40021C8421FBD10B500F033F94042013010BD10B500F0D1F90028F8
:404DC00001DB002010BD012010BDC04610B500F0C7F9002801DD002010BD012010BDC04610B500F059F9002801DC002010BD012010BDC04610B500F04FF9002801DA00208D
:404E000010BD012010BDC0468446081C6146FFE71FB500F0BDF8002801D40021C8421FBD10B500F049F84042013010BD10B500F0AFF8002801DB002010BD012010BDC04602
:404E400010B500F0A5F8002801DD002010BD012010BDC04610B500F057F8002801DC002010BD012010BDC04610B500F04DF8002801DA002010BD012010BDC0461C210123D0
:404E80001B04984201D3000C10391B0A984201D3000A08391B09984201D30009043902A2105C40187047C04604030202010101010000000000000000430270B542004C006E
:404EC0005D0AC30F4802120E460A240EC90FFF2A0FD0FF2C11D00120A24200D070BDB542FCD18B420DD0002AF8D12800431E9841F4E70120002DF1D1EBE70120002EEDD112
:404F0000E9E70020EAE7C0464302F0B542005D0AC30F4802440A4800120E000EC90FFF2A1FD0FF2822D0002A09D16E426E4100280FD1002C0DD10020002D09D005E0002886
:404F400001D1002C01D08B4213D0584201231843F0BD002EF7D048424141012049420843F6E7002DDDD002204042F1E7002CDAD0F9E78242E9DC04DBA542E6D80020A542F7
:404F8000E6D25842434101205B421843E0E7C0464302F0B542004C005E0AC30F4802120E450A240EC90FFF2A17D0FF2C19D0002A0BD170427041002C17D0002807D0484297
:404FC0004141012049420843F0BD002C13D08B4214D0584201231843F6E70220002EF3D1E3E70220002DEFD1E1E7002DE5D10020002EE9D0EDE7002DE9D1EAE7A242E8DC02
:4050000004DBAE42E5D80020AE42DDD25842434101205B421843D7E7F0B55F4656464D464446F0B41F035C00DB0F9A46194B0E034D00C90F8046360B6D0D8B4691463F0B34
:40504000640D9D4219D0134B9C421BD00123A54206D018003CBC90469946A246AB46F0BDBE42F6D1C845F4D1D34510D0002DF0D1304303005A1E9341EBE7310001230143F8
:40508000E7D1E0E73A430123002AE2D1DEE70023DFE7C046FF070000F0B55F46444656464D46F0B41F033C0B2C4F0E034D00A3465C008446360B6D0DC90F9046640DDB0F7D
:4050C000BD422BD0254FBC422ED0002D0ED130430700814678427841002C17D15F463A4314D14B460020002B0AD006E0002C02D15846024301D099421AD00123484218434E
:405100003CBC90469946A246AB46F0BD0028F2D058425841012240421043F1E737000743D0D002204042EBE75F461743CDD0F8E7A542E2DC05DB5E45DFD808D000205E45C3
:40514000DED248424841012340421843D8E7C445D3D80020C445F4D3D2E7C046FF070000F0B55F464D4644465646F0B41C03240BA4462F4C0F034D005E00C90F80463F0B44
:405180006D0D8B469146760DDB0FA54220D0284CA64222D0002D12D1384344424441002E20D0002C0DD05C42634101245B421C4320003CBC90469946A246AB46F0BD002E9A
:4051C00017D05B4519D05B465C4201231C43EFE7390002240143EBD1D9E7614602241143E6D1D7E761460A43DBD100240028DFD0E9E761460A43E4D1E5E7B54203DD012218
:405200005C421443D4E7B542CDDB6745DBD809D000246745CCD259464C426141012449420C43C5E7C845CED80024C845F3D3BFE7FF070000014B18687047C04640010020BF
:405240000E4B70B500251E000D4CE41AA410A54204D0AB00F35898470135F8E700F02AFC084B00251E00084CE41AA410A54204D0AB00F35898470135F8E770BDC05A00001F
:40528000C05A0000C05A0000C85A0000002310B59A4203D0CC5CC4540133F9E710BD03008218934202D019700133FAE7704700000000000000300F40000800400F40000829
:4052C000816F830F856F860F871F0006059E0608076009FD0B02170F180319301BC921CF23302406280529732D942F60300831FF340738203F014024410349FF4AFF4BFF1A
:405300004DA04F015018580459045A045F016040628064406540668068406A806C406D206E8088018D189102950C980399149A0C9C08A003A720A918AF03B001B101B202FF
:40534000B320B408B51CB604B702B80AB920BE11BF40C024C103C543C6C2C70EC81FC9FFCAFFCBFFCDAFCE07CF01D018D40FD804D904DA04DB04DF05E040E280E440E54091
:40538000E680E840EA80EC40ED20EE800102021005200A040E020F0810041104168019201A8C1B011C601D021E0A208024102602270A29222B012E802F24331836223708DB
:4053C000380839243D804044430C452247044C804F0856A85E485F2266287E0486108A808B20C04CC2C2C416CA7DCCE6CE16D0E7D6F0D860DE20E20201940208036004C087
:405400000624070F088409300A100BC90D9E0F6014B71573164019FD1A071B021C011EF220C12212247729CF2B3031FF32F0340F3F01580459045F018208830184088564C1
:40544000871889788A218B048D018E10900292049401962E9707980E99189B609C619F80A14CA240A330A402A604A80EA93CAD48AF30B040B102B21EB37CB401B501B62055
:40548000B780BE51BF10D280D40FD804D904DB04DF0100A0010203100410062007400AA40B010E2910841104140415201680170819901A601B081C081E081F042004212837
:4054C0002341274029222B012E202F0430803108331036303708380A39203B403C183D803E9159905A045B01700185108701901091049284940C95209640970899209B0880
:405500009C049D029F10A0D0A301A560A620A728C07FC2EFC43ECA2DCC6ECEFFD60F00CC0101022104CC052806120714093C100812F11480161F1877191C1D0C1F30213023
:40554000230C24BB264429142B282F0330F03101340F353C37023F014043410649FF4AFF4BFF4DA04F015018580459045A045F016040628064406540668068406A806C40C2
:405580006D206E8083038C08980399029A0C9C03A401AF04B002B201B304B408B501B604B702B80ABE14BF40C043C106C523C6C4C70EC81FC9FFCAFFCBFFCDAFCE07CF017B
:4055C000D018D40FD804D904DA04DB04DF05E040E280E440E540E680E840EA80EC40ED20EE80010203200540081409040A840F0A130415041708180819021B201C101D488B
:405600001E081F0121102345250426102712280429022A402E40301032403610380839203B013F0240104302450A48044A084E084F0A56585D105E085F4266187D048240A2
:405640008510870192949408952096019A209B089D029F10A004A540A620AF20C08CC2CEC424CA1DCC2CCE87D0C3D224D6F0D860DE40E2040138020103C1044C063008180D
:4056800009CC0A600B310C640DAC0E180F521401157719FB1A071B041C481E3020782204243C29502A802BAF30013202347C35F03680370F3E015280540F580459045B043B
:4056C0005F018008830286028C049401950499029E02A002A501AD02B008B204B302B401B504B602B701BE40BF04D604D804D904DB04DF010008020203900520062007427E
:4057000008080B020E291240130115011608170819951D021E291F022014228025402620270229082A402D202E1030083310362037083B023D803E2159155A405C105D819C
:405740005E025F08628063807740820883C0840885088A028C0C8E619210930396019A209B08A004A542A620A702C0FDC2E5C478CA2ACC66CEB1D6FFD809E202E60C6B107B
:40578000DA40030806029F10C0C09F10A308AE02EC1083189F10A308E220E480008004208440C00390208010902006100A200B020C080F0283018610870188088E10C0040B
:4057C000C20FE202E60401011001120105000F4061300F4036310F404D320F4046330F4062340F4049350F4040360F4045370F4002400F4004410F4004420F4005430F40D1
:4058000004440F4001450F4002460F400E470F4003600F40000000000800880000000000010000000800880000000000020000000800880000000000030000000800880009
:405840000000000004000000080088000000000005000000080088000000000006000000080088000000000007000000080088000000000000000000A8008000FFFFFFFFAE
:405880000000000001000000A8008000FFFFFFFF0000000002000000A8008000FFFFFFFF000000000300000000000000000000000000000004000000000000000000000096
:4058C000000000000500000000000000000000000000000006000000000000000000000000000000070000000000000000000000000000000800000000000000000000008E
:4059000000000000090000000000000000000000000000000A0000000000000000000000000000000B0000000000000000000000000000000C00000000000000000000003D
:40594000000000000D0000000000000000000000000000000E0000000000000000000000000000000F000000000000000000000000000000030405060708090A0B0C0E0F95
:40598000101112131415161718191B1C1D1E1F2021222325262728292A2B2E2F30313233343500000000000000000000060700006232000086310000443200001C32000043
:4059C0004432000010320000443200001C3200008631000086310000103200001C320000C8320000C8320000C83200004A3200008631000086310000303200001A320000A7
:405A00003032000010320000303200001A3200008631000086310000103200001A320000C8320000C8320000C8320000D432000060340000BE330000BE330000BC330000BF
:405A4000523400005234000048340000BC330000523400004834000052340000BC330000583400005834000058340000E234000094410000624000006841000058400000C6
:405A800068410000724100006841000058400000624000006240000072410000584000004E4000004E4000004E400000C443000043000000F8B5C046F8BC08BC9E46704700
:405AC000B1020000050D0000F8B5C046F8BC08BC9E46704789020000E85A0000C0000020880000009801000000000000010000000000C05D80BB000030000000006CDC027A
:405B0000F0000000040404000000000000000000000000000000000000000000000000000000000000000000B05A000000000000000000000000000000000000000000005F
:405B400000000000000000000000000000000000000000000000000000000000000000000000000000000000E0000020000000000000000000000000000000000000000025
:405B800000000000000000000000000000000000000000000000000000000000000000000000000000000000000000000000000000000000000000000000000000000000E5
:405BC00000000000000000000000000000000000000000000000000000000000000000000000000000000000000000000000000000000000000000000000000000000000A5
:405C00000000000000000000000000000000000000000000000000000000000000000000000000000000000000000000000000000000000000000000000000000000000064
:405C40000000000000000000000000000000000000000000000000000000000000000000000000000000000000000000000000000000000000000000000000000000000024
:020000040003F7
:0200000490303A
:02000000C052EC
:0200000490402A
:4000000000000000000000000000000000000000000000000000000000000000000000000000000000000000000000000000000000000000000000000000000000000000C0
:400040000000000000000000000000000000000000000000000000000000000000000000000000000000000000000000000000000000000000000000000000000000000080
:0200000490501A
:0C0000000002101111A00001102ED1F21E
:0200000490600A
:0100000001FE
:00000001FF