:400000000040002011000000810A0000810A000010B500F03DFDC04610B51222214B1A60302001F073FA204A204B1A600024204B1C60204B204A1A602049214A1160214A5E
:400040001A60CE21C901204A1160204A1A60E021C9001F4A11601F4A1A60E82149011E4A11601E4A1A60822212061D4B1A608022D2021C4B1A60C0221B4B1A607D3A1B4B25
:400080001A60023A1A4B1A6001321A4B1A601A49082001F05FF9082001F046F9174B1C6010BDC046300010400600008004010B40000301400000014040FF008000FF5207CA
:4000C00000050140C0FF00800C03014043FF00800403014041FF00800803014042FF008008010B4000010B4058010140500101402801014008010140891700000C020B40DB
:4001000070B572B601224B4B1A7000240FE04A486200131959000B00411889881A5AC31858880004104300F06FFC0134E4B2032CEDD9002414E0404EA20011194B00F318C5
:40014000198B588B000408439D8BD98B0904294313195A00B218128C00F05CFC0134E4B2012CE8D934492C313448743000F032FCA0221201324B1A800122324B1A70AA21BC
:40018000314B19604431314B1960BE39304B1960EE2109022F4B196099231B042E490B602E482F490860802080022E490860802000032D4908602D490B602D490B602D491B
:4001C0000B602D4B1A602D4B1A602D490B783B32934314221343DBB20B702A4A117816230B43DBB213700222274B1A603123274A13600321264A11602131264A11605C313F
:40020000254A11604231254A1160254A1360C022244B1A603232244B1A60244A244B1A60DB225203234B1A60FFF7F6FE00F006FC70BDC0461C700F401C2400009C26000014
:4002400000600F4002600F400000024000010240000202400003024010500F400400990020500F4024500F4028500F4040500F4050500F4070500F402000104000800F405F
:4002800001700F4000700F40000004400800044000010440080104401801044000020440080204401802044000030440902D4900080304400804044010B5064C2378002B85
:4002C00007D1054B002B02D0044800E000BF0123237010BD480100200000000018240000084B10B5002B03D00749084800E000BF07480368002B00D110BD064B002BFBD0A6
:400300009847F9E7000000004C01002018240000C000002000000000F8B504000D0000F039FE0F2020401A4E30603F212940194B1960194C00252570800108434005E060F3
:40034000164FA760164B1B686360200000F0EEFC01232370E560A760124B1B686360200000F0E4FC022323703368DB06FC22D2041343E360A7600C4B1B686360200000F065
:40038000D5FC00F0CFFB09491D2000F0E3FFF8BDC0010020D4010020C4010020FFFF1F80A0002F40C0002F40E0002F40A104000010B586B0002815D0038802AC0293002319
:4003C000237163718278A271E3716B460593C11C0822684602F00EF8200000F0F1FD002802D102E0022000E0012006B010BDC046014B18787047C046D4010020014B18784D
:400400007047C046C0010020104B1878C0B2002819D15A78D2B29B78DBB29A4205D20B4A93785078181AC0B20EE0084B5A78D2B29B78DBB29A4207D9044A93785078181AF4
:400440001030C0B200E010207047C04664010020124A93780133DBB293709378DBB20F2B02D900220D4B9A700C4B1B78002B0BD00A4A53780133DBB253705378DBB20F2BF7
:4004800002D90022054B5A70044A537891785B1A59424B41DBB213707047C0466401002070B580225201444B1A60444B1B68DA0706D49A0706D45A0706D41B0706D406E08D
:4004C000002404E0012402E0022400E003243C4B9A78D2B264013B4B9C4664442368DB0202D46168490D02E06168C90889B2364B500082189000C152314A9178C9B2206885
:40050000000C0F2528404D0069188D005D19A8709178C9B2A5682D0E4800411888001818C5709178C9B2A068000CC0B24D0069188D005D1928719178C9B2A068000AC0B254
:400540004D0069188D005D1968719178C9B2A568EDB2480041188800181885719178C9B2E5682D0E4800411888001818C5719178C9B2E068000CC0B24D0069188D005D199C
:4005800028729178C9B2E068000AC0B24D0069188D005D1968729278D2B2E068C0B251008A1891005B189872FFF752FF226801231343236070BDC04600002F4008002F407E
:4005C00064010020A0002F40D801002010B5FFF71BFF00280BD0064A53780133DBB253705378DBB20F2B02D90022014B5A7010BD6401002010B582B0041E17D0FFF704FF07
:400600006B46D87107331B78002B11D00A4B5B78DBB25A00D3189900084B59180C22200001F0E8FEFFF7D2FF002002E0022000E0022002B010BDC04664010020D80100207B
:4006400070B504001E00012000F022F820800823A370E51CF621280000F028F82418E670421C0499280000F033F870BD8079704770B504001D00002000F00AF8208004230E
:40068000A370E01C092100F011F82418E57070BD80028023DB0018408901403B194001433F200240114308007047C04610B504000170FFF7A3FE6070FFF79AFEA070032034
:4006C00010BDC0464079704700797047C078704710B50B0E8354531C0C14C454931C0C12C4540332815410BD407970470079704740797047807970472720704700207047EB
:4007000010B5431C642B06DC0303181A642101F059FD273007E00303181A642101F052FD024B9C466044C0B210BDC04627F0FFFF10B5431C642B06DC0303181A642101F075
:4007400041FD273005E00303181A642101F03AFD27300012C0B210BD70B505000C0001F077FA002302222900200001F091FA00280DD101F055FA8307FBD501F051FA83056A
:4007800007D401F047FA022805D0FF2004E0FF2002E0FF2000E0002070BDC04600B583B001F09EF901F090F901A800230370803343704021FFF7D0FF03B000BD00B583B0CA
:4007C00001AB1870597040211800FFF7C5FF03B000BDC04670B50D008000C4B2A61DF6B2FFF78AFF01003000FFF7E8FFFFF786FF0100E31DD8B2FFF7E1FF2800FFF780FFBA
:40080000010023000833D8B2FFF7D8FF2800FFF78FFF01000934E0B2FFF7D0FF70BDC04610B501F0B1FA03230340054C012202212000FFF71DFF2000FFF7BAFD10BDC0465B
:400840009802002070B562B601F0A4FA324801F0D1FA01210720FFF75FFD01F0D7F8FFF79DFF00242000FFF7C5FE0028F9D12000FFF72CFF0E2819D0F52832D00D283FD11C
:400880000C3800F0DFFFFA20400000F09BFD002000F0D8FF2000FFF729FF05002000FFF723FF0100280000F07BF8DAE7012000F0C9FFFA20400000F085FD002000F0C2FF1F
:4008C00000242000FFF712FF05002000FFF710FF06002000FFF70EFF01003200280000F077F8012000F0AEFFFA20400000F06AFD002000F0A7FF0024200000F01DF8B0E79B
:40090000002000F093FFFA20400000F05BFD012000F08CFFA5E7C0462108000010B5040001F084F8022001F095F801F089F8200001F0A4F880B210BDF0B587B00400FFF752
:4009400095FE05002000FFF7BFFE06002000FFF7B9FE0400162D02D0172D04D007E00020FFF7DCFF04E00120FFF7D8FF00E0002000902B002200310003A8FFF761FE03A8A5
:40098000FFF716FD002809D0002000F04FFFFA20400000F017FD012000F048FF07B0F0BD10B50400B32900DDB321002900DC0121042C0BD84800411848010818AC2101F05D
:4009C00001FC010066312000FFF704FF10BDC0467047C046F0B50025002711E0BB00C658F3B2FF22964308E06A008A181478A419527822700135013BDBB2002BF4D101379F
:400A00000D2FEBD9F0BDC04610B50A00002101F0FAFC10BD10B501F0EDFC10BD064B1B68002803D080221206134301E05B005B08014A13607047C04680033A4010B5032312
:400A4000094A1360094A136080221206084B1A60C023084A1360084A13600022074B1A600120FFF7DBFF10BD300030403000314000003A4000033A4040033A40000E3F40C8
:400A800010B501F08BFC03680C2B00D1FEE7FEE770B50F4E0F4D13E029686B68AC68002202E001C901C30432A242FAD1E868002202E0002102C304328242FAD11035013E79
:400AC000002EE9D101F070FCFFF7BCFEFEE7C04601000000082A000010B50E4A136801218B43136000230AE0032B03D89A000A49505800E009489900094A885001332F2BBA
:400B0000F2D9FFF7FDFA034A116801230B43136010BDC0460000104000000000810A000000000020054B1A6801210A431A601B68194201D1012000E00020704704002F40CE
:400B400010B50E4A0E4B1A60FFF7ECFF1D2000F0EBFB0C4A116801230B431360C02300E0013B002B03D0074A1268D207F8D5002B01D1012000E0002010BDC046011200006B
:400B800000002F4010002F4003B2002B0DDB094A1168094B0B400004034313601268074B1340984203D0012002E0022000E000207047C04614002F40FFFF00800000FF7F2A
:400BC000002809D10C4B19680C4A0A401A601B68DB040CD501300DE0074B1A68802149010A431A601B680B4203D1012002E0002000E000207047C04614002F40FFEFFFFF27
:400C000070B5841EE4B20D2C35D88C1EE4B2052C03D9002B31D1012931D1032A31D8904231D3914231D31C4D2C68240AE4B20F26B44320432E68194C3440000204432C60F4
:400C40002C686040F0242401204220D1002B00D002234901C9B29200D2B2114319430E4A1368EE2083430B4313601368034099420FD0ED380EE002200CE002200AE00220DA
:400C800008E0022006E0022004E0022002E0012000E0002070BDC04614002F40FFF0FFFF002809D10B4B1A6810218A431A601B6819420BD001300CE0064B1A6810210A43FD
:400CC0001A601B68194203D1012002E0002000E00020704714002F40002809D10B4B1A6801218A431A601B6819420BD001300CE0064B1A6801210A431A601B68194203D1E4
:400D0000012002E0002000E00020704714002F40054B18601B681B041B0C984201D0012000E000207047C04604002F4010B503785B01204A944663441F4A41680A431A6069
:400D400003785B01634419681C4A11401C4A44682240914224D182681A6103785B0163441A6981688A421DD1C2685A6103785B0163445A69C1688A4216D1012252429A61C4
:400D800003785B0163449A6901320FD10022DA6103785B016344DB69002B09D0012008E0012006E0012004E0012002E0012000E0002010BDA0002F40800080007F007F0069
:400DC0007FFF7FFF10B503781B01104A944663440F4A41680A431A6003781B01634419680C4A11400C4A4468224091420AD182685A6003781B0163445A6883689A4203D041
:400E0000012002E0012000E0002010BD20002F4008008000F7007F00F7FF7FFF70B500240AE063001B199800104B1818FFF7CAFF002805D10134E4B2072CF2D9002500E048
:400E40000125002D0BD00FE0230108486030C018FFF76CFF002806D10134E4B200E000240F2CF1D900E00125280070BD48280000002809D10C4B19680C4A0A401A601B6803
:400E80009B040CD501300DE0074B1A68802189010A431A601B680B4203D1012002E0002000E000207047C04614002F40FFDFFFFF10B580221206334B1A60334A136801215A
:400EC0008B431360A0231B0100E0013B002B03D02D4A1268D207F8D4002B49D01D2000F02DFA2A491D2000F035FA03211D2000F043FA0020FFF748FE002819D1FFF760FE6B
:400F0000002817D1FFF7B4FF002815D10023002201210C30FFF774FE00280FD1FFF7C0FE00280DD1FFF7D8FE00280BD001230AE0012308E0012306E0012304E0012302E01C
:400F4000012300E00023002B14D1FFF767FF002812D10F48FFF7DCFE00280FD10A4B1A6807218A431A601B68194209D0013008E0012006E0012004E0012002E0012000E07E
:400F8000002010BD00042F4010002F40BD0F00000112000010B5084B1B78002B02D1FFF787FF00E00020002804D10122024B1A70FFF7C6FD10BDC046680100207047C04685
:400FC000F8B54F464646C0B4040001200023984691E04C4B1B6832041A427AD12379002B01D1002701E08027BF036379002B07D12B01454A94466344226852055A6009E078
:4010000080235B031F432B013F4A944663442268D2005A60A379072B03D81B041F43B94603E080231B031F43B946E379002B03D004234A461A43914600232AE0032B13D9C7
:401040002801324A94466044026894465907CA1AD1003831FF228A4067469743E268D25C8A403A43026012E02801274A94466044826894465907CA1AD1001831FF228A40E1
:4010800067469743E268D25C8A403A4382600133DBB2A279934201D2072BCFD91D2000F04DF92B01184A94466344194A4F4617431F60227A002A04D0196803220A431A6050
:4010C00003E0196801220A431A601D2000F02CF900207600F6B2002807D00135EDB201E001260025072D00D873E7002806D043460133DBB298464346022BF1D90CBC904667
:401100009946F8BD08002F4020002F402C002F4008008000074B1B78272B05D8064B1B78DBB2064A136004E0054B1B78DBB2034A1360704702F3FF0F42F3FF0F20FF0B402F
:40114000C1F1FF0F00230AE0204A12683F210A401F49C95C8A4201D1033303E001332D2BF2D903231B4A12781B2A16D8302B05D1194B1B78DBB2194A136006E0182B04D1A8
:40118000174B1B78DBB2154A136016490B681F229343173A13430B6016E0302B05D1124B1B78DBB20D4A136006E0182B04D10F4B1B78DBB2094A13600A4A13681F218B4357
:4011C0000B4909780B4313607047C0462CFF0B40A829000002F3FF0F3FF3FF0F28FF0B403EF3FF0F34FF0B40C3F1FF0FC2F1FF0FC0F1FF0F00230AE00D4A12683F210A4019
:401200000C49C95C8A4201D1033303E001332D2BF2D9032308490868084A02400A60084A944663441B78DBB2064A13607047C0462CFF0B40A829000000002240FFFFFFBF69
:401240004DF3FF0F28FF0B40034B18688023DB05184000D0012070470000224010B50B4A136801218B431360094B1A68094B1A60094A12685A60FFF765FFFFF74BFF074AED
:40128000116802230B43136010BDC04650000C4034FF0B406C01002020FF0B4024002C4030B500230AE0134A12683F210A401249C95C8A4201D1033303E001332D2BF2D95A
:4012C00003230E490A68022082430A600C4C21681F2291430B4805682A400A4322604168094A1160094A944663441B78DBB2084A136030BD2CFF0B40A829000024002C40D5
:4013000034FF0B406C01002020FF0B404DF3FF0F28FF0B40034B1B680220184000D001207047C04624002C401F2318401E3B8340014A13607047C04600E100E01F23184063
:401340001E3B8340014A13607047C04680E100E001BE704770B504000D001F2802D90020FFF7F6FF1034A40080239B059C4664442068256070BDC04670B504000E00032964
:4013800002D90020FFF7E4FF1F2C02D90020FFF7DFFF03252540ED00063500F042FDA408A400074B9C46644421680323AB4099430B003100A9401943216000F036FD70BD67
:4013C00000E400E010B5040006E0084B586800F01FFD074B9C46644480231B029C42F4D8024B9868604300F013FD10BDC40000200080FFFF70B582B000F070F9002862D0EC
:4014000000F00FFD0500314A116801230B43136000230AE02E4A12683F210A402D49C95C8A4201D1033303E001332D2BF2D903230021294A1160294A1268D20606D127484A
:4014400002681F318A4313390A430260244C2168244A1140244A5A438023DB019C466244D20B013A5205520D0B001343A0225203134323601D4B1B680193302000F0D8FC6E
:401480001B4A13688021C9050B4313602668194B1E40002407E00120FFF794FF1034A30533430F4A1360EE2CF5D90120FFF78AFFFF239B051E430A4B1E60019A0B4B1A6000
:4014C000280000F0B2FC02B070BDC04650000C402CFF0B40A829000028FF0B4034FF0B400800224000F800C040420F003000104000002240FFFF3FC010B5034B1B7B584398
:4015000000F086FC10BDC046C4000020F0B55F4656464D464446F0B483B0040000F081FC0190FFF791FE002804D0FFF763FE01239A4601E000239A46FFF7ECFE002808D006
:40154000182C01D0302C07D1FFF7AAFE01239B4604E000239B4601E000239B46E61E2D2E74D8464B1B78DBB29C4208D8444B1B78DBB29946434B1B78DBB2984631E0424BE0
:401580001B78DBB29C4208D8404B1B78DBB299463F4B1B78DBB2984623E03E4B1B78DBB29C4208D83C4B1B78DBB299463B4B1B78DBB2984615E03A4B1B78DBB29C4208D86F
:4015C000384B1B78DBB29946374B1B78DBB2984607E0364B1B78DBB29946354B1B78DBB29846344B9F5D2F2F09D92A2C07D91922314B1A60052000F00BFC192503E02E4B2C
:401600001D683F231D40BD4206D92A4B9A5D2A4B1A60052000F0FCFB254B9C4664442378DBB2264A1360264B4A461A60254B42461A600520FFF760FFBD420AD21D4B9A5D7B
:401640001D4B1A60052000F0E3FB02E00020FFF77FFE5346012B01D1FFF7CCFE5B46012B01D1FFF7FBFD019800F0DFFB03B03CBC90469946A246AB46F0BDC04640F3FF0FAC
:4016800041F3FF0F42F3FF0F43F3FF0F44F3FF0F45F3FF0F46F3FF0F47F3FF0F48F3FF0F49F3FF0F4AF3FF0F4BF3FF0F4CF3FF0F4DF3FF0FA82900002CFF0B4028FF0B40C9
:4016C0001CFF0B4020FF0B40034B1868C0231B02184000D00120704700010B40034B1B68002B01DA012000E0002070470000224010B500F096FB044A1368C02109020B43A6
:40170000136000F092FB10BD00010B4010B500F088FB08490A68084B1A408024E40122430A600A6813408022120213430B6000F07CFB10BD00010B40FF3FFFFF70B505007E
:4017400000F06FFB0400FFF7BFFF002803D0FFF7DDFF012100E0002108482840084A1568084B2B40184310601368012901D1FFF7BFFF200000F059FB70BDC0460404040089
:4017800010020B40FBFBFBFF10B5244B1B685B0715D5234B5B685B070ED5224B596A042001401F4C62688A4362605A6A82435A629B69002B00D098470420FFF7BFFF174BAD
:4017C0001B685B0518D5164B5B685B0510D5154B596A8022D2001140114842688A434260596A114A0A405A62DB69002B00D098478020C000FFF7A2FF084B1B685B030CD508
:40180000074B5B685B0304D5064B1B6A002B00D098478020C002FFF791FF10BD10020B40D80000208C010020FFFBFFFF04490A68D2B240239A43800118401043086070472F
:401840000004044004490A68D2B210239A43000118401043086070470004044010B503211120FFF789FD43491120FFF773FD0322414B1A60414B1B68002B01DA404900E058
:401880004049414A13680B431360404A404B1A60404A414B1A600023404A1360404A41490A6041490A60414A116880204002014311603F490A6802430A603E4A13603E4A60
:4018C000136001223D4B1A603D4A11683D4B0B40802189050B431360002248E03A4891000C58DC239B0123408018007A03433748844661440B60E30707D52E480168012354
:4019000093401B041B0C0B43036093002E495B589B0707D528480168012393401B041B0C0B4303609300284959588B0502D58020400001E080204001CB0504D453000024FE
:4019400023495C5203E05300002421495C52214B43438021C9008C466344D9174905490DCB18DB121BB290001B4943500132012AB4D910BDA91A000020003A4080033A403C
:40198000C0201010C020001000003A408C00008004003A400000FF0718003A401C003A400400040010003A4014003A4000033A4040033A4028023A4038023A4018023A40BF
:4019C00030003A40FEFFFFDFD829000080003A40AC02002010270000A402002010B5094B1B68002B0CDB084B1B68002BFBDB054A1368802109060B4313600A20FFF77CFD43
:401A000010BDC04600003A4008023A4010B5064B1B78002B04D1FFF721FF0122024B1A70FFF7DCFF10BDC046B4010020034A1368802149020B4313607047C04604003A40F3
:401A4000024A1168024B0B401360704704003A40FFFFFEFF020083070CD0074B1B680120184001D19307F8D4002804D00122024B1A6000E00020704710023A4010B5040086
:401A8000012802D90020FFF763FC012C07D8A400044B9C46644420680004000C00E0002000B210BD80013A40014B1A681A60704710023A4010B50920FFF736FC10BDC0469E
:401AC00010B500F01DF810BD10B5044A1368802109060B431360FFF7EDFF10BD0000244010B5064B1B78002B04D1FFF7E9FF0122024B1A70FFF7E8FF10BDC046B801002033
:401B000010B50024184B1C60184A194B1A60194B194A1360194A1460194A1460194A1360194B1C600920FFF709FC03210920FFF723FC16490920FFF70DFC154B1C60154BB6
:401B40001C60154B1C60154B1C60154B1C60154B1C601022144B1A70144B1C80144B1C60144B1C6010BDC04600002440770800806000244007010080000324400403244059
:401B8000100324400002244004022440851E0000C80E2440880E2440480F2440080F2440C80F2440880F2440B0020020C0020020D0020020B802002010B50E4A13685B0028
:401BC0005B08136000230C490B600C490B600C4804680C49214001600B490B600B490B6010210B4B19701368802109060B43136010BDC04600002440680024406C00244048
:401C000060002440FF5CFFFF880F2440C80F2440B0020020014B18687047C046B802002010B50920FFF78AFB074B1C88A2B21400064B1B789B0602D504231A4394B2092006
:401C4000FFF772FB200010BDC0020020B002002010B50920FFF772FB044B1C88A4B200221A800920FFF760FB200010BDC0020020054B1B682022134000D0082301221343E5
:401C8000024A13607047C0466400244068002440F0B583B001900C0017001D00002917D02A4B1B78102B08D10920FFF747FB284B1B68DB070ED508260FE0244B1B78602B79
:401CC0000AD1244A138808218B431380002604E0042602E0002600E00426002E2FD128221A4B1A7000231C4A13601C4A13601C4B1F601C4B1C60EAB21B4B1A70019B5C00A7
:401D0000FF231C40134A138802218B4313804023164A13601649174A11601421FF31164A1160164A1360EB0704D5FFF7A1FF144B1C6004E0124B1C600222124B1A6009201C
:401D4000FFF7F2FA300003B0F0BDC046B002002064002440C0020020B4020020B8020020BC020020D4020020C8020020800F244017030000000F2440080F2440880F24400B
:401D80004002244068002440014B1878C0B2704767000F4010B500F044F8044A117810230B43DBB2137000F040F810BD97000F40014B18647047C0460000002010B5040054
:401DC00000F02FF8044A1368C0218B43A4011C43146000F02AF810BD00E400E00122014B1A60704700E100E00122014B1A60704780E100E010B50400FFF7F6FF2000FFF72D
:401E0000D7FF0320FFF7DAFFFFF7E8FF10BDC0460230800803D00138FDD1C046C046C0467047EFF3108072B6704780F31088704770B50400FFF7F5FF0500102C05D8104A2F
:401E4000136803218B43136016E0202C07D80C490B6803229343023A13430B600CE0302C07D807490B6803229343013A13430B6002E00020FFF76CFA2800FFF7D6FF70BD42
:401E80003000104010B5AF4B1B68002B00D09847AD4B1B68DB0702D50022AC4B1A60AC4B1B789B0628D5AB4B1B68DB0507D5AA4A1188C0239B000B431380012300E000234F
:401EC000A44A1268D20706D5A34A118890239B000B4313800123002B0FD09D4A1278D20701D5012200E002229B49088802430A800021974A117000E00023954A12789206D2
:401F000000D417E1934A1268D20611D51022934B1A608F4B1B78DB0701D5012300E002238D4A11880B4313801022894B1A7007E1874A1278120720D5864A126892070AD5F4
:401F40000222864B1A60844A118888239B000B431380012311E07E4A1278D20703D525217B4A117009E02421794A11707C4A1268002A02D014397B4A1160754A12785207ED
:401F800000D4AEE0724A1278D20749D5764A1268120727D5754A1268754909681F240C40744909686418141B082C09D8002C16D1714A1168714B0B401360012308340EE03F
:401FC00008240CE06B4A11686D48006841186D480068C0B20870116801311160013C002CF0D119E0604A1268520715D5614A116863480068411863480068C0B20870116872
:40200000013111601168594A1268914203D204215D4A116000E001235C495D4A116060E04C4A1268920726D502224C4B1A6059490B681D321A40096880231B020B4000D09E
:4020400001239B18544A1168CB1A13601268534B1A60414A118884239B000B431380504B1A68802149020A431A6019684D4A0A401A60012335E04C4A1268D2061ED427E07B
:40208000454A1168364A126891421DD2344A1268013A414909688A4204D1402243490A6030490A603C4A11684148006841180978C9B240480160116801311160354A12680F
:4020C0001F210A40082ADBD11021384A116008E0354A1268520604D52F4B1A682F4B1A600123002B2CD0244A1168244B0B4013600023314A13601B4A1360304B1B789B075A
:402100000ED5134B1B78DB0701D5092300E00A23114A11880B43138060220D4B1A700FE0274B1B689B0601D5182200E01022164B1A6005E0064B1B78DB0601D4FFF73CFD71
:4021400010BDC046BC0100208C0E2440880E2440B00200200C0F2440C0020020000F2440BC020020880F2440CC0F2440CC02002008032440D002002060002440FFFEFFFFEB
:40218000C40200204003244068002440ED0F0000C00F244008022440B4020020B802002004022440FFFFFEFF8C0F2440800F2440D402002040022440C80F2440C802002061
:4021C0006400244003460B437FD4002243088B4274D303098B425FD3030A8B4244D3030B8B4228D3030C8B420DD3FF22090212BA030C8B4202D31212090265D0030B8B4236
:4022000019D300E0090AC30B8B4201D3CB03C01A5241830B8B4201D38B03C01A5241430B8B4201D34B03C01A5241030B8B4201D30B03C01A5241C30A8B4201D3CB02C01A02
:402240005241830A8B4201D38B02C01A5241430A8B4201D34B02C01A5241030A8B4201D30B02C01A5241CDD2C3098B4201D3CB01C01A524183098B4201D38B01C01A524168
:4022800043098B4201D34B01C01A524103098B4201D30B01C01A5241C3088B4201D3CB00C01A524183088B4201D38B00C01A524143088B4201D34B00C01A5241411A00D2B9
:4022C00001465241104670475DE0CA0F00D04942031000D34042534000229C4603098B422DD3030A8B4212D3FC22890112BA030A8B420CD3890192118B4208D389019211C0
:402300008B4204D389013AD0921100E08909C3098B4201D3CB01C01A524183098B4201D38B01C01A524143098B4201D34B01C01A524103098B4201D30B01C01A5241C308ED
:402340008B4201D3CB00C01A524183088B4201D38B00C01A5241D9D243088B4201D34B00C01A5241411A00D20146634652415B10104601D34042002B00D54942704763465F
:402380005B1000D3404201B5002000F005F802BD0029F8D016E770477047C046014B18687047C046400100200E4B70B500251E000D4CE41AA410A54204D0AB00F358984733
:4023C0000135F8E700F00EFB084B00251E00084CE41AA410A54204D0AB00F35898470135F8E770BDF0290000F0290000F0290000F8290000002310B59A4203D0CC5CC4541E
:402400000133F9E710BD03008218934202D019700133FAE7704700000000000000300F40000280320F40000200350F40000300400F40000800320F4048270000800080345C
:402440000F40C827000080008272840F8638871F8B058D038F0C950A970499039B04A503A704AC01AF08B001B10FBB02D804D904DC13DF010401053406820C040E2A1002F6
:40248000162517011A801C011D101EA0204022022408254C270128212CA12E402F0430203108342035803622370438403A103C103D864C804E08561057105E806C016D0486
:4024C0006F04741075047601818583109D01B501C0F0C2E0C4F1CAFACCF6CEFCD220D610EE400401090114022D0231023201330134023E043F045401580459045B045C3306
:402500005D105F010108052606020A200C010D280E011030140416A919101B041E0A1F01220524142540274028022D022E082F0634013520370538043B243C103D863E20B3
:402540004509468047404DA04F02570258905A085B0261086204658067028E10900291049281941096409708988499249A819B059D019E06A080A104A202A310A420A62CEC
:40258000A810AA01B010B221B486C0F4C2F4C4F0CAF8CCE0CEF4D0D0D230D60F0001030104020534070808010B0A0C020F30110613281404150617181A02231024012E08FA
:4025C0002F01300632013306340835383701380239083B203F445418580459045B045C115D105F01840C861189028A038C108E0C90099210A010A41CA602A814A901B21F12
:40260000B301B702C053C102C50CC6E0C70BC819C9FFCAFFCBFFCEF0CF44D00CD604D804D904DA04DB04DC31DD01DF01E6C0EA40EB0200140202040607060A400F28108805
:40264000110815041602181019081D281E402204230124042628270928082C802F013602370A3A103D083E503F2A400442104640470148204A025008531059105A8A5E02A9
:40268000610163016640670488088A108C0290029104928293069640972099109A029B049C029D09A080A104A203A311A420A528A628AB04AE02AF16B502B604C0F7C2680F
:4026C000C4AECA94CCC0CEF4D006D208D68FD8396B08DA40B70803205301C010D480AB01AF20EC10EE208C089F10B710E202EE02071008880D100E2089108A108C809C0877
:402700009F10C004C20FE209E604100A120A130104000F4012320F4037330F4011340F404C350F404B360F404F370F4002400F4001410F4004420F4004430F4005460F40A7
:402740000D470F4003600F403F0000130CE0000033800C20012000C0001100061FE020001C11230E020C00130300000804000010004023200800000C10002C0F0F1000E051
:402780000000A80800000110060000000040000000FF07FF4020F0050800000000000210040404041111000140A84020000000000000000000000000000000000000000023
:4027C00000000000000000003C01C20018180000E710180C44000020C00000020018E3000001040008000000FF000001800000011C08E11410000020380600181F20C00141
:4028000000802000000000116304050001C000E022FFFFFF62A0F0410C00000000000000040404001101000100000000000040020010301000101012000000000000000099
:40284000000000000000000000000000080088000000000001000000080088000000000002000000080088000000000003000000080088000000000004000000080088007E
:402880000000000005000000080088000000000006000000080088000000000007000000080088000000000000000000A8008000FFFFFFFF0000000001000000A800800009
:4028C000FFFFFFFF0000000002000000A8008000FFFFFFFF0000000003000000000000000000000000000000040000000000000000000000000000000500000000000000AA
:402900000000000000000000060000000000000000000000000000000700000000000000000000000000000008000000000000000000000000000000090000000000000079
:4029400000000000000000000A0000000000000000000000000000000B0000000000000000000000000000000C0000000000000000000000000000000D0000000000000029
:4029800000000000000000000E0000000000000000000000000000000F000000000000000000000000000000030405060708090A0B0C0E0F101112131415161718191B1C8E
:4029C0001D1E1F2021222325262728292A2B2E2F3031323334350000000000000000000006074300F8B5C046F8BC08BC9E467047E1020000D90A0000F8B5C046F8BC08BC4C
:402A00009E467047B9020000182A0000C0000020880000009001000000000000010000000000C05D80BB000030000000006CDC02F000000004040400000000000000000036
:402A4000000000000000000000000000000000000000000000000000E22900000000000000000000000000000000000000000000000000000000000000000000000000004B
:402A8000000000000000000000000000000000000000000000000000E000002000000000000000000000000000000000000000000000000000000000000000000000000016
:402AC00000000000000000000000000000000000000000000000000000000000000000000000000000000000000000000000000000000000000000000000000000000000D6
:402B00000000000000000000000000000000000000000000000000000000000000000000000000000000000000000000000000000000000000000000000000000000000095
:402B40000000000000000000000000000000000000000000000000000000000000000000000000000000000000000000000000000000000000000000000000000000000055
:402B80000000000000000000000000000000000000000000000000000000000000000000000000000000000000000000000000000000000000000000000000000000000015
:020000040001F9
:0200000490303A
:02000000EF60AF
:0200000490402A
:4000000000000000000000000000000000000000000000000000000000000000000000000000000000000000000000000000000000000000000000000000000000000000C0
:0200000490501A
:0C0000000002100B11A0000110180100FC
:0200000490600A
:0100000001FE
:00000001FF