:400000000080002011000000591000005910000010B501F029F8C04610B51222234B1A60302001F061FD224A224B1A600022224B1A60224B22491960224823490860234989
:4000400019608020400022490860224919609C2080012149086021491960C02040012049086020491960E02040011F4908601F491960822109061E4B19601E491E4B1960DB
:40008000C0231E490B6041201D4908601D490B601D490B6044211D4B196002391C4B196001311C4B19601C4B1A6010BD300010400600008004010B400003014000000140BE
:4000C00040FF0080007F1A0600050140C0FF00800403014041FF00801003014044FF00800803014042FF00800C03014043FF008008010B404902060000010B405801014054
:4001000050010140300101402C01014028010140100101400C0101400C020B4010B572B60122404B1A7000240FE03F486200131959000B00411889881A5AC318588800049C
:40014000104300F051FF0134E4B2012CEDD936490C313648143000F02DFFA0221201344B1A800122334B1A70334A344B1A609922334B1A60EE221202324B1A60EE22324BAA
:400180001A6099231B04314A1360314A1360314A1360314A1360314A1360314A1360314A314B1A60314A324B1A600723314A1360314A136031490B783C22934314221343B0
:4001C000DBB20B702E4A117816230B43DBB2137002222C4B1A602C4A2C4B1A60902292002B4B1A60C2232B4A13602B492B4A11602B4A1360F2222B4B1A602B4A2B4B1A6037
:400200000F222B4B1A602B4A2B4B1A6003222B4B1A6021322A4B1A60FFF7FEFE00F0FAFE10BDC0461C700F4024580000A45A000000600F4002600F40AA000008000002408B
:4002400000020240000302400005024000500F4010500F4020500F4040500F4050500F4070500F40F0000E002001204090000D00600120402000104000800F4001700F40E8
:4002800000700F40000004407102040008000440080104400002044031001800080204401802044000030440902D4900080304400004044092641B00080404400005044062
:4002C0000805044010B5064C2378002B07D1054B002B02D0044800E000BF0123237010BD4001002000000000D4570000084B10B5002B03D00749084800E000BF07480368A1
:40030000002B00D110BD064B002BFBD09847F9E70000000044010020D4570000C00000200000000070B504001E00012000F032F820800823A370E51CF621280000F038F8BE
:400340002418E670421C0499280000F043F870BD10B503300822042100F048F810BDC04610B5FFF7F5FF10BD10B5FFF7F9FF10BD8079704770B504001D00002000F00AF822
:4003800020800423A370E01C092100F011F82418E57070BD80028023DB0018408901403B194001433F200240114308007047C04610B50400017000F0B7F8607000F0AEF893
:4003C000A070032010BDC0464079704700797047C078704710B50B0E8354531C0C14C454931C0C12C4540332815410BD70B50600002A09DD002909DB521A0132042A00DD5E
:400400000422002A05DC03E0042202E0042200E000220024002007E06318F55C531E1B1BDB009D4028430134A242F5DC70BDC046407940B27047C046407970470079704792
:4004400000797047F8B504000D0001F091F80F2020401A4E30603F212940194B1960194C00252570800108434005E060164FA760164B1B686360200000F044FF012323705A
:40048000E560A760124B1B686360200000F03AFF022323703368DB06FC22D2041343E360A7600C4B1B686360200000F02BFF00F025FE09491D2001F03BFAF8BD980100202F
:4004C000AC0100209C010020FFFF1F80A0002F40C0002F40E0002F40CD05000010B586B0002815D0038802AC02930023237163718278A271E3716B460593C11C08226846B6
:4005000005F01DF9200001F049F8002802D102E0022000E0012006B010BDC046014B18787047C046AC010020014B18787047C04698010020104B1878C0B2002819D15A78DC
:40054000D2B29B78DBB29A4205D20B4A93785078181AC0B20EE0084B5A78D2B29B78DBB29A4207D9044A93785078181A1030C0B200E010207047C0465C010020124A93782F
:400580000133DBB293709378DBB20F2B02D900220D4B9A700C4B1B78002B0BD00A4A53780133DBB253705378DBB20F2B02D90022054B5A70044A537891785B1A59424B414C
:4005C000DBB213707047C0465C01002070B580225201444B1A60444B1B68DA0706D49A0706D45A0706D41B0706D406E0002404E0012402E0022400E003243C4B9A78D2B2D0
:4006000064013B4B9C4664442368DB0202D46168490D02E06168C90889B2364B500082189000C152314A9178C9B22068000C0F2528404D0069188D005D19A8709178C9B287
:40064000A5682D0E4800411888001818C5709178C9B2A068000CC0B24D0069188D005D1928719178C9B2A068000AC0B24D0069188D005D1968719178C9B2A568EDB2480006
:4006800041188800181885719178C9B2E5682D0E4800411888001818C5719178C9B2E068000CC0B24D0069188D005D1928729178C9B2E068000AC0B24D0069188D005D19CA
:4006C00068729278D2B2E068C0B251008A1891005B189872FFF752FF226801231343236070BDC04600002F4008002F405C010020A0002F40B001002010B5FFF71BFF002896
:400700000BD0064A53780133DBB253705378DBB20F2B02D90022014B5A7010BD5C01002010B582B0041E17D0FFF704FF6B46D87107331B78002B11D00A4B5B78DBB25A0075
:40074000D3189900084B59180C22200004F0F7FFFFF7D2FF002002E0022000E0022002B010BDC0465C010020B0010020272070470020704710B5041C03F0AAF9013064282C
:400780000CDC0F49201C02F009FF0E4902F0ECFD0D4902F073FC03F09BF90FE00849201C02F0FCFE074902F0DFFD074902F066FC8B21C90503F006F803F08AF9C0B210BD09
:4007C00000F07F450000C84200001C4210B5041C03F07EF9013064280CDC0E49201C02F0DDFE0D4902F0C0FD0C4902F047FC03F06FF90BE00749201C02F0D0FE064902F027
:40080000B3FD064902F03AFC03F062F90012C0B210BDC04600F07F450000C84200001C4270B505000C0001F0ABFD002302222900200001F0C5FD00280DD101F089FD8307B7
:40084000FBD501F085FD830507D401F07BFD022805D0FF2004E0FF2002E0FF2000E0002070BDC04610B584B001F08EFB01F080FB03A800240470902343704021FFF7D0FF66
:400880000222084902A804F05AFF402102A8FFF7C7FF01A80470802343704021FFF7C0FF04B010BDD857000000B583B001AB1870597040211800FFF7B3FF03B000BDC04650
:4008C00070B50D1C8000C4B2A61DF6B2FFF74EFF01003000FFF7E8FFFFF74AFF0100E31DD8B2FFF7E1FF281CFFF744FF010023000833D8B2FFF7D8FF281CFFF767FF010084
:400900000934E0B2FFF7D0FF70BDC04610B5022001F010FF10BDC04610B501F0CDFD03230340054C012202212000FFF723FD2000FFF7D4FD10BDC0467402002010B502F079
:4009400005F80C4A13780133137053780133DBB25370022B05D9002001F0BAF9002001F0ABF9044B1B78022B02D9002001F0BCF910BDC04660010020F0B59DB062B601F010
:40098000A1FDD44801F0D0FDD34801F0D1FFD34802F006F801210720FFF754FD01F08AFAFFF760FF01F036FE01F0B4FE0821022001F06CFE01F0D8FE00F0F0F900F0D8FAAE
:4009C0000024C74B1C6001F03DFEC64B1860C64B1860C64B1C70C64B1C70C64B1C70C64B1C70C64B1C60002001F072F901F02AFE01F028FE0400C24801F02CFF0A2204A957
:400A0000200004F098FE01F025FFBE4C200001F021FF002000F08CF9060001F05BFABA4801F018FF0A220CA9300004F084FE01F011FF200001F00EFFB44801F00BFFAA4B3F
:400A400018680A2214A904F076FE01F003FFB04801F000FF642000F0A3FF01F0F3FDA14B1860A54B1B78002B18D0A44B1B68002B03DD9D4A1268904205DA002B0EDA9A4B52
:400A80001B6898420ADC0021002000F033FA0022994B1A70954B1A78954B1A709D48FFF73FFE0390039B002BA0D100229A4B1A709848FFF78DFC0E2800D1DEE005DC0C287A
:400AC0000AD00D2800D1AFE0F4E0F42800D199E0F52800D1DDE0EDE0904801F0BBFE8C4801F0B8FE8B48FFF7A9FC43B27F4A1370804A1278002A05D100217D4A117001313A
:400B00007C4A11707A4A0027D757BB4200D1D1E0794A1278002A00D0CCE0FEB2821B54B28019013046B2002C30DD052C18DD0C20C01A04F07DFC0022794B03F075FE009020
:400B40000191684B186804F073FC009A019B04F0E5F804F037FC644B186032256D4215E0200004F065FC00226D4B03F05DFE009001915C4B186804F05BFC009A019B03F0A3
:400B800011F804F01FFC584B18603225002C2FDA631D16DAF01B04F04BFC0022604B03F043FE04000D004F4B186804F041FC22002B0002F0F7FF04F005FC4B4B18603225D4
:400BC00016E0200004F034FC0022554B03F02CFE04000D00434B186804F02AFC22002B0002F0E0FF04F0EEFB3F4B186032256D420122414B1A702900002000F07BF93F4B30
:400C00001D6057E001F0E5FE06004248FFF7ACFB0400300001F0E1FE002C02D000F0BEF948E001F053FE45E0012001F05DF8394C2000FFF705FC06002000FFF7FDFB0400AC
:400C40000100300000F01EF9200004F0F1FB0022344B03F0D3FA0022334B03F0E5FD0022314B02F09FFF04F079FC011C0920FFF727FE012001F038F81CE0264E3000FFF796
:400C8000DFFB04003000FFF7D3FBC1B2200000F031F9204C2000FFF76BFB06002000FFF795FB07002000FFF78FFB02003900300000F0AAF80A4B1B68002B00D196E61B4AC8
:400CC0001268934200D991E60022184B1A6000F0C7F88BE6190900000D0900003D090000A00200209802002094020020900200207002002071020020800200209C0200204F
:400D0000DC570000EC570000F0570000045800001458000084020020600100201858000000001A400080664000001440A402002010B5040001F0CEF8022001F0DFF801F0A2
:400D4000D3F8200001F0EEF880B210BDF8B5040017001D0001F014FB14220121200001F025FA060000240FE06B1E9C4205DA39191422002001F0A8FA04E03919142201201E
:400D800001F0A2FA0134E4B2AC4201D2002EEBD0142001F06DFAC0B2F8BDC04600B583B001F0F2F801F0E4F80222094901A804F0C6FC01F0E5FA01236A46073218211820C5
:400DC000FFF7C4FF702101A8FFF72AFD03B000BD2058000030B583B001F0D2FA6B46DD1D00232A0073217320FFF7B0FF6B469C1D0023220071217120FFF7A8FF2878000251
:400E00002378184303B030BD70B586B004000D00160017280CD0182802D016280BD103E00020FFF785FF07E00120FFF781FF03E0FFF7D0FF00E000200090230032002900A2
:400E400003A8FFF76FFA03A8FFF748FB002805D0002000F03DFF012000F03AFF06B070BD10B5012207211820FFF7CEFF012207211620FFF7C9FF012207211720FFF7C4FF89
:400E800010BDC04670B504000D00B32900DDB325002D00DC0125042C26D811D0052C04D0012C05D1012308340CE00123072409E0002000F00DFF012000F00AFF002301E094
:400EC00001230524002B0FD0280002F023FE074902F04AFA064902F061FB054902F0CEF8011C2000FFF7ECFC70BDC046000034430000A04070B504000E00022811D0032825
:400F000004D0002805D1012509340CE001250F2409E0002000F0DCFE012000F0D9FE002501E001250824300002F0F4FD0B4902F0A5F80B4902F018FA0A4902F02FFB04F073
:400F4000B9FA094A094B02F02DFE04F007FB002D03D0011C2000FFF7B3FC70BD0000C842000048430000A040666666666666144010B500210020FFF7BDFF00210220FFF7D7
:400F8000B9FF00210420FFF7B5FF10BD024A1368013313607047C046A402002010B50022024B1A60024801F083FC10BDA40200208D0F0000F0B50025002711E0BB00C6587A
:400FC000F3B2FF22964308E06A008A181478A419527822700135013BDBB2002BF4D101370F2FEBD9F0BDC04610B50A00002104F0AFFB10BD064B1B68002803D080221206F9
:40100000134301E05B005B08014A13607047C04680033A4010B50323094A1360094A136080221206084B1A60C023084A1360084A13600022074B1A600120FFF7DBFF10BD2C
:40104000300030403000314000003A4000033A4040033A40000E3F4010B504F029FB03680C2B00D1FEE7FEE770B50F4E0F4D13E029686B68AC68002202E001C901C30432C3
:40108000A242FAD1E868002202E0002102C304328242FAD11035013E002EE9D104F00EFBFFF76AFCFEE7C04601000000205E000010B50E4A136801218B43136000230AE04B
:4010C000032B03D89A000A49505800E009489900094A885001332F2BF2D9FFF71FF8034A116801230B43136010BDC04600001040000000005910000000000020054B1A68CE
:4011000001210A431A601B68194201D1012000E00020704704002F4010B50E4A0E4B1A60FFF7ECFF1D2000F0EDFB0C4A116801230B431360F0231B0100E0013B002B03D0E8
:40114000064A1268D207F8D5002B01D1012000E0002010BD0110000000002F4010002F4003B2002B0DDB094A1168094B0B400004034313601268074B1340984203D0012038
:4011800002E0022000E000207047C04614002F40FFFF00800000FF7F002809D10C4B19680C4A0A401A601B68DB040CD501300DE0074B1A68802149010A431A601B680B4244
:4011C00003D1012002E0002000E000207047C04614002F40FFEFFFFF70B5841EE4B20D2C35D88C1EE4B2052C03D9002B31D1012931D1032A31D8904231D3914231D31C4D37
:401200002C68240AE4B20F26B44320432E68194C3440000204432C602C686040F0242401204220D1002B00D002234901C9B29200D2B2114319430E4A1368EE2083430B4323
:4012400013601368034099420FD0ED380EE002200CE002200AE0022008E0022006E0022004E0022002E0012000E0002070BDC04614002F40FFF0FFFF002809D10B4B1A689C
:4012800010218A431A601B6819420BD001300CE0064B1A6810210A431A601B68194203D1012002E0002000E00020704714002F40002809D10B4B1A6801218A431A601B6840
:4012C00019420BD001300CE0064B1A6801210A431A601B68194203D1012002E0002000E00020704714002F40054B18601B681B041B0C984201D0012000E000207047C046B6
:4013000004002F4010B503785B01204A944663441F4A41680A431A6003785B01634419681C4A11401C4A44682240914224D182681A6103785B0163441A6981688A421DD1DF
:40134000C2685A6103785B0163445A69C1688A4216D1012252429A6103785B0163449A6901320FD10022DA6103785B016344DB69002B09D0012008E0012006E0012004E0ED
:40138000012002E0012000E0002010BDA0002F40800080007F007F007FFF7FFF10B503781B01104A944663440F4A41680A431A6003781B01634419680C4A11400C4A4468CB
:4013C000224091420AD182685A6003781B0163445A6883689A4203D0012002E0012000E0002010BD20002F4008008000F7007F00F7FF7FFF70B500240AE063001B1998004B
:40140000104B1818FFF7CAFF002805D10134E4B2072CF2D9002500E00125002D0BD00FE0230108486030C018FFF76CFF002806D10134E4B200E000240F2CF1D900E0012563
:40144000280070BDF85A0000002809D10C4B19680C4A0A401A601B689B040CD501300DE0074B1A68802189010A431A601B680B4203D1012002E0002000E000207047C04666
:4014800014002F40FFDFFFFF10B580221206344B1A60344A136801218B431360C8231B0200E0013B002B03D02E4A1268D207F8D4002B4AD01D2000F02FFA2B491D2000F004
:4014C00037FA03211D2000F045FA1320FFF748FE00281AD1FFF760FE002818D1FFF7B4FF002816D10023012201210C30FFF774FE002810D10130FFF7BFFE00280DD1FFF797
:40150000D7FE00280BD001230AE0012308E0012306E0012304E0012302E0012300E00023002B14D1FFF766FF002812D10F48FFF7DBFE00280FD10B4B1A6807218A431A608F
:401540001B68194209D0013008E0012006E0012004E0012002E0012000E0002010BDC04600042F4010002F40991500000110000010B5084B1B78002B02D1FFF785FF00E0E4
:401580000020002804D10122024B1A70FFF7C4FD10BDC046620100207047C046F8B54F464646C0B4040001200023984691E04C4B1B6832041A427AD12379002B01D10027BA
:4015C00001E08027BF036379002B07D12B01454A94466344226852055A6009E080235B031F432B013F4A944663442268D2005A60A379072B03D81B041F43B94603E0802324
:401600001B031F43B946E379002B03D004234A461A43914600232AE0032B13D92801324A94466044026894465907CA1AD1003831FF228A4067469743E268D25C8A403A4389
:40164000026012E02801274A94466044826894465907CA1AD1001831FF228A4067469743E268D25C8A403A4382600133DBB2A279934201D2072BCFD91D2000F04DF92B01CC
:40168000184A94466344194A4F4617431F60227A002A04D0196803220A431A6003E0196801220A431A601D2000F02CF900207600F6B2002807D00135EDB201E00126002590
:4016C000072D00D873E7002806D043460133DBB298464346022BF1D90CBC90469946F8BD08002F4020002F402C002F4008008000074B1B78272B05D8064B1B78DBB2064AAE
:40170000136004E0054B1B78DBB2034A1360704702F3FF0F42F3FF0F20FF0B40C1F1FF0F00230AE0204A12683F210A401F49C95C8A4201D1033303E001332D2BF2D903239F
:401740001B4A12781B2A16D8302B05D1194B1B78DBB2194A136006E0182B04D1174B1B78DBB2154A136016490B681F229343173A13430B6016E0302B05D1124B1B78DBB2CB
:401780000D4A136006E0182B04D10F4B1B78DBB2094A13600A4A13681F218B430B4909780B4313607047C0462CFF0B40585C000002F3FF0F3FF3FF0F28FF0B403EF3FF0FD3
:4017C00034FF0B40C3F1FF0FC2F1FF0FC0F1FF0F00230AE00D4A12683F210A400C49C95C8A4201D1033303E001332D2BF2D9032308490868084A02400A60084A9446634461
:401800001B78DBB2064A13607047C0462CFF0B40585C000000002240FFFFFFBF4DF3FF0F28FF0B40034B18688023DB05184000D0012070470000224010B50B4A1368012196
:401840008B431360094B1A68094B1A60094A12685A60FFF765FFFFF74BFF074A116802230B43136010BDC04650000C4034FF0B406401002020FF0B4024002C4030B500233E
:401880000AE0134A12683F210A401249C95C8A4201D1033303E001332D2BF2D903230E490A68022082430A600C4C21681F2291430B4805682A400A4322604168094A116093
:4018C000094A944663441B78DBB2084A136030BD2CFF0B40585C000024002C4034FF0B406401002020FF0B404DF3FF0F28FF0B40034B1B680220184000D001207047C04662
:4019000024002C401F2318401E3B8340014A13607047C04600E100E01F2318401E3B8340014A13607047C04680E100E001BE704770B504000D001F2802D90020FFF7F6FFDA
:401940001034A40080239B059C4664442068256070BDC04670B504000E00032902D90020FFF7E4FF1F2C02D90020FFF7DFFF03252540ED00063501F02CF8A408A400074BB5
:401980009C46644421680323AB4099430B003100A9401943216001F020F870BD00E400E010B5040006E0084B586801F009F8074B9C46644480231B029C42F4D8024B9868E4
:4019C000604300F0FDFF10BDC40000200080FFFF70B582B000F066F9002862D000F0F9FF0500314A116801230B43136000230AE02E4A12683F210A402D49C95C8A4201D181
:401A0000033303E001332D2BF2D903230021294A1160294A1268D20606D1274802681F318A4313390A430260244C2168244A1140244A5A438023DB019C466244D20B013A9C
:401A40005205520D0B001343A0225203134323601D4B1B680193302000F0C2FF1B4A13688021C9050B4313602668194B1E40002407E00120FFF794FF1034A30533430F4A0F
:401A80001360EE2CF5D90120FFF78AFFFF239B051E430A4B1E60019A0B4B1A60280000F09CFF02B070BDC04650000C402CFF0B40585C000028FF0B4034FF0B400800224012
:401AC00000F800C040420F003000104000002240FFFF3FC010B5034B1B7B584300F070FF10BDC046C4000020F0B55F4656464D464446F0B483B0040000F06BFF0190FFF7A5
:401B000091FE002804D0FFF763FE01239A4601E000239A46FFF7ECFE002808D0182C01D0302C07D1FFF7AAFE01239B4604E000239B4601E000239B46E61E2D2E74D8464B06
:401B40001B78DBB29C4208D8444B1B78DBB29946434B1B78DBB2984631E0424B1B78DBB29C4208D8404B1B78DBB299463F4B1B78DBB2984623E03E4B1B78DBB29C4208D875
:401B80003C4B1B78DBB299463B4B1B78DBB2984615E03A4B1B78DBB29C4208D8384B1B78DBB29946374B1B78DBB2984607E0364B1B78DBB29946354B1B78DBB29846344B5D
:401BC0009F5D2F2F09D92A2C07D91922314B1A60052000F0F5FE192503E02E4B1D683F231D40BD4206D92A4B9A5D2A4B1A60052000F0E6FE254B9C4664442378DBB2264A98
:401C00001360264B4A461A60254B42461A600520FFF760FFBD420AD21D4B9A5D1D4B1A60052000F0CDFE02E00020FFF77FFE5346012B01D1FFF7CCFE5B46012B01D1FFF76D
:401C4000FBFD019800F0C9FE03B03CBC90469946A246AB46F0BDC04640F3FF0F41F3FF0F42F3FF0F43F3FF0F44F3FF0F45F3FF0F46F3FF0F47F3FF0F48F3FF0F49F3FF0F79
:401C80004AF3FF0F4BF3FF0F4CF3FF0F4DF3FF0F585C00002CFF0B4028FF0B401CFF0B4020FF0B40034B1B68002B01DA012000E0002070470000224004490A68D2B22023EF
:401CC0009A43400118401043086070470004044004490A68D2B240239A43800118401043086070470004044004490A68D2B210239A43000118401043086070470004044038
:401D000010B503211120FFF725FE42491120FFF70FFE0322404B1A60404B1B68002B01DA3F4900E03F49404A13680B4313603F4A3F4B1A603F4A404B1A6000233F4A136083
:401D40003F4A40490A6040490A60404A116880204002014311603E490A6802430A603D4A13603D4A136001223C4B1A603C4A11683C4B0B40802189050B431360002445E090
:401D80003949A2005058DC239B0103400919097A0B4336498C4662441360C30707D52D490A680123A3401B041B0C13430B60A3002D4A9B589B0707D527490A680123A3400C
:401DC0001B041B0C13430B60A300274A9B589A0502D58020400001E080204001DB0504D463000021224A995203E063000021204A9952204B5843204B9C4660441F4901F01E
:401E000051F800B2A2001E4BD0500134012CB7D910BDC046511F000020003A4080033A40702010137020001300003A408C00008004003A400000FF0718003A401C003A4028
:401E40000200020010003A4014003A4000033A4040033A4028023A4038023A4018023A4030003A40FEFFFFDF885C000080003A40B002002010270000E40C0000C8190000E3
:401E8000A802002010B5094B1B68002B0CDB084B1B68002BFBDB054A1368802109060B4313600A20FFF716FE10BDC04600003A4008023A4010B5064B1B78002B04D1FFF7F4
:401EC0001FFF0122024B1A70FFF7DCFF10BDC04684010020034A1368802149020B4313607047C04604003A40024A1168024B0B401360704704003A40FFFFFEFF0200830745
:401F00000CD0074B1B680120184001D19307F8D4002804D00122024B1A6000E00020704710023A4010B50400012802D90020FFF7FDFC012C07D8A400044B9C466444206829
:401F40000004000C00E0002000B210BD80013A40014B1A681A60704710023A4010B50B20FFF7D0FC10BDC04610B500F01DF810BD10B5044A1368802109060B431360FFF73B
:401F8000EDFF10BD0000264010B5064B1B78002B04D1FFF7E9FF0122024B1A70FFF7E8FF10BDC0468801002010B580221201194B1A60194A194B1A60194B1A4A1360002430
:401FC000194A1460194A1460194A1360194B1C600B20FFF7A1FC03210B20FFF7BBFC16490B20FFF7A5FC154B1C60154B1C60154B1C60154B1C60154B1C60154B1C60102248
:40200000144B1A70144B1C80144B1C60144B1C6010BDC046000026407708008060002640070100800003264004032640100326400002264004022640352A0000C80E2640C2
:40204000880E2640480F2640080F2640C80F2640880F2640B4020020C4020020D4020020BC02002010B50E4A13685B005B08136000230C490B600C490B600C4804680C49DF
:40208000214001600B490B600B490B6010210B4B19701368802109060B43136010BDC04600002640680026406C00264060002640FF5CFFFF880F2640C80F2640B4020020DC
:4020C00010B504000368002B09D00120FFF702FD2368013B2360002B03D0002003E0002001E08020000610BD10B5002839DBC023034208D00022284B1A601032274B1A7085
:40210000002310243DE0C3070FD5244B1B781B072BD5234B1B685B0001D5002300E0012310211E4A117001242BE0C30520D4830722D4C30605D51022184B1A700023002481
:402140001FE0164B1B781B0719D5144B1B78DB0701D5252200E02422104B1A70002300240FE00123802424060BE00123012408E001238024640004E00023022401E00023BF
:402180000024012B02D1FFF76DFF02E0054A064B1A60200010BDC04668002640B40200206000264017030000000F264070B582B004000D001600244B1B78102B40D10B20BB
:4021C000FFF7AAFB214B1B68DB0734D4FA239B005E43019600221E4B1A601E4A1E4B1A601E4A1F4B1A606400FF231C40002D03D12422154B1A7004E02522134B1A70012395
:402200001C43184B1C600222174B1A60124B1C680823FF3320001840144B1B68C02423401843040001A8FFF74BFF2043EED0FFF75BFF040000E008240B20FFF763FB00E059
:402240000424200002B070BDB402002064002640080F264017030000000F2640ED0F0000C00F26404002264068002640400F264010B582B0104B1B789B061AD5FA239B0002
:40228000584301900D4B1B689B0601D5182200E010220B4B1A600B4B18681223FF331840040001A8FFF70CFF2043F4D0FFF71CFF00E0042002B010BDB402002064002640E6
:4022C00068002640000F2640F0B583B004000D00164B1B789B0626D5FA239B005A430192134B18680223FF3318400700114B1B6804261E4001A8FFF7E3FE384333000343CB
:40230000EED0002E05D00C4B1B682B700B4A094B1A60FFF7E9FE002806D1002C04D10422074B1A6000E0042003B0F0BDB4020020000F2640C00F264040032640ED0F0000EC
:4023400068002640014B18687047C046BC02002010B50B20FFF7E0FA074B1C88A2B21400064B1B789B0602D504231A4394B20B20FFF7C8FA200010BDC4020020B402002058
:4023800010B50B20FFF7C8FA044B1C88A4B200221A800B20FFF7B6FA200010BDC4020020054B1B682022134000D0082301221343024A13607047C0466400264068002640DC
:4023C000F0B583B001900C0017001D00002917D02A4B1B78102B08D10B20FFF79DFA284B1B68DB070ED508260FE0244B1B78602B0AD1244A138808218B431380002604E073
:40240000042602E0002600E00426002E2FD128221A4B1A7000231C4A13601C4A13601C4B1F601C4B1C60EAB21B4B1A70019B5C00FF231C40134A138802218B43138040237A
:40244000164A13601649174A11601421FF31164A1160164A1360EB0704D5FFF7A1FF144B1C6004E0124B1C600222124B1A600B20FFF748FA300003B0F0BDC046B40200208C
:4024800064002640C4020020B8020020BC020020C0020020D8020020CC020020800F264017030000000F2640080F2640880F26404002264068002640014B1878C0B2704771
:4024C00064000F4010B500F084FA044A117810230B43DBB2137000F080FA10BD94000F40014B98647047C0460000002010B5040000F06FFA044A1168044B0B40A4051C43C4
:40250000146000F06AFA10BD00E400E0FFFF3FFF0422014B1A60704700E100E00422014B1A60704780E100E010B50400FFF7F6FF2000FFF7D5FF0320FFF7D8FFFFF7E8FF53
:4025400010BDC0460004000C014B18607047C0460801204010B5040000F03BFA054B1968054A0A401A601A6814431C6000F035FA10BDC04600012040FFFFFCFF0004000C0B
:40258000014B18607047C0461401204070B504000D0000F01EFAAC40024B1C6000F01DFA70BDC0460800204010B500F012FA064A116801230B43136000F00FFA08210120DE
:4025C000FFF7E4FF10BDC04600002040014B18607047C0463801204010B5C82292040B4B1A60C32292000A4B1A600220FFF7EEFF80204002FFF7AEFF802424022000FFF7F0
:40260000BDFF2000FFF79EFF10BDC046000120402401204010B5064B1B78002B04D1FFF7DBFF0122024B1A70FFF7BEFF10BDC046900100200004000C014B18607047C04637
:4026400048012040024B18680004000C7047C0464801204010B5040000F0BBF9054B1968054A0A401A601A6814431C6000F0B5F910BDC04640012040FFFFFCFF0004000CAD
:40268000014B18607047C0465401204070B504000D0000F09EF9AC40024B1C6000F09DF970BDC0460800204010B500F092F9064A116802230B43136000F08FF9082102209F
:4026C000FFF7E4FF10BDC04600002040014B18607047C0467801204010B5C82292040B4B1A60C32292000A4B1A600220FFF7EEFF80204002FFF7AEFF802424022000FFF7AF
:40270000BDFF2000FFF796FF10BDC046400120406401204010B5064B1B78002B04D1FFF7DBFF0122024B1A70FFF7BEFF10BDC04691010020014B18607047C04670012040FC
:4027400010B500F075F810BD10B500F01DF810BD10B5044A1368802109060B431360FFF7EFFF10BD0000254010B5064B1B78002B04D1FFF7E9FF0122024B1A70FFF7E8FF60
:4027800010BDC04692010020154A164B1A600023154A13601549164A1160164A16490A6007201649086016490B6006381549086015490A60154A13600421154A1160154A62
:4027C0001360154A1360154A1360154A1360154A1360154A13601268144B1A807047C0460B000002000025404000254001000A0048002540070000800003254004032540F2
:402800001003254044002540000225400402254050002540880E2540C80E2540480F2540080F2540C80F2540880F25409401002005490B68F0229343603A13430B60034B43
:402840001A88034B1A6070470002024094010020880F254070B50500002402E000F08AFA0134285D0028F9D170BDC046014B18647047C0460000002010B5040000F0A9F8C0
:40288000044A1368C0218B43A4011C43146000F0A4F810BD00E400E00122014B1A60704700E100E00122014B1A60704780E100E010B50400FFF7F6FF2000FFF7D7FF032006
:4028C000FFF7DAFFFFF7E8FF10BDC04610B5FFF7E9FF0248FFF7CAFF10BDC046591000009423014AD05070470000002010B5040000F06FF8044A1168044B0B40A4031C43F1
:40290000146000F06AF810BD14E400E0FF3FFFFF80229203014B1A607047C04600E100E080229203014B1A607047C04680E100E010B50400FFF7F4FF2000FFF7D1FF0320BF
:40294000FFF7D4FFFFF7E4FF10BDC046014B1878C0B2704765000F40014B58647047C0460000002010B5040000F033F8044A1168044B0B40A4031C43146000F02EF810BDA2
:4029800000E400E0FF3FFFFF0222014B1A60704700E100E00222014B1A60704780E100E010B50400FFF7F6FF2000FFF7D5FF0320FFF7D8FFFFF7E8FF10BDC0460000000095
:4029C0000230800803D00138FDD1C046C046C0467047EFF3108072B6704780F31088704770B50400FFF7F5FF0500102C05D8104A136803218B43136016E0202C07D80C4986
:402A00000B6803229343023A13430B600CE0302C07D807490B6803229343013A13430B6002E00020FEF782FF2800FFF7D6FF70BD3000104010B5AF4B1B68002B00D0984716
:402A4000AD4B1B68DB0702D50022AC4B1A60AC4B1B789B0628D5AB4B1B68DB0507D5AA4A1188C0239B000B431380012300E00023A44A1268D20706D5A34A118890239B002F
:402A80000B4313800123002B0FD09D4A1278D20701D5012200E002229B49088802430A800021974A117000E00023954A1278920600D417E1934A1268D20611D51022934B05
:402AC0001A608F4B1B78DB0701D5012300E002238D4A11880B4313801022894B1A7007E1874A1278120720D5864A126892070AD50222864B1A60844A118888239B000B43B0
:402B00001380012311E07E4A1278D20703D525217B4A117009E02421794A11707C4A1268002A02D014397B4A1160754A1278520700D4AEE0724A1278D20749D5764A1268B2
:402B4000120727D5754A1268754909681F240C40744909686418141B102C09D8002C16D1714A1168714B0B401360012310340EE010240CE06B4A11686D48006841186D48C3
:402B80000068C0B20870116801311160013C002CF0D119E0604A1268520715D5614A116863480068411863480068C0B208701168013111601168594A1268914203D2042111
:402BC0005D4A116000E001235C495D4A116060E04C4A1268920726D502224C4B1A6059490B681D321A40096880231B020B4000D001239B18544A1168CB1A13601268534B7B
:402C00001A60414A118884239B000B431380504B1A68802149020A431A6019684D4A0A401A60012335E04C4A1268D2061ED427E0454A1168364A126891421DD2344A126851
:402C4000013A414909688A4204D1402243490A6030490A603C4A11684148006841180978C9B240480160116801311160354A12681F210A40102ADBD11021384A116008E083
:402C8000354A1268520604D52F4B1A682F4B1A600123002B2CD0244A1168244B0B4013600023314A13601B4A1360304B1B789B070ED5134B1B78DB0701D5092300E00A233D
:402CC000114A11880B43138060220D4B1A700FE0274B1B689B0601D5182200E01022164B1A6005E0064B1B78DB0601D4FFF7BAF910BDC0468C0100208C0E2640880E264075
:402D0000B40200200C0F2640C4020020000F2640C0020020880F2640CC0F2640D002002008032640D402002060002640FFFEFFFFC80200204003264068002640ED0F00004A
:402D4000C00F264008022640B8020020BC02002004022640FFFFFEFF8C0F2640800F2640D802002040022640C80F2640CC02002064002640044B1B681F221340082BF9D0A0
:402D8000024B18607047C0460802254040022540002243088B4274D303098B425FD3030A8B4244D3030B8B4228D3030C8B420DD3FF22090212BA030C8B4202D31212090294
:402DC00065D0030B8B4219D300E0090AC30B8B4201D3CB03C01A5241830B8B4201D38B03C01A5241430B8B4201D34B03C01A5241030B8B4201D30B03C01A5241C30A8B42A2
:402E000001D3CB02C01A5241830A8B4201D38B02C01A5241430A8B4201D34B02C01A5241030A8B4201D30B02C01A5241CDD2C3098B4201D3CB01C01A524183098B4201D31A
:402E40008B01C01A524143098B4201D34B01C01A524103098B4201D30B01C01A5241C3088B4201D3CB00C01A524183088B4201D38B00C01A524143088B4201D34B00C01AB4
:402E80005241411A00D20146524110467047FFE701B5002000F0F0F802BDC0460029F7D076E7704703460B437FD4002243088B4274D303098B425FD3030A8B4244D3030B99
:402EC0008B4228D3030C8B420DD3FF22090212BA030C8B4202D31212090265D0030B8B4219D300E0090AC30B8B4201D3CB03C01A5241830B8B4201D38B03C01A5241430B65
:402F00008B4201D34B03C01A5241030B8B4201D30B03C01A5241C30A8B4201D3CB02C01A5241830A8B4201D38B02C01A5241430A8B4201D34B02C01A5241030A8B4201D3E5
:402F40000B02C01A5241CDD2C3098B4201D3CB01C01A524183098B4201D38B01C01A524143098B4201D34B01C01A524103098B4201D30B01C01A5241C3088B4201D3CB0069
:402F8000C01A524183088B4201D38B00C01A524143088B4201D34B00C01A5241411A00D201465241104670475DE0CA0F00D04942031000D34042534000229C4603098B427F
:402FC0002DD3030A8B4212D3FC22890112BA030A8B420CD3890192118B4208D3890192118B4204D389013AD0921100E08909C3098B4201D3CB01C01A524183098B4201D3C3
:403000008B01C01A524143098B4201D34B01C01A524103098B4201D30B01C01A5241C3088B4201D3CB00C01A524183088B4201D38B00C01A5241D9D243088B4201D34B0021
:40304000C01A5241411A00D20146634652415B10104601D34042002B00D54942704763465B1000D3404201B5002000F005F802BD0029F8D016E770477047C046F8B54A0294
:40308000430244004E00C50F240E28009B09360EC90F92098D4259D0A01B002800DC8DE0002E1AD1002A00D079E05A0704D00F221A40042A00D004335A0138D50134FF2C63
:4030C00000D189E028009B015B0AE4B25B02E4055B0A2343C0071843F8BDFF2CE5D08021C9040A431B2800DD89E016002021C640081A8240511E8A4132439B1A5A0114D5E2
:403100009B019E09300002F0B5FA05388640844265DC041B330020200134E340041BA640721E964100243343BFE75A07BFD1DF082800FF2C2FD1002F00D187E08022D203D2
:4031400013003B435B025B0AFF24BFE7A11B002949DD002E29D0FF2CA7D08026F60432431B2900DD8DE017002026CF40711A8A40511E8A413A439B185A01D6D50134FF2C2B
:4031800064D0012276491A405B080B4013438CE7031ECAD100207B025B0AE4B296E701380028AAD0FF2C9DD17FE7002A00D17CE701390029DFD0FF2CD2D176E7002820D1C9
:4031C000601CC0B2012853DD80279E1AFF0437402FD0D61A0D0095E72800002376E7614B241A334061E700294DD1611CCEB2012E2FDDFF292AD09B185B080C0055E70122C8
:403200007BE7002C1BD1002B5BD0C04300280CD0FF2E7ED01B2800DD92E01D002024C540201A8340581E83412B43D31A34000D0064E7002E00D065E700200024ABE7FF2ED9
:4032400067D08024E40440422343E3E7FF2400233CE7002C61D1002B7ED0002A00D124E79B185A0100D460E73E4A0C0013401CE7002C1ED1002B2FD1002A66D013000D00BA
:4032800013E7012277E7002C1FD1002B5AD0C94300290BD0FF2E50D01B295FDC1F002024CF40611A8B40591E8B413B439B18340062E7002B1CD1002A4AD013000D00FF24FE
:4032C000F3E6130034000D00EFE6FF2E35D08024E40449422343DFE7002A00D1E5E68027981AFF04074000D152E7D31A0D00DCE6FF24002A00D1D8E68020DB08C0030342C1
:4033000004D0D208024201D113000D00DB00FF24CBE61300FF240D00C7E6002B0DD0FF24002A00D1C1E68021DB08C9030B42EDD0D2080A42EAD11300E8E71300FF24B4E650
:40334000012372E713003400AFE60027002022E780270020FF03F1E61300A6E60123A5E7FFFFFF7DFFFFFFFBF0B5564644465F464D46F0B444024600C70F83B08846650ACA
:40338000360EBA463DD0FF2E22D00023EC00802599469B46ED0425437F3E43465C025800DB0F640A000E984636D0FF2830D080230021E400DB041C437F38301A019048465D
:4033C00042460843724E800030587A4013008746002D44D108239946063B9B46DDE70122FF2000241A406402C305640AD2071C431443200003B03CBC90469946A246AB4622
:40340000F0BD002D20D104239946033B9B46C4E7002C17D1022102E0002C0AD10121321A01924A4643460A435A48920082587B409746200002F01EF9431F76309C40404235
:403440000021BAE70321B8E7280002F013F9431F9D4000237630464299469B469DE70C239946093B9B4698E780240022E403FF20B9E70024C2468B465A465346022AAED0CF
:40348000032A7DD0012A31D1012200201A400024A9E70122101A1B2856DD1A4000200024A1E78023DB031D424BD18023DB032B435C02640A3A00FF2095E76D016001854209
:4034C00030D2019A0024013A01921B220127290064006D00002901DBA84201D82D1A3C43013A002AF3D16A1E95412C4301987F300028CEDD620704D00F222240042A00D071
:403500000434220103D5244A019814408030FE2800DD64E70122A401640AC0B21A4062E72C00A9E72D1A1A220124CFE76B02BCD500248023DB031C436402640A4246FF201D
:4035400051E71C42B3D1F4E721002022C140101A8440621E94410C43620704D00F222240042A00D00434620104D5012201201A40002438E70122A401640A1A40002032E774
:403580008023DB031C436402640A5246FF202AE7945C0000D45C0000FFFFFFF7F0B557464E4645464300E0B446028846760A1F0EC40F002F47D0FF2F25D0002380259A469C
:4035C0009946F600ED042E437F3F434642465D02D20F5B006D0A1B0E904640D0FF2B39D080220020ED00D20415437F3BFB1842465746591C62408C4607430F2F5CD86F4945
:40360000BF00C9598F46002E45D108239A46063B9946DAE7424602282DD0032800D1C3E0012800D0A2E0002500260240D4B27602ED05760A2E43E407264330001CBC90463B
:403640009946A246F0BD002E1AD104239A46033B9946BAE72A00511E8A41901CC6E70120002DC3D0280002F005F8431F76309D4043420020BAE70124FF2514400026D6E798
:40368000300001F0F7FF431F9E400023763047429A46994699E70C239A46093B994694E780260024F603FF25C1E735004846B2E7350022004846AEE72904090C0800370C83
:4036C0003604360C2C0C7943704367437443060C64183619B14203D980214902884647440004000C310409188D01681E8541890E2943350CED19AD010D43290104D50123A6
:4037000069081D4063460D4319007F31002925DD680704D00F202840042800D00435280103D5274980330D401900FE29A3DC0124AD016E0A1440CDB279E78020C003064266
:4037400007D0054205D128434602760A4446FF256DE706437602760AFF2568E70124611A1B2905DD14400025002660E76346CBE72E002023CE40591A8D406B1E9D412E43CE
:40378000730704D00F233340042B00D00436730104D5012401251440002648E70124B601760A1440002542E780260124F6032E437602760A1440FF2539E7C046145D000062
:4037C000FFFFFFF7F8B54A024E0043024400240EC50F9B09360EC90F9209FF2E00D183E001204140A01BA9425CD0002800DC95E0002E1CD1002A00D081E05A0704D00F227A
:403800001A40042A00D004335A013BD50134FF2C00D191E001209B015B0AE4B205405B02E4055B0AED0723432B431800F8BDFF2CE3D08021C9040A431B2800DD90E0160070
:403840002021C640081A8240511E8A4132439B1A5A0115D59B019E09300001F00BFF0538864084426CDC041B330020200134E340041BA640721E964100243343BDE70D0054
:403880005A07BCD1DF0801231D40FF2C33D1002F00D190E08022D20313003B435B025B0AFF24BCE700284FDD002E2ED0FF2CA4D08025ED042A431B2800DD97E0160020256F
:4038C000C640281A8240501E824132439B185A01D5D50134FF2C6DD001227B481A405B08034013430D0088E7002A00D07AE777E7031EC5D100257B025B0AE4B28FE701384F
:403900000028A4D0FF2C97D177E7002A00D174E701380028DAD0FF2CCDD16EE7002821D1601CC0B2012858DD80279E1AFF0437402FD0D61A0D008FE701231D4000236EE7D1
:40394000624B241A334058E7002851D1601CC6B2012E33DDFF282DD09B185B0804004CE7012274E7002C1AD0FF2E1FD08024E404404223431B2800DD96E01D002024C5409C
:40398000201A8340581E83412B43D31A34000D005EE7002E00D05FE700250024ABE7002B44D0C0430028F0D0FF2EE3D11300FF240D0022E70D00FF24002330E7002C5DD1B5
:4039C000002B7DD0002A00D117E79B185A0100D456E73E4A040013400FE7002C1ED1002B2FD1002A65D013000D0006E701226DE7002C1FD1002B59D0C04300280BD0FF2E96
:403A00004FD01B285EDC1D002024C540201A8340581E83412B439B18340058E7002B1CD1002A49D013000D00FF24E6E6130034000D00E2E6FF2E34D08024E404404223438E
:403A4000DFE7002A00D1D8E68027981AFF04074000D14DE7D31A0D00CFE6FF24002A00D1CBE68020DB08C003034204D0D208024201D113000D00DB00FF24BEE6002B10D085
:403A8000FF24002A00D1B8E68020DB08C003034203D0D208024200D11300DB000D00FF24ABE61300FF24A8E601236EE713003400A3E6002700251EE780270025FF03E9E653
:403AC00013009AE60123A6E7FFFFFF7DFFFFFFFB4302590A4300C20F1B0E00207E2B0EDD9D2B0DDC802000040143952B0BDC9620C31AD9400B005842002A00D1180070471C
:403B0000034BD018FBE7963B99400B00F3E7C046FFFFFF7F70B5002830D0C317C5185D40C40F280001F0A6FD9E231B1A962B0DDC9622D21A95406A02520AD8B25202C005A8
:403B4000520AE40702432243100070BD992B19DC9922D21A9540124A2A40690704D00F210D40042D00D00432510103D50C4B1A409F231B1A9201520AD8B2DFE700240020CF
:403B80000022DBE705222E00121AB921D6402A00C91A8A40551EAA4135001543DBE7C046FFFFFFFBF8B556465F464D464446F0B40F00FD0FAA4609037C002E005F00450F0B
:403BC000490A7F0D2943C5001803BC46400A570F640DDB0F3843D2009A4500D1AAE06646A61B002E00DCFFE06346002B39D10300134300D0D9E06B0709D00F232B40042BD9
:403C000005D02B1DAB42AD416D4249191D000B0200D482E0CA4B01349C4200D1FEE00A005646C84BED081A405007640552020543120B640D002112030B0D1B056405120B5E
:403C40001A436308C04CF60714401C43640064083443280021003CBC90469946A246AB46F8BDB74B9C42C6D080231B041843382E00DDEBE01F2E00DD1EE120239B1B9C4650
:403C800003006746BB40984613004746F3403B436746BA40571EBA4113430200F240EB1A9D42B6411D008A1A7642911B0B0231D54A02560A002E00D1B4E0300001F0DAFC40
:403CC0000300083B1F2B00DDB5E020222900D21AD1409E400A009D4032439C4200DDB1E01C1B631C1F2B00DDD5E0202114002800C91A8C40D8408D400443DA40681E854184
:403D000011002543002476E74146314300D134E2310045466B0700D06FE756464807ED08C9080543864B9C4235D00A036405120B640D7FE76346E31A9B46002B00DC8BE043
:403D40006746002F3CD07E4FBC4200D153E780273F0438435B46382B00DCF7E00243501E82410020D2B253194218AB4289411D00494289180B02CDD5714B01349C4200D13A
:403D80003DE101206F4A6B080A4028401843D507054351082FE72B000B4300D1CBE180231B030B431A03120B44E7013E002E6DD1AE1AB5429B41091A5B42C91A350075E714
:403DC0000700174300D116E701235B429C46E3445B46002B00D0E0E0AA18AA429B4109185B4259181500C5E7002E75D1661C7605760D012E00DCF3E0AE1AB0464545BF41DA
:403E00000E1A7F42F61B370200D48FE0551BAA42B641411A76428E1B9A464BE756460022002507E7280001F025FC20300300083B1F2B00DC49E72A002838824000259C42A5
:403E400000DC4DE73F49E41A1140D4E60243501E8241D3B2002222E7002B00D0F3E0631C9C465B055B0D012B00DC9FE0344B9C4500D1C3E0AA180918AA42804140424118BE
:403E8000CD075208154349086446B4E62C4B9C4200D0ECE6AFE611001F3CE1400C00202B00D17FE04021CB1A9A4015436A1E95410021254300242DE733000700203BDF40FC
:403EC0003B00202E70D04027BE1BB0400243501E824113430022E2E6002C4FD0184CA44500D1ABE08024240476422143382E00DDDFE01F2E00DD43E12027BC1BA1460C00D6
:403F00004F46BC40A0462C004746F4403C434F46BD406F1EBD41F1402C43151BAA429241411A5242891A64469A46BFE641464546314300D0BEE6002600240025F2E6C046EA
:403F4000FF070000FFFF7FFFFFFF0F801F2B59DC2027FF1ABC46070063469F405B46B9461700DF40B8464F4643461F4363469A40531E9A415B463A43D840F4E60C002C4314
:403F80005CD0F643002E55D1551BAA42A441411A6442091B9A46644688E6964FBC4200D0D8E628E6002280E700208FE70B002B43002C00D0C2E0002B00D101E103001343FE
:403FC00000D118E6AB18AB42B6410918764271180A0200D409E1884A1D00114064460AE6002C5BD10E002E4300D08AE00100114300D1C2E0010015009A46FCE564460021CA
:4040000000258FE620235B429C46DC4463460700DF405B46BC46202B00D1ACE040235F46DB1B98400243501E8241634613431A00002098E66F4CA44500D057E7010015001F
:4040400064469A46D7E5002C39D10C002C436ED0DB43002B1AD0674CA44568D0382B00DDA4E01F2B00DDAEE020240F00E41AA740B9462F00DF40B846A3464F464446274396
:404080005C46A5406C1EA541D9403D43AD1895429B4109185B42591864466BE60C002C4315D1010011437BD0010015009A46514CA1E50D43691E8D410021ECB22DE74D4CA3
:4040C000A44534D0802424045B422143C6E7040014434ED0ED084C072C438025C9082D03294208D0C6082E4205D1D208410711430C009A463100620FC900E50011433D4C9D
:4041000079E50600164300D175E5AE1AB0464545BF410E1A7F42F61B370200D4F4E5551BAA42B641411A7642891B9A4663E50100150064465FE5002200257BE5002B3BD05C
:404140000300134315D0ED084B072B438025C9082D03294207D0C4082C4204D141070B002100D2081343C9005A0F1143DD00214C41E5204C3FE5002054E700260025D1E5CF
:4041800034000F00203CE7403C00202E2BD04027BE1BB1400D43691E8D4100212C43BCE6802100260903134C0025BBE50D43691E8D410021EDB269E7010015000D4C1AE592
:4041C0000100150017E51C000F00203CE7403C00202B0CD04027FB1A99400D43691E8D410021254352E70021D4E71D0092E50021F3E7C046FF070000FFFF7FFFF0B55646AC
:404200004D4644465F46F0B41D000E034C00CB0F87B0070092468146360B640D98466AD06D4B9C4235D08022430F12041343F6001E43C3009946694B00279C4600236444A1
:4042400002932B0368001B0BED0F51469B46400D009500D178E0604B98426CD05B46DA004B0F802109040B4313439B465346D9005A4B9C46002360444246201A6A409246A1
:4042800001901F430F2F00D9B0E05548BF00C0598746374300D088E0002399460233082700260293CDE74346B34649460093029B009A9246022B00D0BFE10021534601226E
:4042C000002689461A40444B002136030C0D2405360B2643434C1B0526401E437600D207760816434846310007B03CBC90469946A246AB46F0BD330003434FD0002E00D1BE
:40430000BCE1300001F0B6F903000B3B1C2B00DDADE11D220100D31A08393A008F408E40DA40B9461643304B00279C46002360444442029385E753465A4613432CD10023DD
:4043400000219B46023397E70B4320D05B46002B00D19EE1584601F08DF903000B3B1C2B00DD8FE102005946083A91408B461D21CB1A5146D9400B0059460B4351469B4674
:404380009140194B9C4660444042002374E7002300219B4601336FE703236DE70023994601330427002602934BE703230C27029347E70122D51A382D00DCB0E153461A40D8
:4043C00000210023002689467EE700238026994600223603004B77E7FF07000001FCFFFF545D0000FFFF0F80F30300005E4500D972E100D16DE1019B4D46013B019300232E
:40440000340002935B461E020B0E1E430B020393330C994633041B0C494620000093FEF7B7FC009B370043430600494620009846FEF734FD2C0C09040C43A04509D9E41906
:40444000731EA74200D95CE1A04500D859E1023EE4194346E41A49462000FEF799FC0300009A80465343494620009B46FEF716FD2A040904120C0A4393450DD94346D2194F
:40448000013B974200D93AE1934500D837E102235B429C46D219E0445B46D21A4346360433439B460399180C0B0C1D00059309045B46090C0C001B041B0C44430491594378
:4044C0006B4368431B190D0CEB189C4203D980246402A44660441C0C09041B04090C20185D18824200D2DEE000D1D7E0161A029B9C465D1BAC459B415B42F61AB74200D164
:4045000006E149463000FEF743FC009B04004343494630009846FEF7C1FC2E0C09040E43B04509D9F619631EB74200D9F3E0B04500D8F0E0023CF6194346F31A4946180062
:404540000293FEF725FC009B06004343494602989846FEF7A3FC2D0409042D0C0D43A84509D9ED19731EAF4200D9D6E0A84500D8D3E0023EED192404210043463143049E7B
:40458000059A3000ED1A0B040C0C1B0C58436643534354439A19030C9B189E4203D980225202944664441A0C00041B04000C14191B18A54250D34DD001231943964A019BE5
:4045C00094466344002B00DCF3E64A0709D00F220A40042A05D00A1D8A42894149428B4411005A46D20108D55A468C4B1A4093468022D2009446019B6344894A934200DD7A
:404600005BE65A46C908500708435602514601225B058146360B5B0D0A4055E680231B031E4211D05A461A420ED15E461E433603360B2A0089467B4B46E6032B00D1E1E0B8
:40464000012BBBD11A40BBE61E433603360B4246744B39E6002BB1D07D194A1EAF4252D91100A542A8D1039A9A42A5D1A6E703003E00283B9E400023994654E600F0FAFFEC
:40468000203041E603005246283B9A400021934677E6504600F0EEFF20305EE6029B0026AB4200D323E7039E0299B44661448846B045B6415B467642F619B218013B02912A
:4046C000974213D290424FD800D18EE0161A9B460DE7894500D28EE674084B46F60735005B081D434B46DB0702938BE69742EDD10399029CA142E5D93E1A9B46F7E69846CA
:40470000CAE61E00A5E6AC423ED874D0110053E70121494252E71C000EE71E002BE71F2D3CDC20230A0058465B1B9840EA4099400243481E81415E461143EE404B0709D008
:404740000F230B40042B05D00B00191D99429B415B42F61833023CD55346012200211A40002601238946AFE502235B429C46039CE344A446029B63449846A045B6417642E1
:40478000F6190293B218B1E603988A1E41008142B6417642F619AD19039161E71F225242D31A5A46DA401300202D29D040225846551BA8400143481E814107200B431840E7
:4047C0000026002809D00F2200261A401900042ABBD10B0070077602360BDB0803439946012253461A4000236EE502998D42BBD89B4600267BE603989842C5D3110032E7A3
:404800000020D7E780265B4636031E433603360B009A8946034B57E5FF030000FFFFFFFEFE070000FF070000F0B55F4656464D464446F0B40D0399464E002B0B87B00700EC
:40484000924680469B46760DCC0F002E69D06D4B9E4235D05B468022DD001204430F13432B439B46C3009846674B00279C460023664401934A4615035000D20F53462D0BC3
:40488000400D914600D176E05E4A90426CD080225B0F120413435C4AED0094461D4353460022DB00604449463618701C6140029017430F2F00D9AFE05448BF00C759BF465C
:4048C0005B461F4300D088E000239B469846023308270193CEE74946022A6AD0032A00D109E2012A00D0BBE111400022002300259046CCB200212D030A0D12052D0B15435B
:40490000434A1B0515401D436D00E4076D0825434046290007B03CBC90469946A246AB46F0BD034352D05B46002B00D18AE1584600F0A0FE03000B3B1C2B00DD7BE11D22A3
:40494000D31A3A0001005D46DA4008398D4013008F402B439B46B8462E4B00279C46002360444642019385E752462A432CD100250023022297E752462A4321D0002D00D164
:4049800054E1280000F076FE03000B3B1C2B00DD46E11D21CB1A51460200D9405346083A954093400D431B4A944660444042002279E7012400220C40124B0025904699E7A8
:4049C0000025002301226EE703226CE700239B4698460133042701934CE703230C27019348E700238025984600242D03054B81E75D464346019A6FE75D4643462100019AA4
:404A00006AE7C046FF07000001FCFFFF945D0000FFFF0F80F30300004246120C91461A0C9446424617044A461B041B0C5A43604690464A4642431000039262461C003F0CD2
:404A40007A437C4342440192220C9246019A5244904506D98246802040028046C24450460390100C049048462404240C1204121905922A0C2D042D0C68432C0082464846DC
:404A80007C4350438146200C8046574357444744BA4503D9802040028046C144380C3F04B84648442404240C01900498A044404404905846000C814658460404200C824606
:404AC000070048465F434C464343604660436446834650464443380C8446E4186444A34203D980235B029C46E34448463F04230C3F0C2404E419574668436F4384464D464B
:404B0000504655434243380C814662444A445B44944503D9802040028446654403983F04834604983F0C8446E344C345804140428246100484460198674484466744A344CA
:404B4000BC46A345A4419946D44464428742BF41D4458041E144A04699459B417F424042C8440743120CBA18A045A4415F423B0064422343D71843467D19DB0D6D021D4361
:404B80005B465A02059B1A43531E9A415B46DB0D1A4343465B021343EA0107D501225C0813402343EA07029E13436D08574AB218002A4BDD580709D00F201840042805D0AD
:404BC000181D98429B415B42ED180300E80104D54F4A15408022D200B2184E48824200DDE7E60124DB08680718436D02530580462D0B5B0D0C407DE68022594612031142DC
:404C000008D0154206D115432D0398462D0B4C46414B6FE65D4615432D032D0B3E4B69E603005546283B9D400023BCE6504600F021FD2030A8E60300283B9F400023BB4694
:404C4000984689E600F016FD203073E60124A61A382E07DD00220C4000230025904649E6029EA3E71F2E20DC20222C001800921BF040944093400443581E83411C43F540BF
:404C8000630709D00F232340042B05D023001C1D9C4292415242AD182B021FD5012400220C4001230025904624E61F202C004042821AD440202E1CD04022961BB5402B4388
:404CC000581E83410720234318400025002809D00F2200251A401C00042AD8D1230068076D022D0B0124DB08034398460C40002300E60025E3E780220124120315432D03BF
:404D000098462D0B0C40044BF4E5C046FF030000FFFFFFFEFE070000FF070000F0B557464E464546E0B40E001100F20F9246C500420F180337037400400A4E0F7F0A30436C
:404D4000CF4E17435A00640D520DDB0FC900B24200D1E5E001267340A61AB446534500D1AFE0002E00DC0DE1002A3AD103000B4300D0E4E06B0709D00F232B40042B05D0CB
:404D80002B1DAB42AD416D427F191D003B0200D488E0BB4B01349C4200D110E13A00B94B51461A4001235007ED08520264050543120B640D0B400021280012030D0D120B06
:404DC00064052D0515436208AF4CDB072C401443640064081C4321001CBC90469946A246F0BDA74B9C42C5D080231B0418436346382B00DDFDE01F2B00DD30E162462023D9
:404E00009B1A02009A40664690460A009940F24046464B1E99413243114363460200DA40691A8D429B410D00BA1A5B42D71A3B0235D57A02530A98464346002B00D1C4E029
:404E4000404600F017FC0300083B1F2B00DDC5E020222900D21A4746D1409F400A009D403A439C4200DDC0E01C1B631C1F2B00DDE4E0202114002800C91AD8408C408D4052
:404E80000443DA40681E854117002543002471E7424663461A4300D14CE2674645466B0700D069E7012351467807ED08FA080B40054373498C4238D012036405120B640D91
:404EC00079E7002E00DC9AE0002A47D06C4A944200D14FE78022120410436246382A00DC08E10143481E81410022C9B24919D219A942BF410D007F42BF183A0200D442E107
:404F00005F4A0134944200D14EE101205D4A69083A4028400843D507054357089A4629E706000E4300D017E714E72900114300D1F9E1802109030A431203120B3BE701232A
:404F40005B429846C4446346002B72D1691A8D429B413F1A5B42FF1A0D0068E702000A4300D107E7012252429046C4446246002A00D0E6E06918A942B6413F187642F71971
:404F80000D00BAE7002E00D080E0621C5205520D012A00DCF9E06A1A91464D45B6413A1A7642921B9046120200D499E04D1BA9428941C71B49427A1A90469A463CE752466E
:404FC0000123002513400022F5E6280000F052FB20300300083B1F2B00DC39E72A002838824000259C4200DC3EE7264FE41A1740C0E60143481E81410022C9B210E7002EE9
:4050000000D0F1E0621C94465205520D012A00DCA0E01B4A944500D1C5E06918A94292413F185242D2194908D5070D4357086446A0E6134B9C4200D0D9E69BE611001F3CAD
:40504000E1400C00202B00D180E04021CB1A9A4015436A1E95410027254300241FE763460200203BDA406346202B71D0402366469B1B98400143481E814111430022CFE66F
:40508000FF070000FFFF7FFFFFFF0F80002C48D0CA4CA24200D1A2E07442A1468024240427434C46382C00DDDBE01F2C00DD44E14E462024A41B3E00A640A246B0464C4677
:4050C0002E00E640B4464646644626435446A5406C1EA54134002C434D46EF400D1B28E04A4643464D461A4300D0A5E6002300240025DEE61F2A5ADC66462022921B06008B
:4051000096409146B04662460E00D640424616434A4691404A1E9141020060463143C240E4E63C002C435AD0F443A146002C52D14D1BA9428941C71B49427F1A14009A4643
:4051400075E69E4A944200D0C7E613E600227FE700208FE7002C00D0C8E03B002B4300D10FE103000B4300D104E66918A9429B413F185B42DF193B0200D41AE1904B0D0040
:405180001F406446F6E59A4689E63A002A43002C5CD1002A75D102000A4300D1CAE007000D009A46E6E564460022002581E662460600203AD6406246B046202A00D1B7E0FD
:4051C00040226646921B904001434246481E8141114300228AE6794CA24200D061E707000D0014009A46C5E5002C41D13C002C4378D0F443A146002C20D0704CA24271D08B
:405200004C46382C00DDB2E01F2C00DDBCE02026341BA2463C005646B4404E46A0462C00F440A446444666463443A4465446A54064466E1EB54125434C46E7406D188D4281
:4052400089413F184942CF19140056E6002A2FD102000A4300D184E007000D009A46574C88E53D436F1EBD41ECB200270D1B60E7524CA24236D0744280263604A1463743DA
:40528000BEE702000A4300D174E56A1A90464545B6413A1A7642921B9446120200D4F7E54D1BA9428941C71B49427F1A9A4661E502000A433AD0ED087C072C438025FA086E
:4052C0002D032A4208D0C7082F4205D145072C003A009A46C9080C43670FD200E5001743364C47E507000D00140043E53A002A4343D002000A4319D0ED087C072C4380256F
:40530000FA082D032A4207D0C6082E4204D147073C003200C9080C43D700620FE50017439A46264C26E50022002544E5234C21E5002049E700230025BBE54C463E00203CDC
:40534000E6404C46B446202C31D040244E46A61BB7403D436C1EA54164462C4300270D1BE7E6802200231203144C0025A1E53D436F1EBD410027EDB260E707000D000F4CED
:40538000F8E407000D00F5E44E463C00203EF440A0464C46202C0ED040244E46A41BA7403D436F1EBD4144460027254346E70027CFE70D0073E50027F2E7C046FF070000E3
:4053C000FFFF7FFF0B0330B5134D1A0B4B005B0DC90F0024AB4211DD104CA34210DC8024640322430E4CE41A1F2C0CDD0D48C31ADA4013005C42002900D11C00200030BDE6
:40540000094BCC18FAE7E040084CA44663449A4013000343EEE7C046FE0300001D0400003304000013040000FFFFFF7FEDFBFFFF70B5002830D0C317C4185C40C50F2000DB
:4054400000F018F9174B184A1B1AD21A1F2A18DD164AD21A9440002224035B05240B5B0D0021100024030A0D1205240B1443104A1B0514401C436400ED0764082C4321001B
:4054800070BD210091400A000B21081AC4405B052403240B5B0DE3E70025002300240022DEE7C0461E0400003304000013040000FFFF0F804200120E511C4302C9B270B57F
:4054C0005D0AC40F012915DDE02189008C466D071B0B6244002128000D0D2D052B431C4D52052B40520813435B00E4075B082343190070BD002A15D1002D1FD0280000F043
:40550000B9F80A281DDC0B232A001B1ADA4013000200153295400F4A1B03121A52051B0B520DD7E7002D06D080221B0B120313436D07094ACEE7084A0023CBE7002200235C
:40554000C8E703000B3B9D402B000025E3E7C046FFFF0F8089030000FF0700004B0070B55E0D0C03751C640A420F6D052243C90FC4006D0D012D2ADD3B4BF318FE2B1ADC0B
:40558000002B42DD8001451EA841D2001043620F0243500704D00F201040042800D004328020C004104021D00133FF2B03D09201520ADBB201E0FF2300225202520ADB0516
:4055C00013435B00C9075B080B43180070BD002E07D01443EFD08020D20080040243FF23D7E722430023002A03D00522D208FF2B03D05202520ADBB2DFE7002A32D08020AC
:40560000C00302435202520AD7E71800173014DB8020000402431E20C01A1F280FDC2500124BF3189D406E1EB5419A402B0013432200C2401A430023ABE70023D5E70225F0
:405640006D42EB1A1500DD40202809D0084BF3189A401443621E9441220000232A4398E70022F6E70022A8E780FCFFFF82FCFFFFA2FCFFFF1C2101231B04984201D3000C92
:4056800010391B0A984201D3000A08391B09984201D30009043902A2105C40187047C04604030202010101010000000000000000014B18687047C046380100200E4B70B5D7
:4056C00000251E000D4CE41AA410A54204D0AB00F35898470135F8E700F090FB084B00251E00084CE41AA410A54204D0AB00F35898470135F8E770BD085E0000085E000002
:40570000085E0000105E0000931E10B50C00222B02D9002008700DE00A2A06D1002804DA2D2340420B70012100E00021611800F017F8200010BD10B5FFF7E6FF10BD0023F0
:4057400010B59A4203D0CC5CC4540133F9E710BD03008218934202D019700133FAE77047F0B58FB0170006000C002522184904A8FFF7E5FF0020BB1E0500222B01D920700B
:4057800023E06B1C0293E31801933000013B39000393FDF783FB04AB5B5C039A300013703900FDF7F5FA061E01D0029DE9E7019B187023001A1B954206DD1A78615D197049
:4057C00062550133013DF5E720000FB0F0BDC046D65D000000000000FE790000456E636F6465722056616C75653A20002C20000048756D69646974792056616C75653A2021
:405800000000000074617267657420656E6376616C3A20000A0D0000656E7465722000000606000000300F40000800400F400008841F850D870D404149FF4AFF4BFF4F01FA
:40584000501852805A045B045D115F016040624064406540668068806A806C806E808C0490019802A501B002B204B501B601BE45BF10C054C9FFCAFFCBFFCD83CE03CF01DE
:40588000D018D804D904DA04DB04DD01DF01E040E240E440E540E680E880EA80EC80EE80018009020B0819452210282041014681480259455A207402768081808704C00194
:4058C000C20ACA02D091D208D60FE080E204E60810013001405445EC4720482349FF4AFF4BFF4D834E034F015018560458045A045B045C035D015F01604062406440654014
:40590000668068806A806C806E8092019301AE01AF01B601B701BF40D401D804D904DB04DC01DD10DF010A800C02160119011F8026402C0236024101480249024B0451011E
:40594000520359015A285B805D025E805F0462806340874095029E01A002B420B502C218C480CA10CC80D001D208D6DFD809EC01404549FF4AFF4BFF4F0150185A045D097E
:405980005F016040624064406540668068806A806C806E8085018E01920195089902A104B102B201B301B508B601B704BE40C054C5ECC720C823C9FFCAFFCBFFCD83CE038B
:4059C000CF01D018D280D401D804D904DA04DB04DC39DD99DF01E040E240E440E540E680E880EA80EC80EE8002020B4018201940229423802B803020320839084101468093
:405A000049054B404E025101520259457280734080108504878088208E0896289F80A680AA40AF80C001C208CA01CC06CE02D081D218D60BE208E608EE016B106F20730280
:405A4000DAC0DC20012006028A029F12A720C0C087029F12A720A920E640EC8083109F10AF20E220EE1000200520C0030040032004040704420848114D2080048720880134
:405A80009920A010C00FD008D20EE001AA08B440B704EA02EE08068009840C400F10844087108A808D04A580A980C004C20FE6061002120A1301000003000F4035320F4045
:405AC00018330F402B340F4025350F403C360F4029370F4005400F4006410F4006420F4005430F4003440F4010450F4005460F400D470F4003600F40000000000800880034
:405B00000000000001000000080088000000000002000000080088000000000003000000080088000000000004000000080088000000000005000000080088000000000086
:405B400006000000080088000000000007000000080088000000000000000000A8008000FFFFFFFF0000000001000000A8008000FFFFFFFF0000000002000000A800800085
:405B8000FFFFFFFF000000000300000000000000000000000000000004000000000000000000000000000000050000000000000000000000000000000600000000000000D7
:405BC00000000000000000000700000000000000000000000000000008000000000000000000000000000000090000000000000000000000000000000A0000000000000083
:405C000000000000000000000B0000000000000000000000000000000C0000000000000000000000000000000D0000000000000000000000000000000E0000000000000032
:405C400000000000000000000F000000000000000000000000000000030405060708090A0B0C0E0F101112131415161718191B1C1D1E1F2021222325262728292A2B2E2F54
:405C80003031323334350000000000000000000006070000BA340000DE3300009C340000743400009C340000683400009C34000074340000DE330000DE330000683400008F
:405CC00074340000203500002035000020350000A2340000DE330000DE330000883400007234000088340000683400008834000072340000DE330000DE330000683400002B
:405D0000723400002035000020350000203500002C350000B8360000163600001636000014360000AA360000AA360000A036000014360000AA360000A0360000AA36000017
:405D400014360000B0360000B0360000B03600003A370000EC430000BA420000C0430000B0420000C0430000CA430000C0430000B0420000BA420000BA420000CA4300008C
:405D8000B0420000A6420000A6420000A64200001C460000184A0000D8480000D8480000D6480000F0490000F0490000E2490000D6480000F0490000E2490000F0490000BF
:405DC000D6480000F8490000F8490000F8490000F84B00004300303132333435363738396162636465666768696A6B6C6D6E6F707172737475767778797A0000F8B5C0465D
:405E0000F8BC08BC9E467047ED020000B1100000F8B5C046F8BC08BC9E467047C5020000305E0000C000002080000000A001000000000000010000000000204E409C000038
:405E400028000000005A62020000000000000000000000000000000000000000000000000000000000000000D45D000000000000000000000000000000000000000000000B
:405E800000000000000000000000000000000000000000000000000000000000000000000000000000000000D80000200000000000000000000000000000000000000000EA
:405EC00000000000000000000000000000000000000000000000000000000000000000000000000000000000000000000000000000000000000000000000000000000000A2
:405F00000000000000000000000000000000000000000000000000000000000000000000000000000000000000000000000000000000000000000000000000000000000061
:405F40000000000000000000000000000000000000000000000000000000000000000000000000000000000000000000000000000000000000000000000000000000000021
:405F800000000000000000000000000000000000000000000000000000000000000000000000000000000000000000000000000000000000000000000000000000000000E1
:020000040003F7
:0200000490303A
:02000000A173EA
:0200000490402A
:4000000000000000000000000000000000000000000000000000000000000000000000000000000000000000000000000000000000000000000000000000000000000000C0
:400040000000000000000000000000000000000000000000000000000000000000000000000000000000000000000000000000000000000000000000000000000000000080
:0200000490501A
:0C0000000002101111A00001102FB3131A
:0200000490600A
:0100000001FE
:00000001FF