:400000000080002011000000490A0000490A000010B500F021FDC04610B51222214B1A60302001F057FA204A204B1A600024204B1C60204B204A1A602049214A1160214AC6
:400040001A60E021C900204A1160204A1A60E82149011F4A11601F4A1A60882189011E4A11601E4A1A60822212061D4B1A608022D2021C4B1A60C0221B4B1A607F3A1B4BA9
:400080001A6001321A4B1A6001321A4B1A601A49082001F043F9082001F02AF9174B1C6010BDC046300010400600008004010B40000301400000014040FF008000FF52070B
:4000C00000050140C0FF00800403014041FF00800803014042FF00800C03014043FF008008010B4000010B404C01014028010140100101400C010140511700000C020B405B
:4001000010B572B601223D4B1A7000240FE03C486200131959000B00411889881A5AC31858880004104300F057FC0134E4B2012CEDD933490C313348183000F033FCAA22BC
:40014000314B1A60113A314B1A60EE221202304B1A60EE222F4B1A6099231B042E4A13602E4A13602E4A13602E4A13602E4A13602E4A13602E4A2F4B1A602F4A2F4B1A60F5
:4001800001232F4A13602F4A13602F490B783C22934314221343DBB20B702C4A117816230B43DBB213700222294B1A60294A2A4B1A60313A294B1A60C13AFF3A284B1A60FC
:4001C000C223284A13603121274A1160274A1360F222274B1A60274A274B1A60DB225203264B1A600322264B1A602132254B1A60FFF712FF00F006FC10BDC0461C700F408F
:40020000E4230000E42800000000024000020240000302400005024000500F4010500F4020500F4040500F4050500F4070500F4004040444D8300F4004040484D8340F401D
:400240002000104000800F4001700F4000700F40000004407102000008000440080104401801044000020440080204401802044000030440902D4900080304400804044035
:40028000000504400805044010B5064C2378002B07D1054B002B02D0044800E000BF0123237010BD4801002000000000E0230000084B10B5002B03D00749084800E000BF72
:4002C00007480368002B00D110BD064B002BFBD09847F9E7000000004C010020E0230000C000002000000000F8B504000D0000F035FE0F2020401A4E30603F212940194B90
:400300001960194C00252570800108434005E060164FA760164B1B686360200000F0EAFC01232370E560A760124B1B686360200000F0E0FC022323703368DB06FC22D20411
:400340001343E360A7600C4B1B686360200000F0D1FC00F0CBFB09491D2000F0DFFFF8BDC0010020D4010020C4010020FFFF1F80A0002F40C0002F40E0002F407104000041
:4003800010B586B0002815D0038802AC02930023237163718278A271E3716B460593C11C0822684602F00AF8200000F0EDFD002802D102E0022000E0012006B010BDC04606
:4003C000014B18787047C046D4010020014B18787047C046C0010020104B1878C0B2002819D15A78D2B29B78DBB29A4205D20B4A93785078181AC0B20EE0084B5A78D2B27A
:400400009B78DBB29A4207D9044A93785078181A1030C0B200E010207047C04664010020124A93780133DBB293709378DBB20F2B02D900220D4B9A700C4B1B78002B0BD0BD
:400440000A4A53780133DBB253705378DBB20F2B02D90022054B5A70044A537891785B1A59424B41DBB213707047C0466401002070B580225201444B1A60444B1B68DA070A
:4004800006D49A0706D45A0706D41B0706D406E0002404E0012402E0022400E003243C4B9A78D2B264013B4B9C4664442368DB0202D46168490D02E06168C90889B2364B67
:4004C000500082189000C152314A9178C9B22068000C0F2528404D0069188D005D19A8709178C9B2A5682D0E4800411888001818C5709178C9B2A068000CC0B24D00691825
:400500008D005D1928719178C9B2A068000AC0B24D0069188D005D1968719178C9B2A568EDB2480041188800181885719178C9B2E5682D0E4800411888001818C57191784A
:40054000C9B2E068000CC0B24D0069188D005D1928729178C9B2E068000AC0B24D0069188D005D1968729278D2B2E068C0B251008A1891005B189872FFF752FF226801239E
:400580001343236070BDC04600002F4008002F4064010020A0002F40D801002010B5FFF71BFF00280BD0064A53780133DBB253705378DBB20F2B02D90022014B5A7010BDD3
:4005C0006401002010B582B0041E17D0FFF704FF6B46D87107331B78002B11D00A4B5B78DBB25A00D3189900084B59180C22200001F0E4FEFFF7D2FF002002E0022000E067
:40060000022002B010BDC04664010020D801002070B504001E00012000F022F820800823A370E51CF621280000F028F82418E670421C0499280000F033F870BD8079704748
:4006400070B504001D00002000F00AF820800423A370E01C092100F011F82418E57070BD80028023DB0018408901403B194001433F200240114308007047C04610B50400EE
:400680000170FFF7A3FE6070FFF79AFEA070032010BDC0464079704700797047C078704710B50B0E8354531C0C14C454931C0C12C4540332815410BD407970470079704787
:4006C0004079704780797047272070470020704710B5431C642B06DC0303181A642101F055FD273007E00303181A642101F04EFD024B9C466044C0B210BDC04627F0FFFF0C
:4007000010B5431C642B06DC0303181A642101F03DFD273005E00303181A642101F036FD27300012C0B210BD70B505000C0001F073FA002302222900200001F08DFA0028B3
:400740000DD101F051FA8307FBD501F04DFA830507D401F043FA022805D0FF2004E0FF2002E0FF2000E0002070BDC04600B583B001F09AF901F08CF901A800230370803313
:4007800043704021FFF7D0FF03B000BD00B583B001AB1870597040211800FFF7C5FF03B000BDC04670B50D008000C4B2A61DF6B2FFF78AFF01003000FFF7E8FFFFF786FFC7
:4007C0000100E31DD8B2FFF7E1FF2800FFF780FF010023000833D8B2FFF7D8FF2800FFF78FFF01000934E0B2FFF7D0FF70BDC04610B501F0ADFA03230340054C0122022174
:400800002000FFF71DFF2000FFF7BAFD10BDC0469802002070B562B601F0A0FA324801F0CDFA01210720FFF75FFD01F0D3F8FFF79DFF00242000FFF7C5FE0028F9D120003A
:40084000FFF72CFF0E2819D0F52832D00D283FD10C3800F0DBFFFA20400000F097FD002000F0D4FF2000FFF729FF05002000FFF723FF0100280000F07BF8DAE7012000F02C
:40088000C5FFFA20400000F081FD002000F0BEFF00242000FFF712FF05002000FFF710FF06002000FFF70EFF01003200280000F077F8012000F0AAFFFA20400000F066FD20
:4008C000002000F0A3FF0024200000F01DF8B0E7002000F08FFFFA20400000F057FD012000F088FFA5E7C046F107000010B5040001F080F8022001F091F801F085F82000AC
:4009000001F0A0F880B210BDF0B587B00400FFF795FE05002000FFF7BFFE06002000FFF7B9FE0400162D02D0172D04D007E00020FFF7DCFF04E00120FFF7D8FF00E0002040
:4009400000902B002200310003A8FFF761FE03A8FFF716FD002809D0002000F04BFFFA20400000F013FD012000F044FF07B0F0BD10B50400B32900DDB321002900DC0121CB
:40098000042C0BD84800411848010818AC2101F0FDFB010066312000FFF704FF10BDC0467047C046F0B50025002711E0BB00C658F3B2FF22964308E06A008A181478A4198C
:4009C000527822700135013BDBB2002BF4D10137112FEBD9F0BDC04610B50A00002101F0F6FC10BD064B1B68002803D080221206134301E05B005B08014A13607047C04624
:400A000080033A4010B50323094A1360094A136080221206084B1A60C023084A1360084A13600022074B1A600120FFF7DBFF10BD300030403000314000003A4000033A406A
:400A400040033A40000E3F4010B501F08BFC03680C2B00D1FEE7FEE770B50F4E0F4D13E029686B68AC68002202E001C901C30432A242FAD1E868002202E0002102C3043282
:400A80008242FAD11035013E002EE9D101F070FCFFF7C0FEFEE7C04601000000042B000010B50E4A136801218B43136000230AE0032B03D89A000A49505800E0094899009F
:400AC000094A885001332F2BF2D9FFF719FB034A116801230B43136010BDC0460000104000000000490A000000000020054B1A6801210A431A601B68194201D1012000E0BB
:400B00000020704704002F4010B50E4A0E4B1A60FFF7ECFF1D2000F0EBFB0C4A116801230B431360C02300E0013B002B03D0074A1268D207F8D5002B01D1012000E0002047
:400B400010BDC0460112000000002F4010002F4003B2002B0DDB094A1168094B0B400004034313601268074B1340984203D0012002E0022000E000207047C04614002F4080
:400B8000FFFF00800000FF7F002809D10C4B19680C4A0A401A601B68DB040CD501300DE0074B1A68802149010A431A601B680B4203D1012002E0002000E000207047C046DA
:400BC00014002F40FFEFFFFF70B5841EE4B20D2C35D88C1EE4B2052C03D9002B31D1012931D1032A31D8904231D3914231D31C4D2C68240AE4B20F26B44320432E68194C0F
:400C00003440000204432C602C686040F0242401204220D1002B00D002234901C9B29200D2B2114319430E4A1368EE2083430B4313601368034099420FD0ED380EE00220EB
:400C40000CE002200AE0022008E0022006E0022004E0022002E0012000E0002070BDC04614002F40FFF0FFFF002809D10B4B1A6810218A431A601B6819420BD001300CE074
:400C8000064B1A6810210A431A601B68194203D1012002E0002000E00020704714002F40002809D10B4B1A6801218A431A601B6819420BD001300CE0064B1A6801210A43FF
:400CC0001A601B68194203D1012002E0002000E00020704714002F40054B18601B681B041B0C984201D0012000E000207047C04604002F4010B503785B01204A9446634457
:400D00001F4A41680A431A6003785B01634419681C4A11401C4A44682240914224D182681A6103785B0163441A6981688A421DD1C2685A6103785B0163445A69C1688A42C4
:400D400016D1012252429A6103785B0163449A6901320FD10022DA6103785B016344DB69002B09D0012008E0012006E0012004E0012002E0012000E0002010BDA0002F400E
:400D8000800080007F007F007FFF7FFF10B503781B01104A944663440F4A41680A431A6003781B01634419680C4A11400C4A4468224091420AD182685A6003781B016344DF
:400DC0005A6883689A4203D0012002E0012000E0002010BD20002F4008008000F7007F00F7FF7FFF70B500240AE063001B199800104B1818FFF7CAFF002805D10134E4B230
:400E0000072CF2D9002500E00125002D0BD00FE0230108486030C018FFF76CFF002806D10134E4B200E000240F2CF1D900E00125280070BD44290000002809D10C4B1968E0
:400E40000C4A0A401A601B689B040CD501300DE0074B1A68802189010A431A601B680B4203D1012002E0002000E000207047C04614002F40FFDFFFFF10B580221206334B91
:400E80001A60334A136801218B431360A0231B0100E0013B002B03D02D4A1268D207F8D4002B49D01D2000F02DFA2A491D2000F035FA03211D2000F043FA0020FFF748FE7D
:400EC000002819D1FFF760FE002817D1FFF7B4FF002815D10023002201210C30FFF774FE00280FD1FFF7C0FE00280DD1FFF7D8FE00280BD001230AE0012308E0012306E005
:400F0000012304E0012302E0012300E00023002B14D1FFF767FF002812D10F48FFF7DCFE00280FD10A4B1A6807218A431A601B68194209D0013008E0012006E0012004E0B4
:400F4000012002E0012000E0002010BD00042F4010002F40850F00000112000010B5084B1B78002B02D1FFF787FF00E00020002804D10122024B1A70FFF7C6FD10BDC0463F
:400F8000680100207047C046F8B54F464646C0B4040001200023984691E04C4B1B6832041A427AD12379002B01D1002701E08027BF036379002B07D12B01454A94466344F6
:400FC000226852055A6009E080235B031F432B013F4A944663442268D2005A60A379072B03D81B041F43B94603E080231B031F43B946E379002B03D004234A461A439146CB
:4010000000232AE0032B13D92801324A94466044026894465907CA1AD1003831FF228A4067469743E268D25C8A403A43026012E02801274A94466044826894465907CA1ADF
:40104000D1001831FF228A4067469743E268D25C8A403A4382600133DBB2A279934201D2072BCFD91D2000F04DF92B01184A94466344194A4F4617431F60227A002A04D0F8
:40108000196803220A431A6003E0196801220A431A601D2000F02CF900207600F6B2002807D00135EDB201E001260025072D00D873E7002806D043460133DBB298464346CF
:4010C000022BF1D90CBC90469946F8BD08002F4020002F402C002F4008008000074B1B78272B05D8064B1B78DBB2064A136004E0054B1B78DBB2034A1360704702F3FF0F88
:4011000042F3FF0F20FF0B40C1F1FF0F00230AE0204A12683F210A401F49C95C8A4201D1033303E001332D2BF2D903231B4A12781B2A16D8302B05D1194B1B78DBB2194AAC
:40114000136006E0182B04D1174B1B78DBB2154A136016490B681F229343173A13430B6016E0302B05D1124B1B78DBB20D4A136006E0182B04D10F4B1B78DBB2094A136003
:401180000A4A13681F218B430B4909780B4313607047C0462CFF0B40A42A000002F3FF0F3FF3FF0F28FF0B403EF3FF0F34FF0B40C3F1FF0FC2F1FF0FC0F1FF0F00230AE0FA
:4011C0000D4A12683F210A400C49C95C8A4201D1033303E001332D2BF2D9032308490868084A02400A60084A944663441B78DBB2064A13607047C0462CFF0B40A42A000050
:4012000000002240FFFFFFBF4DF3FF0F28FF0B40034B18688023DB05184000D0012070470000224010B50B4A136801218B431360094B1A68094B1A60094A12685A60FFF704
:4012400065FFFFF74BFF074A116802230B43136010BDC04650000C4034FF0B406C01002020FF0B4024002C4030B500230AE0134A12683F210A401249C95C8A4201D10333DF
:4012800003E001332D2BF2D903230E490A68022082430A600C4C21681F2291430B4805682A400A4322604168094A1160094A944663441B78DBB2084A136030BD2CFF0B403C
:4012C000A42A000024002C4034FF0B406C01002020FF0B404DF3FF0F28FF0B40034B1B680220184000D001207047C04624002C401F2318401E3B8340014A13607047C046A1
:4013000000E100E01F2318401E3B8340014A13607047C04680E100E001BE704770B504000D001F2802D90020FFF7F6FF1034A40080239B059C4664442068256070BDC046AC
:4013400070B504000E00032902D90020FFF7E4FF1F2C02D90020FFF7DFFF03252540ED00063500F042FDA408A400074B9C46644421680323AB4099430B003100A940194315
:40138000216000F036FD70BD00E400E010B5040006E0084B586800F01FFD074B9C46644480231B029C42F4D8024B9868604300F013FD10BDC40000200080FFFF70B582B00E
:4013C00000F070F9002862D000F00FFD0500314A116801230B43136000230AE02E4A12683F210A402D49C95C8A4201D1033303E001332D2BF2D903230021294A1160294A70
:401400001268D20606D1274802681F318A4313390A430260244C2168244A1140244A5A438023DB019C466244D20B013A5205520D0B001343A0225203134323601D4B1B68BE
:401440000193302000F0D8FC1B4A13688021C9050B4313602668194B1E40002407E00120FFF794FF1034A30533430F4A1360EE2CF5D90120FFF78AFFFF239B051E430A4B81
:401480001E60019A0B4B1A60280000F0B2FC02B070BDC04650000C402CFF0B40A42A000028FF0B4034FF0B400800224000F800C040420F003000104000002240FFFF3FC036
:4014C00010B5034B1B7B584300F086FC10BDC046C4000020F0B55F4656464D464446F0B483B0040000F081FC0190FFF791FE002804D0FFF763FE01239A4601E000239A46E3
:40150000FFF7ECFE002808D0182C01D0302C07D1FFF7AAFE01239B4604E000239B4601E000239B46E61E2D2E74D8464B1B78DBB29C4208D8444B1B78DBB29946434B1B7849
:40154000DBB2984631E0424B1B78DBB29C4208D8404B1B78DBB299463F4B1B78DBB2984623E03E4B1B78DBB29C4208D83C4B1B78DBB299463B4B1B78DBB2984615E03A4B84
:401580001B78DBB29C4208D8384B1B78DBB29946374B1B78DBB2984607E0364B1B78DBB29946354B1B78DBB29846344B9F5D2F2F09D92A2C07D91922314B1A60052000F02F
:4015C0000BFC192503E02E4B1D683F231D40BD4206D92A4B9A5D2A4B1A60052000F0FCFB254B9C4664442378DBB2264A1360264B4A461A60254B42461A600520FFF760FF55
:40160000BD420AD21D4B9A5D1D4B1A60052000F0E3FB02E00020FFF77FFE5346012B01D1FFF7CCFE5B46012B01D1FFF7FBFD019800F0DFFB03B03CBC90469946A246AB46A6
:40164000F0BDC04640F3FF0F41F3FF0F42F3FF0F43F3FF0F44F3FF0F45F3FF0F46F3FF0F47F3FF0F48F3FF0F49F3FF0F4AF3FF0F4BF3FF0F4CF3FF0F4DF3FF0FA42A000000
:401680002CFF0B4028FF0B401CFF0B4020FF0B40034B1868C0231B02184000D00120704700010B40034B1B68002B01DA012000E0002070470000224010B500F096FB044AB3
:4016C0001368C02109020B43136000F092FB10BD00010B4010B500F088FB08490A68084B1A408024E40122430A600A6813408022120213430B6000F07CFB10BD00010B4070
:40170000FF3FFFFF70B5050000F06FFB0400FFF7BFFF002803D0FFF7DDFF012100E0002108482840084A1568084B2B40184310601368012901D1FFF7BFFF200000F059FBA2
:4017400070BDC0460404040010020B40FBFBFBFF10B5244B1B685B0715D5234B5B685B070ED5224B596A042001401F4C62688A4362605A6A82435A629B69002B00D09847E8
:401780000420FFF7BFFF174B1B685B0518D5164B5B685B0510D5154B596A8022D2001140114842688A434260596A114A0A405A62DB69002B00D098478020C000FFF7A2FF23
:4017C000084B1B685B030CD5074B5B685B0304D5064B1B6A002B00D098478020C002FFF791FF10BD10020B40D80000208C010020FFFBFFFF04490A68D2B240239A43800125
:4018000018401043086070470004044004490A68D2B210239A43000118401043086070470004044010B503211120FFF789FD43491120FFF773FD0322414B1A60414B1B683D
:40184000002B01DA404900E04049414A13680B431360404A404B1A60404A414B1A600023404A1360404A41490A6041490A60414A116880204002014311603F490A6802431E
:401880000A603E4A13603E4A136001223D4B1A603D4A11683D4B0B40802189050B431360002248E03A4891000C58DC239B0123408018007A03433748844661440B60E30786
:4018C00007D52E480168012393401B041B0C0B43036093002E495B589B0707D528480168012393401B041B0C0B4303609300284959588B0502D58020400001E0802040017F
:40190000CB0504D45300002423495C5203E05300002421495C52214B43438021C9008C466344D9174905490DCB18DB121BB290001B4943500132012AB4D910BD711A00002C
:4019400020003A4080033A40C0201010C020001000003A408C00008004003A400000FF0718003A401C003A400400040010003A4014003A4000033A4040033A4028023A40B0
:4019800038023A4018023A4030003A40FEFFFFDFD42A000080003A40AC02002010270000A402002010B5094B1B68002B0CDB084B1B68002BFBDB054A1368802109060B434A
:4019C00013600A20FFF77CFD10BDC04600003A4008023A4010B5064B1B78002B04D1FFF721FF0122024B1A70FFF7DCFF10BDC046B4010020034A1368802149020B43136063
:401A00007047C04604003A40024A1168024B0B401360704704003A40FFFFFEFF020083070CD0074B1B680120184001D19307F8D4002804D00122024B1A6000E000207047E0
:401A400010023A4010B50400012802D90020FFF763FC012C07D8A400044B9C46644420680004000C00E0002000B210BD80013A40014B1A681A60704710023A4010B50B2082
:401A8000FFF736FC10BDC04610B500F01DF810BD10B5044A1368802109060B431360FFF7EDFF10BD0000264010B5064B1B78002B04D1FFF7E9FF0122024B1A70FFF7E8FF22
:401AC00010BDC046B801002010B50024184B1C60184A194B1A60194B194A1360194A1460194A1460194A1360194B1C600B20FFF709FC03210B20FFF723FC16490B20FFF78A
:401B00000DFC154B1C60154B1C60154B1C60154B1C60154B1C60154B1C601022144B1A70144B1C80144B1C60144B1C6010BDC0460000264077080080600026400701008022
:401B400000032640040326401003264000022640040226404D1E0000C80E2640880E2640480F2640080F2640C80F2640880F2640B0020020C0020020D0020020B8020020AB
:401B800010B50E4A13685B005B08136000230C490B600C490B600C4804680C49214001600B490B600B490B6010210B4B19701368802109060B43136010BDC046000026402F
:401BC000680026406C00264060002640FF5CFFFF880F2640C80F2640B0020020014B18687047C046B802002010B50B20FFF78AFB074B1C88A2B21400064B1B789B0602D592
:401C000004231A4394B20B20FFF772FB200010BDC0020020B002002010B50B20FFF772FB044B1C88A4B200221A800B20FFF760FB200010BDC0020020054B1B6820221340A0
:401C400000D0082301221343024A13607047C0466400264068002640F0B583B001900C0017001D00002917D02A4B1B78102B08D10B20FFF747FB284B1B68DB070ED50826BB
:401C80000FE0244B1B78602B0AD1244A138808218B431380002604E0042602E0002600E00426002E2FD128221A4B1A7000231C4A13601C4A13601C4B1F601C4B1C60EAB253
:401CC0001B4B1A70019B5C00FF231C40134A138802218B4313804023164A13601649174A11601421FF31164A1160164A1360EB0704D5FFF7A1FF144B1C6004E0124B1C6099
:401D00000222124B1A600B20FFF7F2FA300003B0F0BDC046B002002064002640C0020020B4020020B8020020BC020020D4020020C8020020800F264017030000000F264095
:401D4000080F2640880F26404002264068002640014B1878C0B2704767000F4010B500F044F8044A117810230B43DBB2137000F040F810BD97000F40014B18647047C046FF
:401D80000000002010B5040000F02FF8044A1368C0218B43A4011C43146000F02AF810BD00E400E00122014B1A60704700E100E00122014B1A60704780E100E010B5040085
:401DC000FFF7F6FF2000FFF7D7FF0320FFF7DAFFFFF7E8FF10BDC0460230800803D00138FDD1C046C046C0467047EFF3108072B6704780F31088704770B50400FFF7F5FFE7
:401E00000500102C05D8104A136803218B43136016E0202C07D80C490B6803229343023A13430B600CE0302C07D807490B6803229343013A13430B6002E00020FFF76CFA2A
:401E40002800FFF7D6FF70BD3000104010B5AF4B1B68002B00D09847AD4B1B68DB0702D50022AC4B1A60AC4B1B789B0628D5AB4B1B68DB0507D5AA4A1188C0239B000B4329
:401E80001380012300E00023A44A1268D20706D5A34A118890239B000B4313800123002B0FD09D4A1278D20701D5012200E002229B49088802430A800021974A117000E07C
:401EC0000023954A1278920600D417E1934A1268D20611D51022934B1A608F4B1B78DB0701D5012300E002238D4A11880B4313801022894B1A7007E1874A1278120720D5D3
:401F0000864A126892070AD50222864B1A60844A118888239B000B431380012311E07E4A1278D20703D525217B4A117009E02421794A11707C4A1268002A02D014397B4A7E
:401F40001160754A1278520700D4AEE0724A1278D20749D5764A1268120727D5754A1268754909681F240C40744909686418141B082C09D8002C16D1714A1168714B0B402D
:401F80001360012308340EE008240CE06B4A11686D48006841186D480068C0B20870116801311160013C002CF0D119E0604A1268520715D5614A11686348006841186348BC
:401FC0000068C0B208701168013111601168594A1268914203D204215D4A116000E001235C495D4A116060E04C4A1268920726D502224C4B1A6059490B681D321A400968EF
:4020000080231B020B4000D001239B18544A1168CB1A13601268534B1A60414A118884239B000B431380504B1A68802149020A431A6019684D4A0A401A60012335E04C4A2B
:402040001268D2061ED427E0454A1168364A126891421DD2344A1268013A414909688A4204D1402243490A6030490A603C4A11684148006841180978C9B2404801601168A0
:4020800001311160354A12681F210A40082ADBD11021384A116008E0354A1268520604D52F4B1A682F4B1A600123002B2CD0244A1168244B0B4013600023314A13601B4A21
:4020C0001360304B1B789B070ED5134B1B78DB0701D5092300E00A23114A11880B43138060220D4B1A700FE0274B1B689B0601D5182200E01022164B1A6005E0064B1B7874
:40210000DB0601D4FFF73CFD10BDC046BC0100208C0E2640880E2640B00200200C0F2640C0020020000F2640BC020020880F2640CC0F2640CC02002008032640D0020020F7
:4021400060002640FFFEFFFFC40200204003264068002640ED0F0000C00F264008022640B4020020B802002004022640FFFFFEFF8C0F2640800F2640D402002040022640F5
:40218000C80F2640C80200206400264003460B437FD4002243088B4274D303098B425FD3030A8B4244D3030B8B4228D3030C8B420DD3FF22090212BA030C8B4202D3121268
:4021C000090265D0030B8B4219D300E0090AC30B8B4201D3CB03C01A5241830B8B4201D38B03C01A5241430B8B4201D34B03C01A5241030B8B4201D30B03C01A5241C30A70
:402200008B4201D3CB02C01A5241830A8B4201D38B02C01A5241430A8B4201D34B02C01A5241030A8B4201D30B02C01A5241CDD2C3098B4201D3CB01C01A524183098B422D
:4022400001D38B01C01A524143098B4201D34B01C01A524103098B4201D30B01C01A5241C3088B4201D3CB00C01A524183088B4201D38B00C01A524143088B4201D34B00C6
:40228000C01A5241411A00D201465241104670475DE0CA0F00D04942031000D34042534000229C4603098B422DD3030A8B4212D3FC22890112BA030A8B420CD3890192113B
:4022C0008B4208D3890192118B4204D389013AD0921100E08909C3098B4201D3CB01C01A524183098B4201D38B01C01A524143098B4201D34B01C01A524103098B4201D39D
:402300000B01C01A5241C3088B4201D3CB00C01A524183088B4201D38B00C01A5241D9D243088B4201D34B00C01A5241411A00D20146634652415B10104601D34042002B1B
:4023400000D54942704763465B1000D3404201B5002000F005F802BD0029F8D016E770477047C046014B18687047C046400100200E4B70B500251E000D4CE41AA410A5425C
:4023800004D0AB00F35898470135F8E700F0A8FB084B00251E00084CE41AA410A54204D0AB00F35898470135F8E770BDEC2A0000EC2A0000EC2A0000F42A0000002310B516
:4023C0009A4203D0CC5CC4540133F9E710BD03008218934202D019700133FAE7704700000000000000300F40000800400F400008816F830F856F860F871F0006059E0608EE
:40240000076009FD0B02170F180319301BC921CF23302406280529732D942F60300831FF340738203F014024410349FF4AFF4BFF4DA04F015018580459045A045F016040B4
:40244000628064406540668068406A806C406D206E8088018D189102950C980399149A0C9C08A003A720A918AF03B001B101B202B320B408B51CB604B702B80AB920BE116D
:40248000BF40C024C103C543C6C2C70EC81FC9FFCAFFCBFFCDAFCE07CF01D018D40FD804D904DA04DB04DF05E040E280E440E540E680E840EA80EC40ED20EE800102021009
:4024C00005200A040E020F0810041104168019201A8C1B011C601D021E0A208024102602270A29222B012E802F24331836223708380839243D804044430C452247044C80D3
:402500004F0856A85E485F2266287E0486108A808B20C04CC2C2C416CA7DCCE6CE16D0E7D6F0D860DE20E20201940208036004C00624070F088409300A100BC90D9E0F6013
:4025400014B71573164019FD1A071B021C011EF220C12212247729CF2B3031FF32F0340F3F01580459045F018208830184088564871889788A218B048D018E10900292048F
:402580009401962E9707980E99189B609C619F80A14CA240A330A402A604A80EA93CAD48AF30B040B102B21EB37CB401B501B620B780BE51BF10D280D40FD804D904DB0490
:4025C000DF0100A0010203100410062007400AA40B010E2910841104140415201680170819901A601B081C081E081F04200421282341274029222B012E202F04308031085C
:40260000331036303708380A39203B403C183D803E9159905A045B01700185108701901091049284940C95209640970899209B089C049D029F10A0D0A301A560A620A7287E
:40264000C07FC2EFC43ECA2DCC6ECEFFD60F00CC0101022104CC052806120714093C100812F11480161F1877191C1D0C1F302130230C24BB264429142B282F0330F0310122
:40268000340F353C37023F014043410649FF4AFF4BFF4DA04F015018580459045A045F016040628064406540668068406A806C406D206E8083038C08980399029A0C9C032D
:4026C000A401AF04B002B201B304B408B501B604B702B80ABE14BF40C043C106C523C6C4C70EC81FC9FFCAFFCBFFCDAFCE07CF01D018D40FD804D904DA04DB04DF05E04035
:40270000E280E440E540E680E840EA80EC40ED20EE80010203200540081409040A840F0A130415041708180819021B201C101D481E081F012110234525042610271228041B
:4027400029022A402E40301032403610380839203B013F0240104302450A48044A084E084F0A56585D105E085F4266187D0482408510870192949408952096019A209B08AC
:402780009D029F10A004A540A620AF20C08CC2CEC424CA1DCC2CCE87D0C3D224D6F0D860DE40E2040138020103C1044C0630081809CC0A600B310C640DAC0E180F52140144
:4027C000157719FB1A071B041C481E3020782204243C29502A802BAF30013202347C35F03680370F3E015280540F580459045B045F018008830286028C049401950499021C
:402800009E02A002A501AD02B008B204B302B401B504B602B701BE40BF04D604D804D904DB04DF0100080202039005200620074208080B020E2912401301150116081708AD
:4028400019951D021E291F022014228025402620270229082A402D202E1030083310362037083B023D803E2159155A405C105D815E025F08628063807740820883C08408FC
:4028800085088A028C0C8E619210930396019A209B08A004A542A620A702C0FDC2E5C478CA2ACC66CEB1D6FFD809E202E60C6B10DA40030806029F10C0C09F10A308AE02A0
:4028C000EC1083189F10A308E220E480008004208440C00390208010902006100A200B020C080F0283018610870188088E10C004C20FE202E60401011001120105000F4047
:4029000061300F4036310F404D320F4046330F4062340F4049350F4040360F4045370F4002400F4004410F4004420F4005430F4004440F4001450F4002460F400E470F4071
:4029400003600F40000000000800880000000000010000000800880000000000020000000800880000000000030000000800880000000000040000000800880000000000CB
:4029800005000000080088000000000006000000080088000000000007000000080088000000000000000000A8008000FFFFFFFF0000000001000000A8008000FFFFFFFF0C
:4029C0000000000002000000A8008000FFFFFFFF000000000300000000000000000000000000000004000000000000000000000000000000050000000000000000000000A5
:402A00000000000006000000000000000000000000000000070000000000000000000000000000000800000000000000000000000000000009000000000000000000000078
:402A4000000000000A0000000000000000000000000000000B0000000000000000000000000000000C0000000000000000000000000000000D000000000000000000000028
:402A8000000000000E0000000000000000000000000000000F000000000000000000000000000000030405060708090A0B0C0E0F101112131415161718191B1C1D1E1F2013
:402AC00021222325262728292A2B2E2F3031323334350000000000000000000006074300F8B5C046F8BC08BC9E467047B1020000A10A0000F8B5C046F8BC08BC9E46704792
:402B000089020000182B0000C000002088000000900100000000000000000000010000000000C05D80BB000030000000006CDC02F0000000040404000000000000000000FF
:402B4000000000000000000000000000000000000000000000000000DE2A00000000000000000000000000000000000000000000000000000000000000000000000000004D
:402B8000000000000000000000000000000000000000000000000000E000002000000000000000000000000000000000000000000000000000000000000000000000000015
:402BC00000000000000000000000000000000000000000000000000000000000000000000000000000000000000000000000000000000000000000000000000000000000D5
:402C00000000000000000000000000000000000000000000000000000000000000000000000000000000000000000000000000000000000000000000000000000000000094
:402C40000000000000000000000000000000000000000000000000000000000000000000000000000000000000000000000000000000000000000000000000000000000054
:402C80000000000000000000000000000000000000000000000000000000000000000000000000000000000000000000000000000000000000000000000000000000000014
:020000040003F7
:0200000490303A
:020000007C5E24
:0200000490402A
:4000000000000000000000000000000000000000000000000000000000000000000000000000000000000000000000000000000000000000000000000000000000000000C0
:400040000000000000000000000000000000000000000000000000000000000000000000000000000000000000000000000000000000000000000000000000000000000080
:0200000490501A
:0C0000000002101111A00001101E8DFE66
:0200000490600A
:0100000001FE
:00000001FF