:400000000040002011000000090600000906000010B500F001FBC04610B512221C4B1A60302000F08DFF1B4A1B4B1A6000241B4B1C601B4B1B4A1A60CE21C9011A4A1160B6
:400040001A4A1A60E822520119490A601949196019490A60194A1A6080221206184B1A608022D202174B1A604322174B1A60023A164B1A600132164B1A601649082000F02F
:4000800083FE082000F06AFE134B1C6010BDC046300010400600008004010B40000301400000014040FF00800C03014043FF00800403014041FF00800803014042FF0080D1
:4000C00008010B4000010B404C0101401401014008010140BD1100000C020B4070B572B600240FE035486200131959000B00411889881A5AC31858880004104300F07EFAE4
:400100000134E4B2012CEDD92C490C312C48383000F04AFA802252002A4B1A80FF3A2A4B1A70EE23294A13603021294A1160EE210902284A1160AA21274A1160274A13604A
:4001400099231B04264A13602649274A116080218902264A1160A221C903254A1160254A1360254A136025490B783C22934314221343DBB20B70224A117816230B43DBB26E
:40018000137003221F4B1A6024231F490B6002201E49086031211E4C2160D8252D011D4C25601D4C20601D4801601D490A601D4A1360FFF731FF00F011FA70BD5413000044
:4001C000D415000000600F4002600F40000102400002024000030240000402400006024010500F400400990020500F4024500F4028500F4050500F4070500F4001700F4009
:4002000000700F4000010440080104400002044008020440080304400004044008040440000604400806044010B5064C2378002B07D1054B002B02D0044800E000BF012345
:40024000237010BD480100200000000050130000084B10B5002B03D00749084800E000BF07480368002B00D110BD064B002BFBD09847F9E7000000004C01002050130000A4
:40028000C000002000000000F8B504000D0000F045FC0F2020401A4E30603F212940194B1960194C00252570800108434005E060164FA760164B1B686360200000F0FAFABB
:4002C00001232370E560A760124B1B686360200000F0F0FA022323703368DB06FC22D2041343E360A7600C4B1B686360200000F0E1FA00F0DBF909491C2000F045FDF8BDD5
:40030000B4010020C8010020B8010020FFFF1F80A0002E40C0002E40E0002E40B9030000104B1878C0B2002819D15A78D2B29B78DBB29A4205D20B4A93785078181AC0B25F
:400340000EE0084B5A78D2B29B78DBB29A4207D9044A93785078181A1030C0B200E010207047C04664010020124A93780133DBB293709378DBB20F2B02D900220D4B9A70D7
:400380000C4B1B78002B0BD00A4A53780133DBB253705378DBB20F2B02D90022054B5A70044A537891785B1A59424B41DBB213707047C0466401002070B580225201444B48
:4003C0001A60444B1B68DA0706D49A0706D45A0706D41B0706D406E0002404E0012402E0022400E003243C4B9A78D2B264013B4B9C4664442368DB0202D46168490D02E011
:400400006168C90889B2364B500082189000C152314A9178C9B22068000C0F2528404D0069188D005D19A8709178C9B2A5682D0E4800411888001818C5709178C9B2A068DB
:40044000000CC0B24D0069188D005D1928719178C9B2A068000AC0B24D0069188D005D1968719178C9B2A568EDB2480041188800181885719178C9B2E5682D0E48004118B6
:4004800088001818C5719178C9B2E068000CC0B24D0069188D005D1928729178C9B2E068000AC0B24D0069188D005D1968729278D2B2E068C0B251008A1891005B1898725D
:4004C000FFF752FF226801231343236070BDC04600002E4008002E4064010020A0002E40CC01002010B5FFF71BFF00280BD0064A53780133DBB253705378DBB20F2B02D9B3
:400500000022014B5A7010BD6401002010B582B0041E17D0FFF704FF6B46D87107331B78002B11D00A4B5B78DBB25A00D3189900084B59180C22200000F0F8FEFFF7D2FF13
:40054000002002E0022000E0022002B010BDC04664010020CC01002080797047C0787047407970470079704710B501210720FFF78BFE00242000FFF7C9FF0028F9D120007E
:40058000FFF7ECFF0D2802D0F52808D0F1E700242000FFF7E7FF2000FFF7E2FFE9E700242000FFF7D9FFE4E7F0B50025002711E0BB00C658F3B2FF22964308E06A008A1874
:4005C0001478A419527822700135013BDBB2002BF4D10137072FEBD9F0BDC0460323044A1360044A13600022034B1A607047C0463000304030003140000E3F4010B50A0096
:40060000002100F09CFE10BD10B500F063FE03680C2B00D1FEE7FEE770B50F4E0F4D13E029686B68AC68002202E001C901C30432A242FAD1E868002202E0002102C30432BF
:400640008242FAD11035013E002EE9D100F048FEFFF78AFFFEE7C04601000000E017000010B50E4A136801218B43136000230AE0032B03D89A000A49505800E00948990077
:40068000094A885001332F2BF2D9FFF727FD034A116801230B43136010BDC04600001040000000000906000000000020054B1A6801210A431A601B68194201D1012000E033
:4006C0000020704704002E4010B50E4A0E4B1A60FFF7ECFF1C2000F041FB0C4A116801230B431360C02300E0013B002B03D0074A1268D207F8D5002B01D1012000E0002038
:4007000010BDC0460112000000002E4010002E4003B2002B0DDB094A1168094B0B400004034313601268074B1340984203D0012002E0022000E000207047C04614002E40C7
:40074000FFFF00800000FF7F002809D10C4B19680C4A0A401A601B68DB040CD501300DE0074B1A68802149010A431A601B680B4203D1012002E0002000E000207047C0461E
:4007800014002E40FFEFFFFF70B5841EE4B20D2C35D88C1EE4B2052C03D9002B31D1012931D1032A31D8904231D3914231D31C4D2C68240AE4B20F26B44320432E68194C54
:4007C0003440000204432C602C686040F0242401204220D1002B00D002234901C9B29200D2B2114319430E4A1368EE2083430B4313601368034099420FD0ED380EE0022030
:400800000CE002200AE0022008E0022006E0022004E0022002E0012000E0002070BDC04614002E40FFF0FFFF002809D10B4B1A6810218A431A601B6819420BD001300CE0B9
:40084000064B1A6810210A431A601B68194203D1012002E0002000E00020704714002E40002809D10B4B1A6801218A431A601B6819420BD001300CE0064B1A6801210A4344
:400880001A601B68194203D1012002E0002000E00020704714002E40054B18601B681B041B0C984201D0012000E000207047C04604002E4010B503785B01204A944663449D
:4008C0001F4A41680A431A6003785B01634419681C4A11401C4A44682240914224D182681A6103785B0163441A6981688A421DD1C2685A6103785B0163445A69C1688A4209
:4009000016D1012252429A6103785B0163449A6901320FD10022DA6103785B016344DB69002B09D0012008E0012006E0012004E0012002E0012000E0002010BDA0002E4053
:40094000800080007F007F007FFF7FFF10B503781B01104A944663440F4A41680A431A6003781B01634419680C4A11400C4A4468224091420AD182685A6003781B01634423
:400980005A6883689A4203D0012002E0012000E0002010BD20002E4008008000F7007F00F7FF7FFF70B500240AE063001B199800104B1818FFF7CAFF002805D10134E4B275
:4009C000072CF2D9002500E00125002D0BD00FE0230108486030C018FFF76CFF002806D10134E4B200E000240F2CF1D900E00125280070BD2C160000002809D10C4B196850
:400A00000C4A0A401A601B689B040CD501300DE0074B1A68802189010A431A601B680B4203D1012002E0002000E000207047C04614002E40FFDFFFFF10B580221206334BD6
:400A40001A60334A136801218B431360A0231B0100E0013B002B03D02D4A1268D207F8D4002B49D01C2000F083F92A491C2000F08BF903211C2000F099F90020FFF748FEC5
:400A8000002819D1FFF760FE002817D1FFF7B4FF002815D10023002201210C30FFF774FE00280FD1FFF7C0FE00280DD1FFF7D8FE00280BD001230AE0012308E0012306E049
:400AC000012304E0012302E0012300E00023002B14D1FFF767FF002812D10F48FFF7DCFE00280FD10A4B1A6807218A431A601B68194209D0013008E0012006E0012004E0F9
:400B0000012002E0012000E0002010BD00042E4010002E40450B00000112000010B5084B1B78002B02D1FFF787FF00E00020002804D10122024B1A70FFF7C6FD10BDC046C9
:400B4000680100207047C046074B1B78272B05D8064B1B78DBB2064A136004E0054B1B78DBB2034A1360704702F3FF0F42F3FF0F20FF0B40C1F1FF0F00230AE0204A1268BB
:400B80003F210A401F49C95C8A4201D1033303E001332D2BF2D903231B4A12781B2A16D8302B05D1194B1B78DBB2194A136006E0182B04D1174B1B78DBB2154A136016496C
:400BC0000B681F229343173A13430B6016E0302B05D1124B1B78DBB20D4A136006E0182B04D10F4B1B78DBB2094A13600A4A13681F218B430B4909780B4313607047C0467D
:400C00002CFF0B408C17000002F3FF0F3FF3FF0F28FF0B403EF3FF0F34FF0B40C3F1FF0FC2F1FF0FC0F1FF0F00230AE00D4A12683F210A400C49C95C8A4201D1033303E02E
:400C400001332D2BF2D9032308490868084A02400A60084A944663441B78DBB2064A13607047C0462CFF0B408C17000000002240FFFFFFBF4DF3FF0F28FF0B40034B186800
:400C80008023DB05184000D0012070470000224010B50B4A136801218B431360094B1A68094B1A60094A12685A60FFF765FFFFF74BFF074A116802230B43136010BDC0460F
:400CC00050000C4034FF0B406C01002020FF0B4024002C4030B500230AE0134A12683F210A401249C95C8A4201D1033303E001332D2BF2D903230E490A68022082430A6012
:400D00000C4C21681F2291430B4805682A400A4322604168094A1160094A944663441B78DBB2084A136030BD2CFF0B408C17000024002C4034FF0B406C01002020FF0B4093
:400D40004DF3FF0F28FF0B40034B1B680220184000D001207047C04624002C401F2318401E3B8340014A13607047C04600E100E01F2318401E3B8340014A13607047C04607
:400D800080E100E001BE704770B504000D001F2802D90020FFF7F6FF1034A40080239B059C4664442068256070BDC04670B504000E00032902D90020FFF7E4FF1F2C02D9C7
:400DC0000020FFF7DFFF03252540ED00063500F050FAA408A400074B9C46644421680323AB4099430B003100A9401943216000F044FA70BD00E400E010B5040006E0084B4B
:400E0000586800F02DFA074B9C46644480231B029C42F4D8024B9868604300F021FA10BDC40000200080FFFF70B582B000F070F9002862D000F01DFA0500314A116801233D
:400E40000B43136000230AE02E4A12683F210A402D49C95C8A4201D1033303E001332D2BF2D903230021294A1160294A1268D20606D1274802681F318A4313390A430260A7
:400E8000244C2168244A1140244A5A438023DB019C466244D20B013A5205520D0B001343A0225203134323601D4B1B680193302000F0E6F91B4A13688021C9050B4313609B
:400EC0002668194B1E40002407E00120FFF794FF1034A30533430F4A1360EE2CF5D90120FFF78AFFFF239B051E430A4B1E60019A0B4B1A60280000F0C0F902B070BDC04620
:400F000050000C402CFF0B408C17000028FF0B4034FF0B400800224000F800C040420F003000104000002240FFFF3FC010B5034B1B7B584300F094F910BDC046C400002002
:400F4000F0B55F4656464D464446F0B483B0040000F08FF90190FFF791FE002804D0FFF763FE01239A4601E000239A46FFF7ECFE002808D0182C01D0302C07D1FFF7AAFE03
:400F800001239B4604E000239B4601E000239B46E61E2D2E74D8464B1B78DBB29C4208D8444B1B78DBB29946434B1B78DBB2984631E0424B1B78DBB29C4208D8404B1B7891
:400FC000DBB299463F4B1B78DBB2984623E03E4B1B78DBB29C4208D83C4B1B78DBB299463B4B1B78DBB2984615E03A4B1B78DBB29C4208D8384B1B78DBB29946374B1B789A
:40100000DBB2984607E0364B1B78DBB29946354B1B78DBB29846344B9F5D2F2F09D92A2C07D91922314B1A60052000F019F9192503E02E4B1D683F231D40BD4206D92A4BE6
:401040009A5D2A4B1A60052000F00AF9254B9C4664442378DBB2264A1360264B4A461A60254B42461A600520FFF760FFBD420AD21D4B9A5D1D4B1A60052000F0F1F802E00A
:401080000020FFF77FFE5346012B01D1FFF7CCFE5B46012B01D1FFF7FBFD019800F0EDF803B03CBC90469946A246AB46F0BDC04640F3FF0F41F3FF0F42F3FF0F43F3FF0F55
:4010C00044F3FF0F45F3FF0F46F3FF0F47F3FF0F48F3FF0F49F3FF0F4AF3FF0F4BF3FF0F4CF3FF0F4DF3FF0F8C1700002CFF0B4028FF0B401CFF0B4020FF0B40034B1868E8
:40110000C0231B02184000D00120704700010B40034B1B68002B01DA012000E0002070470000224010B500F0A4F8044A1368C02109020B43136000F0A0F810BD00010B40EA
:4011400010B500F096F808490A68084B1A408024E40122430A600A6813408022120213430B6000F08AF810BD00010B40FF3FFFFF70B5050000F07DF80400FFF7BFFF0028F2
:4011800003D0FFF7DDFF012100E0002108482840084A1568084B2B40184310601368012901D1FFF7BFFF200000F067F870BDC0460404040010020B40FBFBFBFF10B5244BFD
:4011C0001B685B0715D5234B5B685B070ED5224B596A042001401F4C62688A4362605A6A82435A629B69002B00D098470420FFF7BFFF174B1B685B0518D5164B5B685B05A0
:4012000010D5154B596A8022D2001140114842688A434260596A114A0A405A62DB69002B00D098478020C000FFF7A2FF084B1B685B030CD5074B5B685B0304D5064B1B6AFF
:40124000002B00D098478020C002FFF791FF10BD10020B40D80000208C010020FFFBFFFF0230800803D00138FDD1C046C046C0467047EFF3108072B6704780F31088704775
:4012800070B50400FFF7F5FF0500102C05D8104A136803218B43136016E0202C07D80C490B6803229343023A13430B600CE0302C07D807490B6803229343013A13430B6001
:4012C00002E00020FFF75EFD2800FFF7D6FF70BD30001040014B18687047C046400100200E4B70B500251E000D4CE41AA410A54204D0AB00F35898470135F8E700F05EFA58
:40130000084B00251E00084CE41AA410A54204D0AB00F35898470135F8E770BDC8170000C8170000C8170000D0170000002310B59A4203D0CC5CC4540133F9E710BD030000
:401340008218934202D019700133FAE7704700000000000000300F40000800400F400008840F857286380404060108070901100112061402162118071E08201026083007F9
:4013800031013210340836203E143F015401580459045B045F0180738110820C840C8508881F89188A608C018D60905C91E792239318947F9763980299409C039D24A11C8C
:4013C000A3E2A51CA663A7E1A804A9FFAC08AF04B00FB11FB210B42CB580B64CB760B920BA22BB0ABE04C001C604C9FFCA07CBFFCC40CD20CEF0CF05D008D602D711D804B3
:40140000D904DA04DB04DF01E040E1A8E240E320031404020551062009440A440C100D0A0E100F0212A01606170819A41A401B031C011D111E201F202340250A26202702E3
:401440002C402D802E102F2034103541371838203E6A4440458254405610582259045A805E20600262806E046F05762EC0F6C2FFC4ECCAF0CCF0CEF4D010D62F021005130D
:40148000084C0A030D010E080F0A11101513161019021B091C611E0E220C262328612A062F043010310C3303340F3510366038803A203E413F01405641034202440146CEBB
:4014C000480C49FF4AFF4BFF4C624DA04EF04F41500C5418580459045A045B045F016640670269106A306B106D106E106F128014830884DC85038622871489408B158C104E
:401500008D338E408F04900C927195339603970C990A9B349C099ED0A620A810AAACB0E0B160B21FB30FB710B902BA02BB08BF40C032C105C5ECC60BC807C9FFCAFFCBFFF6
:40154000CEF0CF44D00CD804D904DA04DF01E6C0EA40EB020084024104010510068108200A520B040E020F221210132015021610172018A01A501B011C041D901F01210534
:4015800022452320240827582F02311032043715388039223A103B043E043F8041144508460447404A814B044C055240554057105F02652067028284900392049420968091
:4015C00099209A109B079C209F18A040A108A342A5C0A680A904AB40AD40B340C0DDC2ADC476CA10CCE6CE5FD076D238D680D830EA20028003105310C010D420AB10AE80A6
:40160000B310E820EC1012011301000003000F4055340F4036350F406C360F404F370F4005420F4005430F4002600F40000000000800880000000000010000000800880013
:401640000000000002000000080088000000000003000000080088000000000004000000080088000000000005000000080088000000000006000000080088000000000086
:4016800007000000080088000000000000000000A8008000FFFFFFFF0000000001000000A8008000FFFFFFFF0000000002000000A8008000FFFFFFFF000000000300000021
:4016C00000000000000000000000000004000000000000000000000000000000050000000000000000000000000000000600000000000000000000000000000007000000D4
:4017000000000000000000000000000008000000000000000000000000000000090000000000000000000000000000000A0000000000000000000000000000000B00000083
:401740000000000000000000000000000C0000000000000000000000000000000D0000000000000000000000000000000E0000000000000000000000000000000F00000033
:40178000000000000000000000000000030405060708090A0B0C0E0F101112131415161718191B1C1D1E1F2021222325262728292A2B2E2F3031323334354300F8B5C04643
:4017C000F8BC08BC9E4670475102000061060000F8B5C046F8BC08BC9E46704729020000F0170000C0000020880000004801000000000000010000000000C05D80BB00001A
:4018000030000000006CDC02F0000000040404000000000000000000000000000000000000000000000000000000000000000000BA17000000000000000000000000000061
:40184000000000000000000000000000000000000000000000000000000000000000000000000000000000000000000000000000E000002000000000000000000000000068
:401880000000000000000000000000000000000000000000000000000000000000000000000000000000000000000000000000000000000000000000000000000000000028
:4018C00000000000000000000000000000000000000000000000000000000000000000000000000000000000000000000000000000000000000000000000000000000000E8
:4019000000000000000000000000000000000000000000000000000000000000000000000000000000000000000000000000000000000000000000000000000000000000A7
:401940000000000000000000000000000000000000000000000000000000000000000000000000000000000000000000000000000000000000000000000000000000000067
:020000040001F9
:0200000490303A
:0200000071721B
:0200000490402A
:4000000000000000000000000000000000000000000000000000000000000000000000000000000000000000000000000000000000000000000000000000000000000000C0
:0200000490501A
:0C0000000002100B11A00001101283126E
:0200000490600A
:0100000001FE
:00000001FF