:400000000080002011000000250B0000250B000010B500F08FFDC04610B51222214B1A60302001F0C5FA204A204B1A600024204B1C60204B204A1A602049214A1160214A30
:400040001A60E021C900204A1160204A1A60E82149011F4A11601F4A1A60882189011E4A11601E4A1A60822212061D4B1A608022D2021C4B1A60C0221B4B1A607F3A1B4BA9
:400080001A6001321A4B1A6001321A4B1A601A49082001F0B1F9082001F098F9174B1C6010BDC046300010400600008004010B40000301400000014040FF008000FF52072F
:4000C00000050140C0FF00800403014041FF00800803014042FF00800C03014043FF008008010B4000010B404C01014028010140100101400C0101402D1800000C020B407E
:4001000010B572B601223D4B1A7000240FE03C486200131959000B00411889881A5AC31858880004104300F0C5FC0134E4B2012CEDD933490C313348183000F0A1FCAA22E0
:40014000314B1A60113A314B1A60EE221202304B1A60EE222F4B1A6099231B042E4A13602E4A13602E4A13602E4A13602E4A13602E4A13602E4A2F4B1A602F4A2F4B1A60F5
:4001800001232F4A13602F4A13602F490B783C22934314221343DBB20B702C4A117816230B43DBB213700222294B1A60294A2A4B1A60313A294B1A60C13AFF3A284B1A60FC
:4001C000C223284A13603121274A1160274A1360F222274B1A60274A274B1A60DB225203264B1A600322264B1A602132254B1A60FFF712FF00F074FC10BDC0461C700F4021
:400200001C4200001C4700000000024000020240000302400005024000500F4010500F4020500F4040500F4050500F4070500F4004040444D8300F4004040484D8340F406F
:400240002000104000800F4001700F4000700F40000004407102000008000440080104401801044000020440080204401802044000030440902D4900080304400804044035
:40028000000504400805044010B5064C2378002B07D1054B002B02D0044800E000BF0123237010BD480100200000000018420000084B10B5002B03D00749084800E000BF1B
:4002C00007480368002B00D110BD064B002BFBD09847F9E7000000004C01002018420000C000002000000000F8B504000D0000F0A3FE0F2020401A4E30603F212940194BCB
:400300001960194C00252570800108434005E060164FA760164B1B686360200000F058FD01232370E560A760124B1B686360200000F04EFD022323703368DB06FC22D20433
:400340001343E360A7600C4B1B686360200000F03FFD00F039FC09491D2001F04DF8F8BDC4010020D8010020C8010020FFFF1F80A0002F40C0002F40E0002F4071040000EF
:4003800010B586B0002815D0038802AC02930023237163718278A271E3716B460593C11C0822684603F026FF200000F05BFE002802D102E0022000E0012006B010BDC04673
:4003C000014B18787047C046D8010020014B18787047C046C4010020104B1878C0B2002819D15A78D2B29B78DBB29A4205D20B4A93785078181AC0B20EE0084B5A78D2B272
:400400009B78DBB29A4207D9044A93785078181A1030C0B200E010207047C04664010020124A93780133DBB293709378DBB20F2B02D900220D4B9A700C4B1B78002B0BD0BD
:400440000A4A53780133DBB253705378DBB20F2B02D90022054B5A70044A537891785B1A59424B41DBB213707047C0466401002070B580225201444B1A60444B1B68DA070A
:4004800006D49A0706D45A0706D41B0706D406E0002404E0012402E0022400E003243C4B9A78D2B264013B4B9C4664442368DB0202D46168490D02E06168C90889B2364B67
:4004C000500082189000C152314A9178C9B22068000C0F2528404D0069188D005D19A8709178C9B2A5682D0E4800411888001818C5709178C9B2A068000CC0B24D00691825
:400500008D005D1928719178C9B2A068000AC0B24D0069188D005D1968719178C9B2A568EDB2480041188800181885719178C9B2E5682D0E4800411888001818C57191784A
:40054000C9B2E068000CC0B24D0069188D005D1928729178C9B2E068000AC0B24D0069188D005D1968729278D2B2E068C0B251008A1891005B189872FFF752FF226801239E
:400580001343236070BDC04600002F4008002F4064010020A0002F40DC01002010B5FFF71BFF00280BD0064A53780133DBB253705378DBB20F2B02D90022014B5A7010BDCF
:4005C0006401002010B582B0041E17D0FFF704FF6B46D87107331B78002B11D00A4B5B78DBB25A00D3189900084B59180C22200003F000FEFFF7D2FF002002E0022000E049
:40060000022002B010BDC04664010020DC01002070B504001E00012000F022F820800823A370E51CF621280000F028F82418E670421C0499280000F033F870BD8079704744
:4006400070B504001D00002000F00AF820800423A370E01C092100F011F82418E57070BD80028023DB0018408901403B194001433F200240114308007047C04610B50400EE
:400680000170FFF7A3FE6070FFF79AFEA070032010BDC0464079704700797047C078704710B50B0E8354531C0C14C454931C0C12C4540332815410BD407970470079704787
:4006C0004079704780797047272070470020704710B5431C642B06DC0303181A642101F0CBFF273007E00303181A642101F0C4FF024B9C466044C0B210BDC04627F0FFFF1C
:4007000010B5431C642B06DC0303181A642101F0B3FF273005E00303181A642101F0ACFF27300012C0B210BD70B505000C0001F0E1FA002302222900200001F0FBFA0028E7
:400740000DD101F0BFFA8307FBD501F0BBFA830507D401F0B1FA022805D0FF2004E0FF2002E0FF2000E0002070BDC04600B583B001F008FA01F0FAF901A8002303708033EC
:4007800043704021FFF7D0FF03B000BD00B583B001AB1870597040211800FFF7C5FF03B000BDC04670B50D008000C4B2A61DF6B2FFF78AFF01003000FFF7E8FFFFF786FFC7
:4007C0000100E31DD8B2FFF7E1FF2800FFF780FF010023000833D8B2FFF7D8FF2800FFF78FFF01000934E0B2FFF7D0FF70BDC04610B501F01BFB03230340054C0122022105
:400800002000FFF71DFF2000FFF7BAFD10BDC0469C020020F8B562B601F00EFB364801F03BFB01210720FFF75FFD01F041F9FFF79DFF01F06BFB01F0A9FB00242000FFF746
:40084000C1FE0028F9D12000FFF728FF0E2819D0F52837D00D2844D10C3801F045F8FA20400000F001FE002001F03EF82000FFF725FF05002000FFF71FFF0100280000F06F
:400880007FF8DAE7012001F02FF8FA20400000F0EBFD002001F028F800242000FFF70EFF05002000FFF708FF07002000FFF708FF06002000FFF706FF01003B003200280020
:4008C00000F082F8012001F00FF8FA20400000F0CBFD002001F008F80024200000F01CF8ABE7002000F0F4FFFA20400000F0BCFD012000F0EDFFA0E7F107000010B504002D
:4009000001F0E6F8022001F0F7F801F0EBF8200001F006F980B210BDF0B587B00400FFF78DFE05002000FFF7B7FE06002000FFF7B1FE0400162D02D0172D04D007E00020CF
:40094000FFF7DCFF04E00120FFF7D8FF00E0002000902B002200310003A8FFF759FE03A8FFF70EFD002809D0002000F0B1FFFA20400000F079FD012000F0AAFF07B0F0BD83
:4009800070B50400B32900DDB321002900DC0121042C18D8012C0BD0022C01D0002C03D1B3235220712506E0AC236320662502E0CD23A42048254843190001F05DFE29185E
:4009C0002000FFF7EFFE70BDF0B585B00600039114001F00032802D0042810D002E0002529200EE0002000F073FFFA20400000F03BFD012000F06CFF0125002001E000250D
:400A0000142003F06BFB00900191200003F066FB009A019B02F05EFD0022164B02F044FA002C10D0039B002B06D102000B000020114902F0C9FF06E0039B012B03D10022CA
:400A40000E4B01F005FF002D05D103F011FB01003000FFF7A7FE032E03D101F02BFA8742FBDC042E03D101F065FA8742FBDC05B0F0BDC04600005940002063400040634002
:400A8000F0B50025002711E0BB00C658F3B2FF22964308E06A008A181478A419527822700135013BDBB2002BF4D10137112FEBD9F0BDC04610B50A00002103F0A4FB10BD16
:400AC000064B1B68002803D080221206134301E05B005B08014A13607047C04680033A4010B50323094A1360094A136080221206084B1A60C023084A1360084A1360002273
:400B0000074B1A600120FFF7DBFF10BD300030403000314000003A4000033A4040033A40000E3F4010B503F039FB03680C2B00D1FEE7FEE770B50F4E0F4D13E029686B684B
:400B4000AC68002202E001C901C30432A242FAD1E868002202E0002102C304328242FAD11035013E002EE9D103F01EFBFFF752FEFEE7C04601000000C049000010B50E4A1B
:400B8000136801218B43136000230AE0032B03D89A000A49505800E009489900094A885001332F2BF2D9FFF7ABFA034A116801230B43136010BDC0460000104000000000F5
:400BC000250B000000000020054B1A6801210A431A601B68194201D1012000E00020704704002F4010B50E4A0E4B1A60FFF7ECFF1D2000F0EBFB0C4A116801230B43136057
:400C0000C02300E0013B002B03D0074A1268D207F8D5002B01D1012000E0002010BDC0460112000000002F4010002F4003B2002B0DDB094A1168094B0B4000040343136064
:400C40001268074B1340984203D0012002E0022000E000207047C04614002F40FFFF00800000FF7F002809D10C4B19680C4A0A401A601B68DB040CD501300DE0074B1A681E
:400C8000802149010A431A601B680B4203D1012002E0002000E000207047C04614002F40FFEFFFFF70B5841EE4B20D2C35D88C1EE4B2052C03D9002B31D1012931D1032A19
:400CC00031D8904231D3914231D31C4D2C68240AE4B20F26B44320432E68194C3440000204432C602C686040F0242401204220D1002B00D002234901C9B29200D2B211439B
:400D000019430E4A1368EE2083430B4313601368034099420FD0ED380EE002200CE002200AE0022008E0022006E0022004E0022002E0012000E0002070BDC04614002F4057
:400D4000FFF0FFFF002809D10B4B1A6810218A431A601B6819420BD001300CE0064B1A6810210A431A601B68194203D1012002E0002000E00020704714002F40002809D182
:400D80000B4B1A6801218A431A601B6819420BD001300CE0064B1A6801210A431A601B68194203D1012002E0002000E00020704714002F40054B18601B681B041B0C9842E6
:400DC00001D0012000E000207047C04604002F4010B503785B01204A944663441F4A41680A431A6003785B01634419681C4A11401C4A44682240914224D182681A6103789F
:400E00005B0163441A6981688A421DD1C2685A6103785B0163445A69C1688A4216D1012252429A6103785B0163449A6901320FD10022DA6103785B016344DB69002B09D01E
:400E4000012008E0012006E0012004E0012002E0012000E0002010BDA0002F40800080007F007F007FFF7FFF10B503781B01104A944663440F4A41680A431A6003781B01CC
:400E8000634419680C4A11400C4A4468224091420AD182685A6003781B0163445A6883689A4203D0012002E0012000E0002010BD20002F4008008000F7007F00F7FF7FFF21
:400EC00070B500240AE063001B199800104B1818FFF7CAFF002805D10134E4B2072CF2D9002500E00125002D0BD00FE0230108486030C018FFF76CFF002806D10134E4B256
:400F000000E000240F2CF1D900E00125280070BD7C470000002809D10C4B19680C4A0A401A601B689B040CD501300DE0074B1A68802189010A431A601B680B4203D10120EA
:400F400002E0002000E000207047C04614002F40FFDFFFFF10B580221206334B1A60334A136801218B431360A0231B0100E0013B002B03D02D4A1268D207F8D4002B49D0AE
:400F80001D2000F02DFA2A491D2000F035FA03211D2000F043FA0020FFF748FE002819D1FFF760FE002817D1FFF7B4FF002815D10023002201210C30FFF774FE00280FD1E4
:400FC000FFF7C0FE00280DD1FFF7D8FE00280BD001230AE0012308E0012306E0012304E0012302E0012300E00023002B14D1FFF767FF002812D10F48FFF7DCFE00280FD169
:401000000A4B1A6807218A431A601B68194209D0013008E0012006E0012004E0012002E0012000E0002010BD00042F4010002F40611000000112000010B5084B1B78002B51
:4010400002D1FFF787FF00E00020002804D10122024B1A70FFF7C6FD10BDC046680100207047C046F8B54F464646C0B4040001200023984691E04C4B1B6832041A427AD188
:401080002379002B01D1002701E08027BF036379002B07D12B01454A94466344226852055A6009E080235B031F432B013F4A944663442268D2005A60A379072B03D81B0490
:4010C0001F43B94603E080231B031F43B946E379002B03D004234A461A43914600232AE0032B13D92801324A94466044026894465907CA1AD1003831FF228A4067469743A7
:40110000E268D25C8A403A43026012E02801274A94466044826894465907CA1AD1001831FF228A4067469743E268D25C8A403A4382600133DBB2A279934201D2072BCFD9F1
:401140001D2000F04DF92B01184A94466344194A4F4617431F60227A002A04D0196803220A431A6003E0196801220A431A601D2000F02CF900207600F6B2002807D0013502
:40118000EDB201E001260025072D00D873E7002806D043460133DBB298464346022BF1D90CBC90469946F8BD08002F4020002F402C002F4008008000074B1B78272B05D8E8
:4011C000064B1B78DBB2064A136004E0054B1B78DBB2034A1360704702F3FF0F42F3FF0F20FF0B40C1F1FF0F00230AE0204A12683F210A401F49C95C8A4201D1033303E0A1
:4012000001332D2BF2D903231B4A12781B2A16D8302B05D1194B1B78DBB2194A136006E0182B04D1174B1B78DBB2154A136016490B681F229343173A13430B6016E0302BE6
:4012400005D1124B1B78DBB20D4A136006E0182B04D10F4B1B78DBB2094A13600A4A13681F218B430B4909780B4313607047C0462CFF0B40DC48000002F3FF0F3FF3FF0F06
:4012800028FF0B403EF3FF0F34FF0B40C3F1FF0FC2F1FF0FC0F1FF0F00230AE00D4A12683F210A400C49C95C8A4201D1033303E001332D2BF2D9032308490868084A024032
:4012C0000A60084A944663441B78DBB2064A13607047C0462CFF0B40DC48000000002240FFFFFFBF4DF3FF0F28FF0B40034B18688023DB05184000D00120704700002240E6
:4013000010B50B4A136801218B431360094B1A68094B1A60094A12685A60FFF765FFFFF74BFF074A116802230B43136010BDC04650000C4034FF0B406C01002020FF0B405C
:4013400024002C4030B500230AE0134A12683F210A401249C95C8A4201D1033303E001332D2BF2D903230E490A68022082430A600C4C21681F2291430B4805682A400A432F
:4013800022604168094A1160094A944663441B78DBB2084A136030BD2CFF0B40DC48000024002C4034FF0B406C01002020FF0B404DF3FF0F28FF0B40034B1B6802201840EE
:4013C00000D001207047C04624002C401F2318401E3B8340014A13607047C04600E100E01F2318401E3B8340014A13607047C04680E100E001BE704770B504000D001F2858
:4014000002D90020FFF7F6FF1034A40080239B059C4664442068256070BDC04670B504000E00032902D90020FFF7E4FF1F2C02D90020FFF7DFFF03252540ED00063500F0DB
:40144000C0FEA408A400074B9C46644421680323AB4099430B003100A9401943216000F0B4FE70BD00E400E010B5040006E0084B586800F09DFE074B9C46644480231B028E
:401480009C42F4D8024B9868604300F091FE10BDC40000200080FFFF70B582B000F070F9002862D000F08DFE0500314A116801230B43136000230AE02E4A12683F210A40D8
:4014C0002D49C95C8A4201D1033303E001332D2BF2D903230021294A1160294A1268D20606D1274802681F318A4313390A430260244C2168244A1140244A5A438023DB0149
:401500009C466244D20B013A5205520D0B001343A0225203134323601D4B1B680193302000F056FE1B4A13688021C9050B4313602668194B1E40002407E00120FFF794FFDC
:401540001034A30533430F4A1360EE2CF5D90120FFF78AFFFF239B051E430A4B1E60019A0B4B1A60280000F030FE02B070BDC04650000C402CFF0B40DC48000028FF0B4081
:4015800034FF0B400800224000F800C040420F003000104000002240FFFF3FC010B5034B1B7B584300F004FE10BDC046C4000020F0B55F4656464D464446F0B483B0040050
:4015C00000F0FFFD0190FFF791FE002804D0FFF763FE01239A4601E000239A46FFF7ECFE002808D0182C01D0302C07D1FFF7AAFE01239B4604E000239B4601E000239B4615
:40160000E61E2D2E74D8464B1B78DBB29C4208D8444B1B78DBB29946434B1B78DBB2984631E0424B1B78DBB29C4208D8404B1B78DBB299463F4B1B78DBB2984623E03E4B5C
:401640001B78DBB29C4208D83C4B1B78DBB299463B4B1B78DBB2984615E03A4B1B78DBB29C4208D8384B1B78DBB29946374B1B78DBB2984607E0364B1B78DBB29946354B41
:401680001B78DBB29846344B9F5D2F2F09D92A2C07D91922314B1A60052000F089FD192503E02E4B1D683F231D40BD4206D92A4B9A5D2A4B1A60052000F07AFD254B9C467A
:4016C00064442378DBB2264A1360264B4A461A60254B42461A600520FFF760FFBD420AD21D4B9A5D1D4B1A60052000F061FD02E00020FFF77FFE5346012B01D1FFF7CCFE75
:401700005B46012B01D1FFF7FBFD019800F05DFD03B03CBC90469946A246AB46F0BDC04640F3FF0F41F3FF0F42F3FF0F43F3FF0F44F3FF0F45F3FF0F46F3FF0F47F3FF0F29
:4017400048F3FF0F49F3FF0F4AF3FF0F4BF3FF0F4CF3FF0F4DF3FF0FDC4800002CFF0B4028FF0B401CFF0B4020FF0B40034B1868C0231B02184000D00120704700010B40AE
:40178000034B1B68002B01DA012000E0002070470000224010B500F014FD044A1368C02109020B43136000F010FD10BD00010B4010B500F006FD08490A68084B1A408024FA
:4017C000E40122430A600A6813408022120213430B6000F0FAFC10BD00010B40FF3FFFFF70B5050000F0EDFC0400FFF7BFFF002803D0FFF7DDFF012100E00021084828405B
:40180000084A1568084B2B40184310601368012901D1FFF7BFFF200000F0D7FC70BDC0460404040010020B40FBFBFBFF10B5244B1B685B0715D5234B5B685B070ED5224BD0
:40184000596A042001401F4C62688A4362605A6A82435A629B69002B00D098470420FFF7BFFF174B1B685B0518D5164B5B685B0510D5154B596A8022D200114011484268FB
:401880008A434260596A114A0A405A62DB69002B00D098478020C000FFF7A2FF084B1B685B030CD5074B5B685B0304D5064B1B6A002B00D098478020C002FFF791FF10BDBA
:4018C00010020B40D80000208C010020FFFBFFFF04490A68D2B240239A43800118401043086070470004044004490A68D2B210239A43000118401043086070470004044072
:4019000010B503211120FFF789FD43491120FFF773FD0322414B1A60414B1B68002B01DA404900E04049414A13680B431360404A404B1A60404A414B1A600023404A1360B6
:40194000404A41490A6041490A60414A116880204002014311603F490A6802430A603E4A13603E4A136001223D4B1A603D4A11683D4B0B40802189050B431360002248E089
:401980003A4891000C58DC239B0123408018007A03433748844661440B60E30707D52E480168012393401B041B0C0B43036093002E495B589B0707D5284801680123934063
:4019C0001B041B0C0B4303609300284959588B0502D58020400001E080204001CB0504D45300002423495C5203E05300002421495C52214B43438021C9008C466344D917C2
:401A00004905490DCB18DB121BB290001B4943500132012AB4D910BD4D1B000020003A4080033A40C0201010C020001000003A408C00008004003A400000FF0718003A409B
:401A40001C003A400400040010003A4014003A4000033A4040033A4028023A4038023A4018023A4030003A40FEFFFFDF0C49000080003A40B002002010270000A8020020E3
:401A800010B5094B1B68002B0CDB084B1B68002BFBDB054A1368802109060B4313600A20FFF77CFD10BDC04600003A4008023A4010B5064B1B78002B04D1FFF721FF01221A
:401AC000024B1A70FFF7DCFF10BDC046B4010020034A1368802149020B4313607047C04604003A40024A1168024B0B401360704704003A40FFFFFEFF020083070CD0074B2C
:401B00001B680120184001D19307F8D4002804D00122024B1A6000E00020704710023A4010B50400012802D90020FFF763FC012C07D8A400044B9C46644420680004000CE5
:401B400000E0002000B210BD80013A40014B1A681A60704710023A4010B50B20FFF736FC10BDC04610B500F01DF810BD10B5044A1368802109060B431360FFF7EDFF10BD30
:401B80000000264010B5064B1B78002B04D1FFF7E9FF0122024B1A70FFF7E8FF10BDC046B801002010B50024184B1C60184A194B1A60194B194A1360194A1460194A1460C5
:401BC000194A1360194B1C600B20FFF709FC03210B20FFF723FC16490B20FFF70DFC154B1C60154B1C60154B1C60154B1C60154B1C60154B1C601022144B1A70144B1C80DE
:401C0000144B1C60144B1C6010BDC04600002640770800806000264007010080000326400403264010032640000226400402264025220000C80E2640880E2640480F264009
:401C4000080F2640C80F2640880F2640B4020020C4020020D4020020BC02002010B50E4A13685B005B08136000230C490B600C490B600C4804680C49214001600B490B601B
:401C80000B490B6010210B4B19701368802109060B43136010BDC04600002640680026406C00264060002640FF5CFFFF880F2640C80F2640B4020020014B18687047C046D8
:401CC000BC02002010B50B20FFF78AFB074B1C88A2B21400064B1B789B0602D504231A4394B20B20FFF772FB200010BDC4020020B402002010B50B20FFF772FB044B1C889A
:401D0000A4B200221A800B20FFF760FB200010BDC4020020054B1B682022134000D0082301221343024A13607047C0466400264068002640F0B583B001900C0017001D00A9
:401D4000002917D02A4B1B78102B08D10B20FFF747FB284B1B68DB070ED508260FE0244B1B78602B0AD1244A138808218B431380002604E0042602E0002600E00426002E8D
:401D80002FD128221A4B1A7000231C4A13601C4A13601C4B1F601C4B1C60EAB21B4B1A70019B5C00FF231C40134A138802218B4313804023164A13601649174A1160142132
:401DC000FF31164A1160164A1360EB0704D5FFF7A1FF144B1C6004E0124B1C600222124B1A600B20FFF7F2FA300003B0F0BDC046B402002064002640C4020020B802002018
:401E0000BC020020C0020020D8020020CC020020800F264017030000000F2640080F2640880F26404002264068002640014B1878C0B2704767000F4010B500F0C2F9044A0D
:401E4000117810230B43DBB2137000F0BEF910BD97000F40014B18647047C0460000002010B5040000F0ADF9044A1368C0218B43A4011C43146000F0A8F910BD00E400E0D8
:401E80000122014B1A60704700E100E00122014B1A60704780E100E010B50400FFF7F6FF2000FFF7D7FF0320FFF7DAFFFFF7E8FF10BDC04610B500F099F8024B9C46604485
:401EC00000B210BD0080FFFF024B18780F2318407047C04663000F40014B18707047C04683000F4010B50F20FFF7F6FFFFF7ECFF00F067F9044A117810230B43DBB2137034
:401F000000F063F910BDC04693000F4010B500F0BFF88020000200F063F8054B1B78002B02D10122024B1A70FFF7DCFF10BDC046C001002010B500F0D7F8024B9C46604490
:401F400000B210BD0080FFFF024B18780F2318407047C04666000F40014B18707047C04686000F4010B50F20FFF7F6FFFFF7ECFF00F027F9044A117810230B43DBB21370ED
:401F800000F023F910BDC04696000F4010B500F0FDF88020000200F0A1F8054B1B78002B02D10122024B1A70FFF7DCFF10BDC046C1010020034A117880235B420B43DBB236
:401FC0001370704773000F40014B18707047C04681000F40014B1878C0B2704761000F40014B18807047C04600100F40024B1B78024B188880B2704700000F4080100F40EB
:40200000014B188880B2704780100F40014B18807047C04640100F40014B18807047C04660100F4010B501E0FFF7EAFFFFF7D2FF4306F9D410BDC04610B5134B1A7807213A
:402040008A431A701A7804398A431A70FFF7EAFF802424022000FFF7D9FF2000FFF7C0FF0020FFF7B1FFFFF7B5FF2000FFF7D4FF00F0A7F8054A117810230B43DBB2137026
:4020800000F0A3F810BDC04673000F4091000F4010B5064B1B78002B04D1FFF7CDFF0122024B1A70FFF786FF10BDC046C2010020034A117880235B420B43DBB2137070475F
:4020C00076000F40014B18707047C04685000F40014B1878C0B2704765000F40014B18807047C04608100F40024B1B78024B188880B2704704000F4088100F40014B188819
:4021000080B2704788100F40014B18807047C04648100F40014B18807047C04668100F4010B501E0FFF7EAFFFFF7D2FF4306F9D410BDC04610B5134B1A7807218A431A70B6
:402140001A7804398A431A70FFF7EAFF802424022000FFF7D9FF2000FFF7C0FF0020FFF7B1FFFFF7B5FF2000FFF7D4FF00F029F8054A117810230B43DBB2137000F025F8ED
:4021800010BDC04676000F4095000F4010B5064B1B78002B04D1FFF7CDFF0122024B1A70FFF786FF10BDC046C3010020000000000230800803D00138FDD1C046C046C04666
:4021C0007047EFF3108072B6704780F31088704770B50400FFF7F5FF0500102C05D8104A136803218B43136016E0202C07D80C490B6803229343023A13430B600CE0302C81
:4022000007D807490B6803229343013A13430B6002E00020FFF7EEF82800FFF7D6FF70BD3000104010B5AF4B1B68002B00D09847AD4B1B68DB0702D50022AC4B1A60AC4BAD
:402240001B789B0628D5AB4B1B68DB0507D5AA4A1188C0239B000B431380012300E00023A44A1268D20706D5A34A118890239B000B4313800123002B0FD09D4A1278D2079C
:4022800001D5012200E002229B49088802430A800021974A117000E00023954A1278920600D417E1934A1268D20611D51022934B1A608F4B1B78DB0701D5012300E002239E
:4022C0008D4A11880B4313801022894B1A7007E1874A1278120720D5864A126892070AD50222864B1A60844A118888239B000B431380012311E07E4A1278D20703D525218F
:402300007B4A117009E02421794A11707C4A1268002A02D014397B4A1160754A1278520700D4AEE0724A1278D20749D5764A1268120727D5754A1268754909681F240C409F
:40234000744909686418141B082C09D8002C16D1714A1168714B0B401360012308340EE008240CE06B4A11686D48006841186D480068C0B20870116801311160013C002C18
:40238000F0D119E0604A1268520715D5614A116863480068411863480068C0B208701168013111601168594A1268914203D204215D4A116000E001235C495D4A116060E0D7
:4023C0004C4A1268920726D502224C4B1A6059490B681D321A40096880231B020B4000D001239B18544A1168CB1A13601268534B1A60414A118884239B000B431380504B40
:402400001A68802149020A431A6019684D4A0A401A60012335E04C4A1268D2061ED427E0454A1168364A126891421DD2344A1268013A414909688A4204D1402243490A6086
:4024400030490A603C4A11684148006841180978C9B240480160116801311160354A12681F210A40082ADBD11021384A116008E0354A1268520604D52F4B1A682F4B1A60A8
:402480000123002B2CD0244A1168244B0B4013600023314A13601B4A1360304B1B789B070ED5134B1B78DB0701D5092300E00A23114A11880B43138060220D4B1A700FE037
:4024C000274B1B689B0601D5182200E01022164B1A6005E0064B1B78DB0601D4FFF7BEFB10BDC046BC0100208C0E2640880E2640B40200200C0F2640C4020020000F2640BD
:40250000C0020020880F2640CC0F2640D002002008032640D402002060002640FFFEFFFFC80200204003264068002640ED0F0000C00F264008022640B8020020BC020020A7
:4025400004022640FFFFFEFF8C0F2640800F2640D802002040022640C80F2640CC02002064002640002243088B4274D303098B425FD3030A8B4244D3030B8B4228D3030C05
:402580008B420DD3FF22090212BA030C8B4202D31212090265D0030B8B4219D300E0090AC30B8B4201D3CB03C01A5241830B8B4201D38B03C01A5241430B8B4201D34B0396
:4025C000C01A5241030B8B4201D30B03C01A5241C30A8B4201D3CB02C01A5241830A8B4201D38B02C01A5241430A8B4201D34B02C01A5241030A8B4201D30B02C01A5241A4
:40260000CDD2C3098B4201D3CB01C01A524183098B4201D38B01C01A524143098B4201D34B01C01A524103098B4201D30B01C01A5241C3088B4201D3CB00C01A5241830834
:402640008B4201D38B00C01A524143088B4201D34B00C01A5241411A00D20146524110467047FFE701B5002000F0F0F802BDC0460029F7D076E7704703460B437FD40022A0
:4026800043088B4274D303098B425FD3030A8B4244D3030B8B4228D3030C8B420DD3FF22090212BA030C8B4202D31212090265D0030B8B4219D300E0090AC30B8B4201D3F7
:4026C000CB03C01A5241830B8B4201D38B03C01A5241430B8B4201D34B03C01A5241030B8B4201D30B03C01A5241C30A8B4201D3CB02C01A5241830A8B4201D38B02C01A64
:402700005241430A8B4201D34B02C01A5241030A8B4201D30B02C01A5241CDD2C3098B4201D3CB01C01A524183098B4201D38B01C01A524143098B4201D34B01C01A524125
:4027400003098B4201D30B01C01A5241C3088B4201D3CB00C01A524183088B4201D38B00C01A524143088B4201D34B00C01A5241411A00D201465241104670475DE0CA0F9D
:4027800000D04942031000D34042534000229C4603098B422DD3030A8B4212D3FC22890112BA030A8B420CD3890192118B4208D3890192118B4204D389013AD0921100E03D
:4027C0008909C3098B4201D3CB01C01A524183098B4201D38B01C01A524143098B4201D34B01C01A524103098B4201D30B01C01A5241C3088B4201D3CB00C01A5241830880
:402800008B4201D38B00C01A5241D9D243088B4201D34B00C01A5241411A00D20146634652415B10104601D34042002B00D54942704763465B1000D3404201B5002000F078
:4028400005F802BD0029F8D016E770477047C046F8B556465F464D464446F0B40F00FD0FAA4609037C002E005F00450F490A7F0D2943C5001803BC46400A570F640DDB0FDF
:402880003843D2009A4500D1AAE06646A61B002E00DCFFE06346002B39D10300134300D0D9E06B0709D00F232B40042B05D02B1DAB42AD416D4249191D000B0200D482E0FB
:4028C000CA4B01349C4200D1FEE00A005646C84BED081A405007640552020543120B640D002112030B0D1B056405120B1A436308C04CF60714401C43640064083443280028
:4029000021003CBC90469946A246AB46F8BDB74B9C42C6D080231B041843382E00DDEBE01F2E00DD1EE120239B1B9C4603006746BB40984613004746F3403B436746BA4015
:40294000571EBA4113430200F240EB1A9D42B6411D008A1A7642911B0B0231D54A02560A002E00D1B4E0300001F0FAFB0300083B1F2B00DDB5E020222900D21AD1409E40AD
:402980000A009D4032439C4200DDB1E01C1B631C1F2B00DDD5E0202114002800C91A8C40D8408D400443DA40681E854111002543002476E74146314300D134E23100454687
:4029C0006B0700D06FE756464807ED08C9080543864B9C4235D00A036405120B640D7FE76346E31A9B46002B00DC8BE06746002F3CD07E4FBC4200D153E780273F0438430C
:402A00005B46382B00DCF7E00243501E82410020D2B253194218AB4289411D00494289180B02CDD5714B01349C4200D13DE101206F4A6B080A4028401843D50705435108BB
:402A40002FE72B000B4300D1CBE180231B030B431A03120B44E7013E002E6DD1AE1AB5429B41091A5B42C91A350075E70700174300D116E701235B429C46E3445B46002B97
:402A800000D0E0E0AA18AA429B4109185B4259181500C5E7002E75D1661C7605760D012E00DCF3E0AE1AB0464545BF410E1A7F42F61B370200D48FE0551BAA42B641411ACE
:402AC00076428E1B9A464BE756460022002507E7280001F045FB20300300083B1F2B00DC49E72A002838824000259C4200DC4DE73F49E41A1140D4E60243501E8241D3B262
:402B0000002222E7002B00D0F3E0631C9C465B055B0D012B00DC9FE0344B9C4500D1C3E0AA180918AA42804140424118CD075208154349086446B4E62C4B9C4200D0ECE69B
:402B4000AFE611001F3CE1400C00202B00D17FE04021CB1A9A4015436A1E95410021254300242DE733000700203BDF403B00202E70D04027BE1BB0400243501E824113439C
:402B80000022E2E6002C4FD0184CA44500D1ABE08024240476422143382E00DDDFE01F2E00DD43E12027BC1BA1460C004F46BC40A0462C004746F4403C434F46BD406F1EEC
:402BC000BD41F1402C43151BAA429241411A5242891A64469A46BFE641464546314300D0BEE6002600240025F2E6C046FF070000FFFF7FFFFFFF0F801F2B59DC2027FF1A52
:402C0000BC46070063469F405B46B9461700DF40B8464F4643461F4363469A40531E9A415B463A43D840F4E60C002C435CD0F643002E55D1551BAA42A441411A6442091B36
:402C40009A46644688E6964FBC4200D0D8E628E6002280E700208FE70B002B43002C00D0C2E0002B00D101E10300134300D118E6AB18AB42B6410918764271180A0200D4B8
:402C800009E1884A1D00114064460AE6002C5BD10E002E4300D08AE00100114300D1C2E0010015009A46FCE56446002100258FE620235B429C46DC4463460700DF405B46E9
:402CC000BC46202B00D1ACE040235F46DB1B98400243501E8241634613431A00002098E66F4CA44500D057E70100150064469A46D7E5002C39D10C002C436ED0DB43002BE1
:402D00001AD0674CA44568D0382B00DDA4E01F2B00DDAEE020240F00E41AA740B9462F00DF40B846A3464F46444627435C46A5406C1EA541D9403D43AD1895429B4109183E
:402D40005B42591864466BE60C002C4315D1010011437BD0010015009A46514CA1E50D43691E8D410021ECB22DE74D4CA44534D0802424045B422143C6E7040014434ED03F
:402D8000ED084C072C438025C9082D03294208D0C6082E4205D1D208410711430C009A463100620FC900E50011433D4C79E50600164300D175E5AE1AB0464545BF410E1A78
:402DC0007F42F61B370200D4F4E5551BAA42B641411A7642891B9A4663E50100150064465FE5002200257BE5002B3BD00300134315D0ED084B072B438025C9082D03294204
:402E000007D0C4082C4204D141070B002100D2081343C9005A0F1143DD00214C41E5204C3FE5002054E700260025D1E534000F00203CE7403C00202E2BD04027BE1BB140AA
:402E40000D43691E8D4100212C43BCE6802100260903134C0025BBE50D43691E8D410021EDB269E7010015000D4C1AE50100150017E51C000F00203CE7403C00202B0CD03E
:402E80004027FB1A99400D43691E8D410021254352E70021D4E71D0092E50021F3E7C046FF070000FFFF7FFFF0B556464D4644465F46F0B41D000E034C00CB0F87B007002A
:402EC00092468146360B640D98466AD06D4B9C4235D08022430F12041343F6001E43C3009946694B00279C460023644402932B0368001B0BED0F51469B46400D009500D175
:402F000078E0604B98426CD05B46DA004B0F802109040B4313439B465346D9005A4B9C46002360444246201A6A40924601901F430F2F00D9B0E05548BF00C0598746374316
:402F400000D088E0002399460233082700260293CDE74346B34649460093029B009A9246022B00D0BFE1002153460122002689461A40444B002136030C0D2405360B2643F3
:402F8000434C1B0526401E437600D207760816434846310007B03CBC90469946A246AB46F0BD330003434FD0002E00D1BCE1300001F0D6F803000B3B1C2B00DDADE11D226F
:402FC0000100D31A08393A008F408E40DA40B9461643304B00279C46002360444442029385E753465A4613432CD1002300219B46023397E70B4320D05B46002B00D19EE1C9
:40300000584601F0ADF803000B3B1C2B00DD8FE102005946083A91408B461D21CB1A5146D9400B0059460B4351469B469140194B9C4660444042002374E7002300219B46D7
:4030400001336FE703236DE70023994601330427002602934BE703230C27029347E70122D51A382D00DCB0E153461A4000210023002689467EE7002380269946002236036A
:40308000004B77E7FF07000001FCFFFF18490000FFFF0F80F30300005E4500D972E100D16DE1019B4D46013B01930023340002935B461E020B0E1E430B020393330C9946AD
:4030C00033041B0C494620000093FFF74BFA009B370043430600494620009846FFF7C8FA2C0C09040C43A04509D9E419731EA74200D95CE1A04500D859E1023EE4194346AD
:40310000E41A49462000FFF72DFA0300009A80465343494620009B46FFF7AAFA2A040904120C0A4393450DD94346D219013B974200D93AE1934500D837E102235B429C4655
:40314000D219E0445B46D21A4346360433439B460399180C0B0C1D00059309045B46090C0C001B041B0C4443049159436B4368431B190D0CEB189C4203D980246402A446E9
:4031800060441C0C09041B04090C20185D18824200D2DEE000D1D7E0161A029B9C465D1BAC459B415B42F61AB74200D106E149463000FFF7D7F9009B0400434349463000BE
:4031C0009846FFF755FA2E0C09040E43B04509D9F619631EB74200D9F3E0B04500D8F0E0023CF6194346F31A494618000293FFF7B9F9009B06004343494602989846FFF780
:4032000037FA2D0409042D0C0D43A84509D9ED19731EAF4200D9D6E0A84500D8D3E0023EED192404210043463143049E059A3000ED1A0B040C0C1B0C584366435343544375
:403240009A19030C9B189E4203D980225202944664441A0C00041B04000C14191B18A54250D34DD001231943964A019B94466344002B00DCF3E64A0709D00F220A40042A99
:4032800005D00A1D8A42894149428B4411005A46D20108D55A468C4B1A4093468022D2009446019B6344894A934200DD5BE65A46C908500708435602514601225B05814674
:4032C000360B5B0D0A4055E680231B031E4211D05A461A420ED15E461E433603360B2A0089467B4B46E6032B00D1E1E0012BBBD11A40BBE61E433603360B4246744B39E6A5
:40330000002BB1D07D194A1EAF4252D91100A542A8D1039A9A42A5D1A6E703003E00283B9E400023994654E600F01AFF203041E603005246283B9A400021934677E65046D7
:4033400000F00EFF20305EE6029B0026AB4200D323E7039E0299B44661448846B045B6415B467642F619B218013B0291974213D290424FD800D18EE0161A9B460DE78945D0
:4033800000D28EE674084B46F60735005B081D434B46DB0702938BE69742EDD10399029CA142E5D93E1A9B46F7E69846CAE61E00A5E6AC423ED874D0110053E7012149424D
:4033C00052E71C000EE71E002BE71F2D3CDC20230A0058465B1B9840EA4099400243481E81415E461143EE404B0709D00F230B40042B05D00B00191D99429B415B42F618D1
:4034000033023CD55346012200211A40002601238946AFE502235B429C46039CE344A446029B63449846A045B6417642F6190293B218B1E603988A1E41008142B64176425D
:40344000F619AD19039161E71F225242D31A5A46DA401300202D29D040225846551BA8400143481E814107200B4318400026002809D00F2200261A401900042ABBD10B007F
:4034800070077602360BDB0803439946012253461A4000236EE502998D42BBD89B4600267BE603989842C5D3110032E70020D7E780265B4636031E433603360B009A89460A
:4034C000034B57E5FF030000FFFFFFFEFE070000FF070000F0B55F4656464D464446F0B40D0399464E002B0B87B00700924680469B46760DCC0F002E69D06D4B9E4235D001
:403500005B468022DD001204430F13432B439B46C3009846674B00279C460023664401934A4615035000D20F53462D0B400D914600D176E05E4A90426CD080225B0F1204D4
:4035400013435C4AED0094461D4353460022DB00604449463618701C6140029017430F2F00D9AFE05448BF00C759BF465B461F4300D088E000239B469846023308270193BD
:40358000CEE74946022A6AD0032A00D109E2012A00D0BBE111400022002300259046CCB200212D030A0D12052D0B1543434A1B0515401D436D00E4076D082543404629007D
:4035C00007B03CBC90469946A246AB46F0BD034352D05B46002B00D18AE1584600F0C0FD03000B3B1C2B00DD7BE11D22D31A3A0001005D46DA4008398D4013008F402B43DB
:403600009B46B8462E4B00279C46002360444642019385E752462A432CD100250023022297E752462A4321D0002D00D154E1280000F096FD03000B3B1C2B00DD46E11D2148
:40364000CB1A51460200D9405346083A954093400D431B4A944660444042002279E7012400220C40124B0025904699E70025002301226EE703226CE700239B469846013340
:40368000042701934CE703230C27019348E700238025984600242D03054B81E75D464346019A6FE75D4643462100019A6AE7C046FF07000001FCFFFF58490000FFFF0F80BF
:4036C000F30300004246120C91461A0C9446424617044A461B041B0C5A43604690464A4642431000039262461C003F0C7A437C4342440192220C9246019A5244904506D97C
:403700008246802040028046C24450460390100C049048462404240C1204121905922A0C2D042D0C68432C00824648467C4350438146200C8046574357444744BA4503D909
:40374000802040028046C144380C3F04B84648442404240C01900498A044404404905846000C814658460404200C8246070048465F434C464343604660436446834650465E
:403780004443380C8446E4186444A34203D980235B029C46E34448463F04230C3F0C2404E419574668436F4384464D46504655434243380C814662444A445B44944503D9F9
:4037C000802040028446654403983F04834604983F0C8446E344C345804140428246100484460198674484466744A344BC46A345A4419946D44464428742BF41D445804155
:40380000E144A04699459B417F424042C8440743120CBA18A045A4415F423B0064422343D71843467D19DB0D6D021D435B465A02059B1A43531E9A415B46DB0D1A4343460E
:403840005B021343EA0107D501225C0813402343EA07029E13436D08574AB218002A4BDD580709D00F201840042805D0181D98429B415B42ED180300E80104D54F4A154075
:403880008022D200B2184E48824200DDE7E60124DB08680718436D02530580462D0B5B0D0C407DE6802259461203114208D0154206D115432D0398462D0B4C46414B6FE658
:4038C0005D4615432D032D0B3E4B69E603005546283B9D400023BCE6504600F041FC2030A8E60300283B9F400023BB46984689E600F036FC203073E60124A61A382E07DD99
:4039000000220C4000230025904649E6029EA3E71F2E20DC20222C001800921BF040944093400443581E83411C43F540630709D00F232340042B05D023001C1D9C42924151
:403940005242AD182B021FD5012400220C4001230025904624E61F202C004042821AD440202E1CD04022961BB5402B43581E83410720234318400025002809D00F22002529
:403980001A401C00042AD8D1230068076D022D0B0124DB08034398460C40002300E60025E3E780220124120315432D0398462D0B0C40044BF4E5C046FF030000FFFFFFFE20
:4039C000FE070000FF070000F0B557464E464546E0B40E001100F20F9246C500420F180337037400400A4E0F7F0A3043CF4E17435A00640D520DDB0FC900B24200D1E5E06F
:403A000001267340A61AB446534500D1AFE0002E00DC0DE1002A3AD103000B4300D0E4E06B0709D00F232B40042B05D02B1DAB42AD416D427F191D003B0200D488E0BB4BF6
:403A400001349C4200D110E13A00B94B51461A4001235007ED08520264050543120B640D0B400021280012030D0D120B64052D0515436208AF4CDB072C4014436400640892
:403A80001C4321001CBC90469946A246F0BDA74B9C42C5D080231B0418436346382B00DDFDE01F2B00DD30E1624620239B1A02009A40664690460A009940F24046464B1EDC
:403AC00099413243114363460200DA40691A8D429B410D00BA1A5B42D71A3B0235D57A02530A98464346002B00D1C4E0404600F037FB0300083B1F2B00DDC5E02022290075
:403B0000D21A4746D1409F400A009D403A439C4200DDC0E01C1B631C1F2B00DDE4E0202114002800C91AD8408C408D400443DA40681E854117002543002471E742466346D2
:403B40001A4300D14CE2674645466B0700D069E7012351467807ED08FA080B40054373498C4238D012036405120B640D79E7002E00DC9AE0002A47D06C4A944200D14FE705
:403B80008022120410436246382A00DC08E10143481E81410022C9B24919D219A942BF410D007F42BF183A0200D442E15F4A0134944200D14EE101205D4A69083A40284043
:403BC0000843D507054357089A4629E706000E4300D017E714E72900114300D1F9E1802109030A431203120B3BE701235B429846C4446346002B72D1691A8D429B413F1A2C
:403C00005B42FF1A0D0068E702000A4300D107E7012252429046C4446246002A00D0E6E06918A942B6413F187642F7190D00BAE7002E00D080E0621C5205520D012A00DC9E
:403C4000F9E06A1A91464D45B6413A1A7642921B9046120200D499E04D1BA9428941C71B49427A1A90469A463CE752460123002513400022F5E6280000F072FA2030030098
:403C8000083B1F2B00DC39E72A002838824000259C4200DC3EE7264FE41A1740C0E60143481E81410022C9B210E7002E00D0F1E0621C94465205520D012A00DCA0E01B4AF2
:403CC000944500D1C5E06918A94292413F185242D2194908D5070D4357086446A0E6134B9C4200D0D9E69BE611001F3CE1400C00202B00D180E04021CB1A9A4015436A1EF3
:403D000095410027254300241FE763460200203BDA406346202B71D0402366469B1B98400143481E814111430022CFE6FF070000FFFF7FFFFFFF0F80002C48D0CA4CA2421E
:403D400000D1A2E07442A1468024240427434C46382C00DDDBE01F2C00DD44E14E462024A41B3E00A640A246B0464C462E00E640B4464646644626435446A5406C1EA5413B
:403D800034002C434D46EF400D1B28E04A4643464D461A4300D0A5E6002300240025DEE61F2A5ADC66462022921B060096409146B04662460E00D640424616434A46914009
:403DC0004A1E9141020060463143C240E4E63C002C435AD0F443A146002C52D14D1BA9428941C71B49427F1A14009A4675E69E4A944200D0C7E613E600227FE700208FE79B
:403E0000002C00D0C8E03B002B4300D10FE103000B4300D104E66918A9429B413F185B42DF193B0200D41AE1904B0D001F406446F6E59A4689E63A002A43002C5CD1002AE3
:403E400075D102000A4300D1CAE007000D009A46E6E564460022002581E662460600203AD6406246B046202A00D1B7E040226646921B904001434246481E814111430022B8
:403E80008AE6794CA24200D061E707000D0014009A46C5E5002C41D13C002C4378D0F443A146002C20D0704CA24271D04C46382C00DDB2E01F2C00DDBCE02026341BA2462D
:403EC0003C005646B4404E46A0462C00F440A446444666463443A4465446A54064466E1EB54125434C46E7406D188D4289413F184942CF19140056E6002A2FD102000A431E
:403F000000D184E007000D009A46574C88E53D436F1EBD41ECB200270D1B60E7524CA24236D0744280263604A1463743BEE702000A4300D174E56A1A90464545B6413A1A3D
:403F40007642921B9446120200D4F7E54D1BA9428941C71B49427F1A9A4661E502000A433AD0ED087C072C438025FA082D032A4208D0C7082F4205D145072C003A009A46F2
:403F8000C9080C43670FD200E5001743364C47E507000D00140043E53A002A4343D002000A4319D0ED087C072C438025FA082D032A4207D0C6082E4204D147073C0032009A
:403FC000C9080C43D700620FE50017439A46264C26E50022002544E5234C21E5002049E700230025BBE54C463E00203CE6404C46B446202C31D040244E46A61BB7403D4345
:404000006C1EA54164462C4300270D1BE7E6802200231203144C0025A1E53D436F1EBD410027EDB260E707000D000F4CF8E407000D00F5E44E463C00203EF440A0464C46CC
:40404000202C0ED040244E46A41BA7403D436F1EBD4144460027254346E70027CFE70D0073E50027F2E7C046FF070000FFFF7FFF0B0330B5134D1A0B4B005B0DC90F002436
:40408000AB4211DD104CA34210DC8024640322430E4CE41A1F2C0CDD0D48C31ADA4013005C42002900D11C00200030BD094BCC18FAE7E040084CA44663449A40130003438B
:4040C000EEE7C046FE0300001D0400003304000013040000FFFFFF7FEDFBFFFF70B5002830D0C317C4185C40C50F200000F038F8174B184A1B1AD21A1F2A18DD164AD21AF1
:404100009440002224035B05240B5B0D0021100024030A0D1205240B1443104A1B0514401C436400ED0764082C43210070BD210091400A000B21081AC4405B052403240BAD
:404140005B0DE3E70025002300240022DEE7C0461E0400003304000013040000FFFF0F801C2101231B04984201D3000C10391B0A984201D3000A08391B09984201D300093B
:40418000043902A2105C40187047C04604030202010101010000000000000000014B18687047C046400100200E4B70B500251E000D4CE41AA410A54204D0AB00F358984748
:4041C0000135F8E700F0EAFB084B00251E00084CE41AA410A54204D0AB00F35898470135F8E770BDA8490000A8490000A8490000B0490000002310B59A4203D0CC5CC454C4
:404200000133F9E710BD03008218934202D019700133FAE7704700000000000000300F40000800400F400008816F830F856F860F871F0006059E0608076009FD0B02170FDE
:40424000180319301BC921CF23302406280529732D942F60300831FF340738203F014024410349FF4AFF4BFF4DA04F015018580459045A045F0160406280644065406680E5
:4042800068406A806C406D206E8088018D189102950C980399149A0C9C08A003A720A918AF03B001B101B202B320B408B51CB604B702B80AB920BE11BF40C024C103C54371
:4042C000C6C2C70EC81FC9FFCAFFCBFFCDAFCE07CF01D018D40FD804D904DA04DB04DF05E040E280E440E540E680E840EA80EC40ED20EE800102021005200A040E020F0800
:4043000010041104168019201A8C1B011C601D021E0A208024102602270A29222B012E802F24331836223708380839243D804044430C452247044C804F0856A85E485F2252
:4043400066287E0486108A808B20C04CC2C2C416CA7DCCE6CE16D0E7D6F0D860DE20E20201940208036004C00624070F088409300A100BC90D9E0F6014B71573164019FD72
:404380001A071B021C011EF220C12212247729CF2B3031FF32F0340F3F01580459045F018208830184088564871889788A218B048D018E10900292049401962E9707980E53
:4043C00099189B609C619F80A14CA240A330A402A604A80EA93CAD48AF30B040B102B21EB37CB401B501B620B780BE51BF10D280D40FD804D904DB04DF0100A00102031039
:404400000410062007400AA40B010E2910841104140415201680170819901A601B081C081E081F04200421282341274029222B012E202F0430803108331036303708380A69
:4044400039203B403C183D803E9159905A045B01700185108701901091049284940C95209640970899209B089C049D029F10A0D0A301A560A620A728C07FC2EFC43ECA2D61
:40448000CC6ECEFFD60F00CC0101022104CC052806120714093C100812F11480161F1877191C1D0C1F302130230C24BB264429142B282F0330F03101340F353C37023F0180
:4044C0004043410649FF4AFF4BFF4DA04F015018580459045A045F016040628064406540668068406A806C406D206E8083038C08980399029A0C9C03A401AF04B002B2013F
:40450000B304B408B501B604B702B80ABE14BF40C043C106C523C6C4C70EC81FC9FFCAFFCBFFCDAFCE07CF01D018D40FD804D904DA04DB04DF05E040E280E440E540E68082
:40454000E840EA80EC40ED20EE80010203200540081409040A840F0A130415041708180819021B201C101D481E081F0121102345250426102712280429022A402E4030108B
:4045800032403610380839203B013F0240104302450A48044A084E084F0A56585D105E085F4266187D0482408510870192949408952096019A209B089D029F10A004A540BA
:4045C000A620AF20C08CC2CEC424CA1DCC2CCE87D0C3D224D6F0D860DE40E2040138020103C1044C0630081809CC0A600B310C640DAC0E180F521401157719FB1A071B04DD
:404600001C481E3020782204243C29502A802BAF30013202347C35F03680370F3E015280540F580459045B045F018008830286028C049401950499029E02A002A501AD0206
:40464000B008B204B302B401B504B602B701BE40BF04D604D804D904DB04DF0100080202039005200620074208080B020E291240130115011608170819951D021E291F02B1
:404680002014228025402620270229082A402D202E1030083310362037083B023D803E2159155A405C105D815E025F08628063807740820883C0840885088A028C0C8E6133
:4046C0009210930396019A209B08A004A542A620A702C0FDC2E5C478CA2ACC66CEB1D6FFD809E202E60C6B10DA40030806029F10C0C09F10A308AE02EC1083189F10A308F1
:40470000E220E480008004208440C00390208010902006100A200B020C080F0283018610870188088E10C004C20FE202E60401011001120105000F4061300F4036310F4043
:404740004D320F4046330F4062340F4049350F4040360F4045370F4002400F4004410F4004420F4005430F4004440F4001450F4002460F400E470F4003600F4000000000F7
:40478000080088000000000001000000080088000000000002000000080088000000000003000000080088000000000004000000080088000000000005000000080088008A
:4047C0000000000006000000080088000000000007000000080088000000000000000000A8008000FFFFFFFF0000000001000000A8008000FFFFFFFF000000000200000041
:40480000A8008000FFFFFFFF000000000300000000000000000000000000000004000000000000000000000000000000050000000000000000000000000000000600000042
:404840000000000000000000000000000700000000000000000000000000000008000000000000000000000000000000090000000000000000000000000000000A00000016
:404880000000000000000000000000000B0000000000000000000000000000000C0000000000000000000000000000000D0000000000000000000000000000000E000000C6
:4048C0000000000000000000000000000F000000000000000000000000000000030405060708090A0B0C0E0F101112131415161718191B1C1D1E1F2021222325262728299A
:404900002A2B2E2F303132333435000000000000000000000607000098300000662F00006C3000005C2F00006C300000763000006C3000005C2F0000662F0000662F000072
:40494000763000005C2F0000522F0000522F0000522F0000C8320000C43600008435000084350000823500009C3600009C3600008E360000823500009C3600008E360000B1
:404980009C36000082350000A4360000A4360000A4360000A438000043000000F8B5C046F8BC08BC9E467047B10200007D0B0000F8B5C046F8BC08BC9E467047890200006F
:4049C000D0490000C0000020880000009801000000000000010000000000C05D80BB000030000000006CDC02F00000000404040000000000000000000000000000000000CE
:404A00000000000000000000000000000000000098490000000000000000000000000000000000000000000000000000000000000000000000000000000000000000000095
:404A400000000000000000000000000000000000E0000020000000000000000000000000000000000000000000000000000000000000000000000000000000000000000036
:404A800000000000000000000000000000000000000000000000000000000000000000000000000000000000000000000000000000000000000000000000000000000000F6
:404AC00000000000000000000000000000000000000000000000000000000000000000000000000000000000000000000000000000000000000000000000000000000000B6
:404B00000000000000000000000000000000000000000000000000000000000000000000000000000000000000000000000000000000000000000000000000000000000075
:404B40000000000000000000000000000000000000000000000000000000000000000000000000000000000000000000000000000000000000000000000000000000000035
:020000040003F7
:0200000490303A
:02000000A60652
:0200000490402A
:4000000000000000000000000000000000000000000000000000000000000000000000000000000000000000000000000000000000000000000000000000000000000000C0
:400040000000000000000000000000000000000000000000000000000000000000000000000000000000000000000000000000000000000000000000000000000000000080
:0200000490501A
:0C0000000002101111A000011028B7A68A
:0200000490600A
:0100000001FE
:00000001FF