:400000000040002011000000F5070000F507000010B500F0F7FBC04610B51222204B1A60302001F02DF91F4A1F4B1A6000241F4B1C601F4B1F4A1A60CE21C9011E4A11602F
:400040001E4A1A608021C9001D4A11601D4A1A60E82252011C490A601C4919601C490A601C4A1A60822212061B4B1A608022D2021A4B1A6044221A4B1A60033A194B1A6071
:400080000132194B1A600132184B1A601849082001F01AF8082001F001F8164B1C6010BD300010400600008004010B40000301400000014040FF00801003014044FF008026
:4000C0000403014041FF00800803014042FF00800C03014043FF008008010B4000010B404C010140280101401401014008010140FD1400000C020B4010B572B600240FE037
:400100003A486200131959000B00411889881A5AC31858880004104300F034FB0134E4B2012CEDD931490C3131480C3000F010FB802252002F4B1A80FF3A2F4B1A70EE23C1
:400140002E4A136030212E4A1160EE2109022D4A1160AA212C4A11602C4A136099231B042B4A13602B492C4A1160802189022B4A1160A221C9032A4A11602A4A13602A4ABE
:4001800013602A490B783C22934314221343DBB20B70274A117816230B43DBB213700322244B1A60242324490B608020234908600E38234908604138224908603F3022499C
:4001C000086010382149086021482249086002202149086021482249086022490A60224A1360FFF719FF00F0E3FA10BDC4160000441A000000600F4002600F4000010240DA
:400200000002024000030240000402400006024010500F400400990020500F4024500F4028500F4050500F4070500F4001700F4000700F40000104400801044018010440A6
:4002400000020440080204401802044000030440800D0900080304400004044031601B0008040440000604400806044010B5064C2378002B07D1054B002B02D0044800E052
:4002800000BF0123237010BD4801002000000000C0160000084B10B5002B03D00749084800E000BF07480368002B00D110BD064B002BFBD09847F9E7000000004C01002071
:4002C000C0160000C000002000000000F8B504000D0000F019FD0F2020401A4E30603F212940194B1960194C00252570800108434005E060164FA760164B1B6863602000B4
:4003000000F0CEFB01232370E560A760124B1B686360200000F0C4FB022323703368DB06FC22D2041343E360A7600C4B1B686360200000F0B5FB00F0AFFA09491C2000F053
:40034000C3FEF8BDB4010020C8010020B8010020FFFF1F80A0002E40C0002E40E0002E405504000010B586B0002815D0038802AC02930023237163718278A271E3716B467D
:400380000593C11C0822684601F088F9200000F0D1FC002802D102E0022000E0012006B010BDC046014B18787047C046C8010020014B18787047C046B4010020104B18783D
:4003C000C0B2002819D15A78D2B29B78DBB29A4205D20B4A93785078181AC0B20EE0084B5A78D2B29B78DBB29A4207D9044A93785078181A1030C0B200E010207047C0463F
:4004000064010020124A93780133DBB293709378DBB20F2B02D900220D4B9A700C4B1B78002B0BD00A4A53780133DBB253705378DBB20F2B02D90022054B5A70044A537886
:4004400091785B1A59424B41DBB213707047C0466401002070B580225201444B1A60444B1B68DA0706D49A0706D45A0706D41B0706D406E0002404E0012402E0022400E0E8
:4004800003243C4B9A78D2B264013B4B9C4664442368DB0202D46168490D02E06168C90889B2364B500082189000C152314A9178C9B22068000C0F2528404D0069188D00D7
:4004C0005D19A8709178C9B2A5682D0E4800411888001818C5709178C9B2A068000CC0B24D0069188D005D1928719178C9B2A068000AC0B24D0069188D005D1968719178E5
:40050000C9B2A568EDB2480041188800181885719178C9B2E5682D0E4800411888001818C5719178C9B2E068000CC0B24D0069188D005D1928729178C9B2E068000AC0B2AD
:400540004D0069188D005D1968729278D2B2E068C0B251008A1891005B189872FFF752FF226801231343236070BDC04600002E4008002E4064010020A0002E40CC01002022
:4005800010B5FFF71BFF00280BD0064A53780133DBB253705378DBB20F2B02D90022014B5A7010BD6401002010B582B0041E17D0FFF704FF6B46D87107331B78002B11D001
:4005C0000A4B5B78DBB25A00D3189900084B59180C22200001F062F8FFF7D2FF002002E0022000E0022002B010BDC04664010020CC01002070B504001E00012000F012F8C5
:4006000020800823A370E51CF621280000F018F82418E670421C0499280000F023F870BD8079704780028023DB0018408901403B194001433F200240114308007047C0464B
:4006400010B504000170FFF7B3FE6070FFF7AAFEA070032010BDC0464079704700797047C078704710B50B0E8354531C0C14C454931C0C12C4540332815410BD407970470E
:400680000079704710B501210720FFF71FFE00242000FFF789FF0028F9D12000FFF7E0FF0D2802D0F52812D020E0012000F084FFFA20400000F040FD002000F07DFF00246F
:4006C0002000FFF7DDFF2000FFF7D8FFDFE7012000F072FFFA20400000F02EFD002000F06BFF0024200000F00DF8D0E7002000F057FFFA20400000F01FFD012000F050FFC8
:40070000C5E7C04670B586B00400FFF789FF06002000FFF7A3FF05002000FFF79DFF0200002300933300290003A8FFF763FF03A8FFF718FE002809D0002000F031FFFA208C
:40074000400000F0F9FC012000F02AFF06B070BDF0B50025002711E0BB00C658F3B2FF22964308E06A008A181478A419527822700135013BDBB2002BF4D10137092FEBD921
:40078000F0BDC04610B50A00002100F090FF10BD064B1B68002803D080221206134301E05B005B08014A13607047C04680033A4010B50323094A1360094A13608022120623
:4007C000084B1A607023084A1360084A13600022074B1A600120FFF7DBFF10BD300030403000314000003A4000033A4040033A40000E3F4010B500F025FF03680C2B00D195
:40080000FEE7FEE770B50F4E0F4D13E029686B68AC68002202E001C901C30432A242FAD1E868002202E0002102C304328242FAD11035013E002EE9D100F00AFFFFF722FFB3
:40084000FEE7C046010000002C1C000010B50E4A136801218B43136000230AE0032B03D89A000A49505800E009489900094A885001332F2BF2D9FFF73FFC034A1168012335
:400880000B43136010BDC0460000104000000000F507000000000020054B1A6801210A431A601B68194201D1012000E00020704704002E4010B50E4A0E4B1A60FFF7ECFFB2
:4008C0001C2000F0EBFB0C4A116801230B431360C02300E0013B002B03D0074A1268D207F8D5002B01D1012000E0002010BDC0460112000000002E4010002E4003B2002BF4
:400900000DDB094A1168094B0B400004034313601268074B1340984203D0012002E0022000E000207047C04614002E40FFFF00800000FF7F002809D10C4B19680C4A0A4001
:400940001A601B68DB040CD501300DE0074B1A68802149010A431A601B680B4203D1012002E0002000E000207047C04614002E40FFEFFFFF70B5841EE4B20D2C35D88C1ED7
:40098000E4B2052C03D9002B31D1012931D1032A31D8904231D3914231D31C4D2C68240AE4B20F26B44320432E68194C3440000204432C602C686040F0242401204220D104
:4009C000002B00D002234901C9B29200D2B2114319430E4A1368EE2083430B4313601368034099420FD0ED380EE002200CE002200AE0022008E0022006E0022004E0022005
:400A000002E0012000E0002070BDC04614002E40FFF0FFFF002809D10B4B1A6810218A431A601B6819420BD001300CE0064B1A6810210A431A601B68194203D1012002E069
:400A4000002000E00020704714002E40002809D10B4B1A6801218A431A601B6819420BD001300CE0064B1A6801210A431A601B68194203D1012002E0002000E000207047BC
:400A800014002E40054B18601B681B041B0C984201D0012000E000207047C04604002E4010B503785B01204A944663441F4A41680A431A6003785B01634419681C4A114012
:400AC0001C4A44682240914224D182681A6103785B0163441A6981688A421DD1C2685A6103785B0163445A69C1688A4216D1012252429A6103785B0163449A6901320FD169
:400B00000022DA6103785B016344DB69002B09D0012008E0012006E0012004E0012002E0012000E0002010BDA0002E40800080007F007F007FFF7FFF10B503781B01104ACE
:400B4000944663440F4A41680A431A6003781B01634419680C4A11400C4A4468224091420AD182685A6003781B0163445A6883689A4203D0012002E0012000E0002010BD84
:400B800020002E4008008000F7007F00F7FF7FFF70B500240AE063001B199800104B1818FFF7CAFF002805D10134E4B2072CF2D9002500E00125002D0BD00FE0230108482C
:400BC0006030C018FFF76CFF002806D10134E4B200E000240F2CF1D900E00125280070BD781A0000002809D10C4B19680C4A0A401A601B689B040CD501300DE0074B1A6883
:400C0000802189010A431A601B680B4203D1012002E0002000E000207047C04614002E40FFDFFFFF10B580221206334B1A60334A136801218B431360A0231B0100E0013B13
:400C4000002B03D02D4A1268D207F8D4002B49D01C2000F02DFA2A491C2000F035FA03211C2000F043FA0020FFF748FE002819D1FFF760FE002817D1FFF7B4FF002815D165
:400C80000023002201210C30FFF774FE00280FD1FFF7C0FE00280DD1FFF7D8FE00280BD001230AE0012308E0012306E0012304E0012302E0012300E00023002B14D1FFF739
:400CC00067FF002812D10F48FFF7DCFE00280FD10A4B1A6807218A431A601B68194209D0013008E0012006E0012004E0012002E0012000E0002010BD00042E4010002E4051
:400D0000310D00000112000010B5084B1B78002B02D1FFF787FF00E00020002804D10122024B1A70FFF7C6FD10BDC046680100207047C046F8B54F464646C0B4040001200D
:400D40000023984691E04C4B1B6832041A427AD12379002B01D1002701E08027BF036379002B07D12B01454A94466344226852055A6009E080235B031F432B013F4A94466F
:400D800063442268D2005A60A379072B03D81B041F43B94603E080231B031F43B946E379002B03D004234A461A43914600232AE0032B13D92801324A9446604402689446D5
:400DC0005907CA1AD1003831FF228A4067469743E268D25C8A403A43026012E02801274A94466044826894465907CA1AD1001831FF228A4067469743E268D25C8A403A4385
:400E000082600133DBB2A279934201D2072BCFD91C2000F04DF92B01184A94466344194A4F4617431F60227A002A04D0196803220A431A6003E0196801220A431A601C208F
:400E400000F02CF900207600F6B2002807D00135EDB201E001260025072D00D873E7002806D043460133DBB298464346022BF1D90CBC90469946F8BD08002E4020002E40DC
:400E80002C002E4008008000074B1B78272B05D8064B1B78DBB2064A136004E0054B1B78DBB2034A1360704702F3FF0F42F3FF0F20FF0B40C1F1FF0F00230AE0204A12689C
:400EC0003F210A401F49C95C8A4201D1033303E001332D2BF2D903231B4A12781B2A16D8302B05D1194B1B78DBB2194A136006E0182B04D1174B1B78DBB2154A1360164929
:400F00000B681F229343173A13430B6016E0302B05D1124B1B78DBB20D4A136006E0182B04D10F4B1B78DBB2094A13600A4A13681F218B430B4909780B4313607047C04639
:400F40002CFF0B40D81B000002F3FF0F3FF3FF0F28FF0B403EF3FF0F34FF0B40C3F1FF0FC2F1FF0FC0F1FF0F00230AE00D4A12683F210A400C49C95C8A4201D1033303E09B
:400F800001332D2BF2D9032308490868084A02400A60084A944663441B78DBB2064A13607047C0462CFF0B40D81B000000002240FFFFFFBF4DF3FF0F28FF0B40034B18686D
:400FC0008023DB05184000D0012070470000224010B50B4A136801218B431360094B1A68094B1A60094A12685A60FFF765FFFFF74BFF074A116802230B43136010BDC046CC
:4010000050000C4034FF0B406C01002020FF0B4024002C4030B500230AE0134A12683F210A401249C95C8A4201D1033303E001332D2BF2D903230E490A68022082430A60CE
:401040000C4C21681F2291430B4805682A400A4322604168094A1160094A944663441B78DBB2084A136030BD2CFF0B40D81B000024002C4034FF0B406C01002020FF0B4000
:401080004DF3FF0F28FF0B40034B1B680220184000D001207047C04624002C401F2318401E3B8340014A13607047C04600E100E01F2318401E3B8340014A13607047C046C4
:4010C00080E100E001BE704770B504000D001F2802D90020FFF7F6FF1034A40080239B059C4664442068256070BDC04670B504000E00032902D90020FFF7E4FF1F2C02D984
:401100000020FFF7DFFF03252540ED00063500F068FAA408A400074B9C46644421680323AB4099430B003100A9401943216000F05CFA70BD00E400E010B5040006E0084BD7
:40114000586800F045FA074B9C46644480231B029C42F4D8024B9868604300F039FA10BDC40000200080FFFF70B582B000F070F9002862D000F035FA0500314A11680123B2
:401180000B43136000230AE02E4A12683F210A402D49C95C8A4201D1033303E001332D2BF2D903230021294A1160294A1268D20606D1274802681F318A4313390A43026064
:4011C000244C2168244A1140244A5A438023DB019C466244D20B013A5205520D0B001343A0225203134323601D4B1B680193302000F0FEF91B4A13688021C9050B43136040
:401200002668194B1E40002407E00120FFF794FF1034A30533430F4A1360EE2CF5D90120FFF78AFFFF239B051E430A4B1E60019A0B4B1A60280000F0D8F902B070BDC046C4
:4012400050000C402CFF0B40D81B000028FF0B4034FF0B400800224000F800C040420F003000104000002240FFFF3FC010B5034B1B7B584300F0ACF910BDC046C400002057
:40128000F0B55F4656464D464446F0B483B0040000F0A7F90190FFF791FE002804D0FFF763FE01239A4601E000239A46FFF7ECFE002808D0182C01D0302C07D1FFF7AAFEA8
:4012C00001239B4604E000239B4601E000239B46E61E2D2E74D8464B1B78DBB29C4208D8444B1B78DBB29946434B1B78DBB2984631E0424B1B78DBB29C4208D8404B1B784E
:40130000DBB299463F4B1B78DBB2984623E03E4B1B78DBB29C4208D83C4B1B78DBB299463B4B1B78DBB2984615E03A4B1B78DBB29C4208D8384B1B78DBB29946374B1B7856
:40134000DBB2984607E0364B1B78DBB29946354B1B78DBB29846344B9F5D2F2F09D92A2C07D91922314B1A60052000F031F9192503E02E4B1D683F231D40BD4206D92A4B8B
:401380009A5D2A4B1A60052000F022F9254B9C4664442378DBB2264A1360264B4A461A60254B42461A600520FFF760FFBD420AD21D4B9A5D1D4B1A60052000F009F902E096
:4013C0000020FFF77FFE5346012B01D1FFF7CCFE5B46012B01D1FFF7FBFD019800F005F903B03CBC90469946A246AB46F0BDC04640F3FF0F41F3FF0F42F3FF0F43F3FF0FF9
:4014000044F3FF0F45F3FF0F46F3FF0F47F3FF0F48F3FF0F49F3FF0F4AF3FF0F4BF3FF0F4CF3FF0F4DF3FF0FD81B00002CFF0B4028FF0B401CFF0B4020FF0B40034B186854
:40144000C0231B02184000D00120704700010B40034B1B68002B01DA012000E0002070470000224010B500F0BCF8044A1368C02109020B43136000F0B8F810BD00010B4077
:4014800010B500F0AEF808490A68084B1A408024E40122430A600A6813408022120213430B6000F0A2F810BD00010B40FF3FFFFF70B5050000F095F80400FFF7BFFF002867
:4014C00003D0FFF7DDFF012100E0002108482840084A1568084B2B40184310601368012901D1FFF7BFFF200000F07FF870BDC0460404040010020B40FBFBFBFF10B5244BA2
:401500001B685B0715D5234B5B685B070ED5224B596A042001401F4C62688A4362605A6A82435A629B69002B00D098470420FFF7BFFF174B1B685B0518D5164B5B685B055C
:4015400010D5154B596A8022D2001140114842688A434260596A114A0A405A62DB69002B00D098478020C000FFF7A2FF084B1B685B030CD5074B5B685B0304D5064B1B6ABC
:40158000002B00D098478020C002FFF791FF10BD10020B40D80000208C010020FFFBFFFF04490A68D2B240239A43800118401043086070470004044004490A68D2B2102316
:4015C0009A4300011840104308607047000404400230800803D00138FDD1C046C046C0467047EFF3108072B6704780F31088704770B50400FFF7F5FF0500102C05D8104A00
:40160000136803218B43136016E0202C07D80C490B6803229343023A13430B600CE0302C07D807490B6803229343013A13430B6002E00020FFF746FD2800FFF7D6FF70BDAD
:4016400030001040014B18687047C046400100200E4B70B500251E000D4CE41AA410A54204D0AB00F35898470135F8E700F0CCFA084B00251E00084CE41AA410A54204D082
:40168000AB00F35898470135F8E770BD141C0000141C0000141C00001C1C0000002310B59A4203D0CC5CC4540133F9E710BD03008218934202D019700133FAE770470000FA
:4016C0000000000000300F40000800400F40000882728538860F00010110040C0508080309800DE70F18101F11C0140C151816131A031B041C0F1DFF1E102013213C220CC3
:4017000023C2240427E3280229442C082D1C2FE130103138331F360F37C038023A803B0856025713580459045B045F01810188068A018D01900192069406950196019A0112
:401740009C07A402A501A806AC04B207B607B701BA88BF40D804D904DF0100100402051409080A040B820D090E0510281211130415101691181019881A011D021F4023014C
:4017800025082609270229082C802D802E042F04310834803506372039023A803B823D103E923F045F016F15742875047603C072C2FFC4F7CAF2CCF2CEF9D68000030C025C
:4017C0000D060F01140317031B011F022305260127063203330738083B083E044003460449FF4A074BFF4C404D204EF04F055008580459045A045F01604061A86240632010
:401800008001811082068407871088078B048F01920893019404951096019A089B02A710AB0CAC02AE01AF10B106B208B308B407B510B701BA02BE04BF51C032C104C20503
:40184000C401C50EC60CC805C9FFCAFFCBFFCC62CDA0CEF0CF41D00CD418D804D904DA04DB04DF01E640E702E910EA30EB10ED10EE10EF12004203020502071409080D02AD
:401880000E100F0810201108154018101D101F092108220826802768280829042A022B082F2630A032083510360B38403C023D083E123F80401044804520462047404820D7
:4018C0004E024F08508057405F0262C0640866407C807F01938094029614970A99029B179C809D109F20A102A201A880A912AA08C079C274C484CA73CCEECEF8D0F2D2100D
:40190000D680D83000100102020C030C040905010610080C0A110C1C0D180E020F061203144015021620171C18141C101F10208024E0270628E02B182C202D202E40301F6D
:40194000311E32603320348035013B023F1440134106450B46C0470E481949FF4AFF4BFF4EF04F44500C5401580459045A045B045F0166C06A406B0289038B048D0A8E0162
:401980008F04950397049B059C019D039F0CA402A708A801B203B70FB808BB80D804D904DF01004004400524074009800CC00D020E100F08110812081540171519041B084B
:4019C0001D221E141F022002218024402508270829042C202F0A30203180320833403440360838403A103C4A45844D204E084F085404561057305D805F1A63308404870256
:401A0000890891409440961499809B159D04A0A0A104A208A401A520A720A801A9C0AB08AE20AF44C0F1C2F1C4F6CA72CC5ECEDCD050D220D6F0E62003205110C010D420C2
:401A400089109520AB20AF20EC3010011201130103000F4042320F4031330F405C340F4048350F404F360F404B370F4004420F4005430F4003600F400000000008008800A4
:401A80000000000001000000080088000000000002000000080088000000000003000000080088000000000004000000080088000000000005000000080088000000000047
:401AC00006000000080088000000000007000000080088000000000000000000A8008000FFFFFFFF0000000001000000A8008000FFFFFFFF0000000002000000A800800046
:401B0000FFFFFFFF00000000030000000000000000000000000000000400000000000000000000000000000005000000000000000000000000000000060000000000000097
:401B400000000000000000000700000000000000000000000000000008000000000000000000000000000000090000000000000000000000000000000A0000000000000043
:401B800000000000000000000B0000000000000000000000000000000C0000000000000000000000000000000D0000000000000000000000000000000E00000000000000F3
:401BC00000000000000000000F000000000000000000000000000000030405060708090A0B0C0E0F101112131415161718191B1C1D1E1F2021222325262728292A2B2E2F15
:401C00003031323334354300F8B5C046F8BC08BC9E467047950200004D080000F8B5C046F8BC08BC9E4670476D020000401C0000C00000208800000048010000000000003E
:401C400000000000010000000000C05D80BB000030000000006CDC02F000000004040400000000000000000000000000000000000000000000000000000000000000000095
:401C8000061C000000000000000000000000000000000000000000000000000000000000000000000000000000000000000000000000000000000000000000000000000002
:401CC000E0000020000000000000000000000000000000000000000000000000000000000000000000000000000000000000000000000000000000000000000000000000E4
:401D000000000000000000000000000000000000000000000000000000000000000000000000000000000000000000000000000000000000000000000000000000000000A3
:401D40000000000000000000000000000000000000000000000000000000000000000000000000000000000000000000000000000000000000000000000000000000000063
:401D80000000000000000000000000000000000000000000000000000000000000000000000000000000000000000000000000000000000000000000000000000000000023
:401DC00000000000000000000000000000000000000000000000000000000000000000000000000000000000000000000000000000000000000000000000000000000000E3
:020000040001F9
:0200000490303A
:02000000ADE66B
:0200000490402A
:4000000000000000000000000000000000000000000000000000000000000000000000000000000000000000000000000000000000000000000000000000000000000000C0
:0200000490501A
:0C0000000002100B11A000011013BF86BD
:0200000490600A
:0100000001FE
:00000001FF