:400000000080002011000000150E0000150E000010B500F007FFC04610B51222234B1A60302001F03FFC224A224B1A600022224B1A60224B22491960224823490860234954
:400040001960802040002249086022491960C020C0002149086021491960C02040012049086020491960E02040011F4908601F491960822109061E4B19601E491E4B196078
:40008000C0231E490B6041201D4908601D490B601D490B6042211D4B196001311C4B196001311C4B19601C4B1A6010BD300010400600008004010B400003014000000140C9
:4000C00040FF0080007F1A0600050140C0FF00800403014041FF00800803014042FF00800C03014043FF00801003014044FF008008010B404902060000010B405801014054
:4001000050010140300101402C01014028010140100101400C0101400C020B4010B572B60122424B1A7000240FE041486200131959000B00411889881A5AC3185888000498
:40014000104300F02FFE0134E4B2012CEDD938490C313848143000F00BFEA0221201364B1A800122354B1A70354A364B1A609922354B1A60EE221202344B1A60EE22344BDE
:400180001A6099231B04334A1360334A1360334A1360334A1360334A1360334A1360334A334B1A60334A344B1A600723334A1360334A136033490B783C2293431422134396
:4001C000DBB20B70304A117816230B43DBB2137002222E4B1A602E4A2E4B1A60902292002D4B1A60C13AFF3A2C4B1A60C2232C4A136031212B4A11602B4A1360F2222B4B08
:400200001A602B4A2B4B1A600F222B4B1A602B4A2B4B1A6003222B4B1A6021322A4B1A60FFF7FAFE00F0D4FD10BDC0461C700F40F85200007855000000600F4002600F402E
:40024000AA0000080000024000020240000302400005024000500F4010500F4020500F4040500F4050500F4070500F40F0000E002001204090000D00600120402000104083
:4002800000800F4001700F4000700F40000004407102040008000440080104401801044000020440080204401802044000030440902D4900080304400004044092641B0058
:4002C00008040440000504400805044010B5064C2378002B07D1054B002B02D0044800E000BF0123237010BD4001002000000000F0520000084B10B5002B03D0074908484A
:4003000000E000BF07480368002B00D110BD064B002BFBD09847F9E70000000044010020F0520000C00000200000000070B504001E00012000F032F820800823A370E51CAD
:40034000F621280000F038F82418E670421C0499280000F043F870BD10B503300822042100F048F810BDC04610B5FFF7F5FF10BD10B5FFF7F9FF10BD8079704770B50400F2
:400380001D00002000F00AF820800423A370E01C092100F011F82418E57070BD80028023DB0018408901403B194001433F200240114308007047C04610B50400017000F079
:4003C000B7F8607000F0AEF8A070032010BDC0464079704700797047C078704710B50B0E8354531C0C14C454931C0C12C4540332815410BD70B50600002A09DD002909DBF3
:40040000521A0132042A00DD0422002A05DC03E0042202E0042200E000220024002007E06318F55C531E1B1BDB009D4028430134A242F5DC70BDC046407940B27047C04688
:40044000407970470079704700797047F8B504000D0000F06BFF0F2020401A4E30603F212940194B1960194C00252570800108434005E060164FA760164B1B6863602000C4
:4004800000F01EFE01232370E560A760124B1B686360200000F014FE022323703368DB06FC22D2041343E360A7600C4B1B686360200000F005FE00F0FFFC09491D2001F085
:4004C00015F9F8BD98010020AC0100209C010020FFFF1F80A0002F40C0002F40E0002F40D505000010B586B0002815D0038802AC02930023237163718278A271E3716B467F
:400500000593C11C0822684604F0E0FE200000F023FF002802D102E0022000E0012006B010BDC046014B18787047C046AC010020014B18787047C04698010020104B18783E
:40054000C0B2002819D15A78D2B29B78DBB29A4205D20B4A93785078181AC0B20EE0084B5A78D2B29B78DBB29A4207D9044A93785078181A1030C0B200E010207047C046BD
:400580005C010020124A93780133DBB293709378DBB20F2B02D900220D4B9A700C4B1B78002B0BD00A4A53780133DBB253705378DBB20F2B02D90022054B5A70044A53780D
:4005C00091785B1A59424B41DBB213707047C0465C01002070B580225201444B1A60444B1B68DA0706D49A0706D45A0706D41B0706D406E0002404E0012402E0022400E06F
:4006000003243C4B9A78D2B264013B4B9C4664442368DB0202D46168490D02E06168C90889B2364B500082189000C152314A9178C9B22068000C0F2528404D0069188D0055
:400640005D19A8709178C9B2A5682D0E4800411888001818C5709178C9B2A068000CC0B24D0069188D005D1928719178C9B2A068000AC0B24D0069188D005D196871917863
:40068000C9B2A568EDB2480041188800181885719178C9B2E5682D0E4800411888001818C5719178C9B2E068000CC0B24D0069188D005D1928729178C9B2E068000AC0B22C
:4006C0004D0069188D005D1968729278D2B2E068C0B251008A1891005B189872FFF752FF226801231343236070BDC04600002F4008002F405C010020A0002F40B0010020C2
:4007000010B5FFF71BFF00280BD0064A53780133DBB253705378DBB20F2B02D90022014B5A7010BD5C01002010B582B0041E17D0FFF704FF6B46D87107331B78002B11D087
:400740000A4B5B78DBB25A00D3189900084B59180C22200004F0BAFDFFF7D2FF002002E0022000E0022002B010BDC0465C010020B0010020272070470020704710B5431C70
:40078000642B06DC0303181A642102F049FA273007E00303181A642102F042FA024B9C466044C0B210BDC04627F0FFFF10B5431C642B06DC0303181A642102F031FA2730BA
:4007C00005E00303181A642102F02AFA27300012C0B210BD70B505000C0001F0ABFC002302222900200001F0C5FC00280DD101F089FC8307FBD501F085FC830507D401F0ED
:400800007BFC022805D0FF2004E0FF2002E0FF2000E0002070BDC04600B583B001F090FA01F082FA01A800230370803343704021FFF7D0FF03B000BD00B583B001AB1870C5
:40084000597040211800FFF7C5FF03B000BDC04670B50D008000C4B2A61DF6B2FFF78AFF01003000FFF7E8FFFFF786FF0100E31DD8B2FFF7E1FF2800FFF780FF0100230049
:400880000833D8B2FFF7D8FF2800FFF78FFF01000934E0B2FFF7D0FF70BDC04610B5022001F022FE10BDC04610B501F0DFFC03230340054C012202212000FFF75FFD200044
:4008C000FFF710FE10BDC0467002002010B501F00BFF0C4A13780133137053780133DBB25370022B05D9002001F0D0F8002001F0C1F8044B1B78022B02D9002001F0D2F875
:4009000010BDC0466001002070B582B062B601F0B3FC5A4801F0E2FC594801F0D7FE594801F00CFF01210720FFF790FD01F09EF9FFF772FF01F048FD01F0C6FD08210220EF
:4009400001F07EFD01F0EAFD00F0E0F800F0EEF900244D4B1C6001F04FFD4C4B18604C4B1C70002001F092F84A48FFF7DDFE0190019B002BF8D1012001F094F80022464B7D
:400980001A704448FFF728FD0E283ED004DC0C2807D00D2826D061E0F4280BD0F52846D05CE0002001F07EF83A48FFF74BFD384B187053E0002001F075F801F0D6FE050038
:4009C0003448FFF7D5FC0400280001F0D2FE002C02D000F0C1F901E001F046FE012001F061F83BE0002001F05DF82A4C2000FFF72BFD05002000FFF723FD0100280000F015
:400A0000F9F8012001F04EF828E0002001F04AF8204C2000FFF718FD05002000FFF70CFDC1B2280000F03EF9012001F03BF8002001F038F8174C2000FFF79EFC05002000D7
:400A4000FFF7C8FC06002000FFF7C2FC02003100280000F091F8012001F024F80A4B1B68002B81D00D4A1268934200D97CE700220A4B1A6000F0ACF876E7C046A908000011
:400A80009D080000CD080000900200208C020020880200207C020020600100209402002010B5040001F0F2F8022001F003F901F0F7F8200001F012F980B210BDF8B504007E
:400AC00017001D0001F036FB14220121200001F047FA060000240FE06B1E9C4205DA39191422002001F0CAFA04E039191422012001F0C4FA0134E4B2AC4201D2002EEBD089
:400B0000142001F08FFAC0B2F8BDC04600B583B001F016F901F008F90222094901A804F0D5FB01F007FB01236A46073218211820FFF7C4FF702101A8FFF74CFE03B000BD09
:400B4000F452000030B583B001F0F4FA6B46DD1D00232A0073217320FFF7B0FF6B469C1D0023220071217120FFF7A8FF287800022378184303B030BD70B586B004000D0061
:400B8000160017280CD0182802D016280BD103E00020FFF785FF07E00120FFF781FF03E0FFF7D0FF00E00020009023003200290003A8FFF7BBFB03A8FFF794FC002805D0A2
:400BC000002000F063FF012000F060FF06B070BD10B5012207211820FFF7CEFF012207211620FFF7C9FF012207211720FFF7C4FF10BDC04670B50400B32900DDB3210029F9
:400C000000DC0121042C42D810D0052C1AD0012C24D1080002F072FE1D4902F099FA1D4902F0B0FB061C01231B4D1EE0080002F065FE174902F08CFA061C0123FE25AD05FB
:400C4000052412E0080002F059FE114902F080FA061C0123FE25AD05072406E0002000F015FF012000F012FF0023002B0FD0311C281C02F0F7F8094902F06AFA084902F046
:400C800081FB02F0B9F881B22000FFF7E1FD70BD00003443CDCC4C3FCDCC8C3F0000A0400000C842F8B504000F00022816D0032806D0002809D10125FC26B605083410E0D6
:400CC0000125FC26B6050F240BE0002000F0DEFE012000F0DBFE0025002602E001250F4E0924380002F00AFE0D4902F031FA011C301C02F047FB04F015F80022094B02F075
:400D000045FE0022084B03F06DF902F08DF8002D03D001002000FFF79BFDF8BDCDCCCC3E0000C8420000F83F0000144010B500210020FFF7B7FF00210220FFF7B3FF0021D1
:400D40000420FFF7AFFF10BD024A1368013313607047C0469402002010B50022024B1A60024801F073FC10BD94020020490D0000F0B50025002711E0BB00C658F3B2FF224B
:400D8000964308E06A008A181478A419527822700135013BDBB2002BF4D101370F2FEBD9F0BDC04610B50A00002104F098FA10BD064B1B68002803D080221206134301E0E2
:400DC0005B005B08014A13607047C04680033A4010B50323094A1360094A136080221206084B1A60C023084A1360084A13600022074B1A600120FFF7DBFF10BD3000304006
:400E00003000314000003A4000033A4040033A40000E3F4010B504F02DFA03680C2B00D1FEE7FEE770B50F4E0F4D13E029686B68AC68002202E001C901C30432A242FAD1F3
:400E4000E868002202E0002102C304328242FAD11035013E002EE9D104F012FAFFF754FDFEE7C046010000009058000010B50E4A136801218B43136000230AE0032B03D8DB
:400E80009A000A49505800E009489900094A885001332F2BF2D9FFF741F9034A116801230B43136010BDC0460000104000000000150E000000000020054B1A6801210A43CD
:400EC0001A601B68194201D1012000E00020704704002F4010B50E4A0E4B1A60FFF7ECFF1D2000F0EDFB0C4A116801230B431360F0231B0100E0013B002B03D0064A1268D0
:400F0000D207F8D5002B01D1012000E0002010BD0110000000002F4010002F4003B2002B0DDB094A1168094B0B400004034313601268074B1340984203D0012002E0022040
:400F400000E000207047C04614002F40FFFF00800000FF7F002809D10C4B19680C4A0A401A601B68DB040CD501300DE0074B1A68802149010A431A601B680B4203D1012095
:400F800002E0002000E000207047C04614002F40FFEFFFFF70B5841EE4B20D2C35D88C1EE4B2052C03D9002B31D1012931D1032A31D8904231D3914231D31C4D2C68240AAC
:400FC000E4B20F26B44320432E68194C3440000204432C602C686040F0242401204220D1002B00D002234901C9B29200D2B2114319430E4A1368EE2083430B43136013683A
:40100000034099420FD0ED380EE002200CE002200AE0022008E0022006E0022004E0022002E0012000E0002070BDC04614002F40FFF0FFFF002809D10B4B1A6810218A43CE
:401040001A601B6819420BD001300CE0064B1A6810210A431A601B68194203D1012002E0002000E00020704714002F40002809D10B4B1A6801218A431A601B6819420BD04A
:4010800001300CE0064B1A6801210A431A601B68194203D1012002E0002000E00020704714002F40054B18601B681B041B0C984201D0012000E000207047C04604002F40BB
:4010C00010B503785B01204A944663441F4A41680A431A6003785B01634419681C4A11401C4A44682240914224D182681A6103785B0163441A6981688A421DD1C2685A61B0
:4011000003785B0163445A69C1688A4216D1012252429A6103785B0163449A6901320FD10022DA6103785B016344DB69002B09D0012008E0012006E0012004E0012002E011
:40114000012000E0002010BDA0002F40800080007F007F007FFF7FFF10B503781B01104A944663440F4A41680A431A6003781B01634419680C4A11400C4A446822409142DB
:401180000AD182685A6003781B0163445A6883689A4203D0012002E0012000E0002010BD20002F4008008000F7007F00F7FF7FFF70B500240AE063001B199800104B181837
:4011C000FFF7CAFF002805D10134E4B2072CF2D9002500E00125002D0BD00FE0230108486030C018FFF76CFF002806D10134E4B200E000240F2CF1D900E00125280070BDDC
:40120000CC550000002809D10C4B19680C4A0A401A601B689B040CD501300DE0074B1A68802189010A431A601B680B4203D1012002E0002000E000207047C04614002F40AB
:40124000FFDFFFFF10B580221206344B1A60344A136801218B431360C8231B0200E0013B002B03D02E4A1268D207F8D4002B4AD01D2000F02FFA2B491D2000F037FA032174
:401280001D2000F045FA1320FFF748FE00281AD1FFF760FE002818D1FFF7B4FF002816D10023012201210C30FFF774FE002810D10130FFF7BFFE00280DD1FFF7D7FE002831
:4012C0000BD001230AE0012308E0012306E0012304E0012302E0012300E00023002B14D1FFF766FF002812D10F48FFF7DBFE00280FD10B4B1A6807218A431A601B681942F1
:4013000009D0013008E0012006E0012004E0012002E0012000E0002010BDC04600042F4010002F40551300000110000010B5084B1B78002B02D1FFF785FF00E00020002802
:4013400004D10122024B1A70FFF7C4FD10BDC046620100207047C046F8B54F464646C0B4040001200023984691E04C4B1B6832041A427AD12379002B01D1002701E08027BC
:40138000BF036379002B07D12B01454A94466344226852055A6009E080235B031F432B013F4A944663442268D2005A60A379072B03D81B041F43B94603E080231B031F436E
:4013C000B946E379002B03D004234A461A43914600232AE0032B13D92801324A94466044026894465907CA1AD1003831FF228A4067469743E268D25C8A403A43026012E0F8
:401400002801274A94466044826894465907CA1AD1001831FF228A4067469743E268D25C8A403A4382600133DBB2A279934201D2072BCFD91D2000F04DF92B01184A944626
:401440006344194A4F4617431F60227A002A04D0196803220A431A6003E0196801220A431A601D2000F02CF900207600F6B2002807D00135EDB201E001260025072D00D802
:4014800073E7002806D043460133DBB298464346022BF1D90CBC90469946F8BD08002F4020002F402C002F4008008000074B1B78272B05D8064B1B78DBB2064A136004E0A5
:4014C000054B1B78DBB2034A1360704702F3FF0F42F3FF0F20FF0B40C1F1FF0F00230AE0204A12683F210A401F49C95C8A4201D1033303E001332D2BF2D903231B4A12784A
:401500001B2A16D8302B05D1194B1B78DBB2194A136006E0182B04D1174B1B78DBB2154A136016490B681F229343173A13430B6016E0302B05D1124B1B78DBB20D4A136032
:4015400006E0182B04D10F4B1B78DBB2094A13600A4A13681F218B430B4909780B4313607047C0462CFF0B402C57000002F3FF0F3FF3FF0F28FF0B403EF3FF0F34FF0B4092
:40158000C3F1FF0FC2F1FF0FC0F1FF0F00230AE00D4A12683F210A400C49C95C8A4201D1033303E001332D2BF2D9032308490868084A02400A60084A944663441B78DBB201
:4015C000064A13607047C0462CFF0B402C57000000002240FFFFFFBF4DF3FF0F28FF0B40034B18688023DB05184000D0012070470000224010B50B4A136801218B431360E9
:40160000094B1A68094B1A60094A12685A60FFF765FFFFF74BFF074A116802230B43136010BDC04650000C4034FF0B406401002020FF0B4024002C4030B500230AE0134A7A
:4016400012683F210A401249C95C8A4201D1033303E001332D2BF2D903230E490A68022082430A600C4C21681F2291430B4805682A400A4322604168094A1160094A9446EF
:4016800063441B78DBB2084A136030BD2CFF0B402C57000024002C4034FF0B406401002020FF0B404DF3FF0F28FF0B40034B1B680220184000D001207047C04624002C4072
:4016C0001F2318401E3B8340014A13607047C04600E100E01F2318401E3B8340014A13607047C04680E100E001BE704770B504000D001F2802D90020FFF7F6FF1034A400C5
:4017000080239B059C4664442068256070BDC04670B504000E00032902D90020FFF7E4FF1F2C02D90020FFF7DFFF03252540ED00063501F01AF8A408A400074B9C46644467
:4017400021680323AB4099430B003100A9401943216001F00EF870BD00E400E010B5040006E0084B586800F0F7FF074B9C46644480231B029C42F4D8024B9868604300F03B
:40178000EBFF10BDC40000200080FFFF70B582B000F066F9002862D000F0E7FF0500314A116801230B43136000230AE02E4A12683F210A402D49C95C8A4201D1033303E061
:4017C00001332D2BF2D903230021294A1160294A1268D20606D1274802681F318A4313390A430260244C2168244A1140244A5A438023DB019C466244D20B013A5205520D42
:401800000B001343A0225203134323601D4B1B680193302000F0B0FF1B4A13688021C9050B4313602668194B1E40002407E00120FFF794FF1034A30533430F4A1360EE2C8C
:40184000F5D90120FFF78AFFFF239B051E430A4B1E60019A0B4B1A60280000F08AFF02B070BDC04650000C402CFF0B402C57000028FF0B4034FF0B400800224000F800C06C
:4018800040420F003000104000002240FFFF3FC010B5034B1B7B584300F05EFF10BDC046C4000020F0B55F4656464D464446F0B483B0040000F059FF0190FFF791FE00280C
:4018C00004D0FFF763FE01239A4601E000239A46FFF7ECFE002808D0182C01D0302C07D1FFF7AAFE01239B4604E000239B4601E000239B46E61E2D2E74D8464B1B78DBB2E0
:401900009C4208D8444B1B78DBB29946434B1B78DBB2984631E0424B1B78DBB29C4208D8404B1B78DBB299463F4B1B78DBB2984623E03E4B1B78DBB29C4208D83C4B1B78BD
:40194000DBB299463B4B1B78DBB2984615E03A4B1B78DBB29C4208D8384B1B78DBB29946374B1B78DBB2984607E0364B1B78DBB29946354B1B78DBB29846344B9F5D2F2F5F
:4019800009D92A2C07D91922314B1A60052000F0E3FE192503E02E4B1D683F231D40BD4206D92A4B9A5D2A4B1A60052000F0D4FE254B9C4664442378DBB2264A1360264B74
:4019C0004A461A60254B42461A600520FFF760FFBD420AD21D4B9A5D1D4B1A60052000F0BBFE02E00020FFF77FFE5346012B01D1FFF7CCFE5B46012B01D1FFF7FBFD019815
:401A000000F0B7FE03B03CBC90469946A246AB46F0BDC04640F3FF0F41F3FF0F42F3FF0F43F3FF0F44F3FF0F45F3FF0F46F3FF0F47F3FF0F48F3FF0F49F3FF0F4AF3FF0F13
:401A40004BF3FF0F4CF3FF0F4DF3FF0F2C5700002CFF0B4028FF0B401CFF0B4020FF0B40034B1B68002B01DA012000E0002070470000224004490A68D2B220239A4340018F
:401A800018401043086070470004044004490A68D2B240239A43800118401043086070470004044004490A68D2B210239A43000118401043086070470004044010B50321AF
:401AC0001120FFF725FE43491120FFF70FFE0322414B1A60414B1B68002B01DA404900E04049414A13680B431360404A404B1A60404A414B1A600023404A1360404A414990
:401B00000A6041490A60414A116880204002014311603F490A6802430A603E4A13603E4A136001223D4B1A603D4A11683D4B0B40802189050B431360002248E03A489100C8
:401B40000C58DC239B0123408018007A03433748844661440B60E30707D52E480168012393401B041B0C0B43036093002E495B589B0707D528480168012393401B041B0C6E
:401B80000B4303609300284959588B0502D58020400001E080204001CB0504D45300002423495C5203E05300002421495C52214B43438021C9008C466344D9174905490DA2
:401BC000CB18DB121BB290001B4943500132012AB4D910BD091D000020003A4080033A40C0201010C020001000003A408C00008004003A400000FF0718003A401C003A402A
:401C00000400040010003A4014003A4000033A4040033A4028023A4038023A4018023A4030003A40FEFFFFDF5C57000080003A40A0020020102700009802002010B5094B60
:401C40001B68002B0CDB084B1B68002BFBDB054A1368802109060B4313600A20FFF718FE10BDC04600003A4008023A4010B5064B1B78002B04D1FFF721FF0122024B1A70FD
:401C8000FFF7DCFF10BDC04684010020034A1368802149020B4313607047C04604003A40024A1168024B0B401360704704003A40FFFFFEFF020083070CD0074B1B680120CD
:401CC000184001D19307F8D4002804D00122024B1A6000E00020704710023A4010B50400012802D90020FFF7FFFC012C07D8A400044B9C46644420680004000C00E000202C
:401D000000B210BD80013A40014B1A681A60704710023A4010B50B20FFF7D2FC10BDC04610B500F01DF810BD10B5044A1368802109060B431360FFF7EDFF10BD000026406C
:401D400010B5064B1B78002B04D1FFF7E9FF0122024B1A70FFF7E8FF10BDC0468801002010B50024184B1C60184A194B1A60194B194A1360194A1460194A1460194A1360C3
:401D8000194B1C600B20FFF7A5FC03210B20FFF7BFFC16490B20FFF7A9FC154B1C60154B1C60154B1C60154B1C60154B1C60154B1C601022144B1A70144B1C80144B1C6043
:401DC000144B1C6010BDC046000026407708008060002640070100800003264004032640100326400002264004022640CD270000C80E2640880E2640480F2640080F2640F9
:401E0000C80F2640880F2640A4020020B4020020C4020020AC02002010B50E4A13685B005B08136000230C490B600C490B600C4804680C49214001600B490B600B490B6057
:401E400010210B4B19701368802109060B43136010BDC04600002640680026406C00264060002640FF5CFFFF880F2640C80F2640A402002010B504000368002B09D0012015
:401E8000FFF706FD2368013B2360002B03D0002003E0002001E08020000610BD10B5002839DBC023034208D00022284B1A601032274B1A70002310243DE0C3070FD5244B8B
:401EC0001B781B072BD5234B1B685B0001D5002300E0012310211E4A117001242BE0C30520D4830722D4C30605D51022184B1A70002300241FE0164B1B781B0719D5144BF3
:401F00001B78DB0701D5252200E02422104B1A70002300240FE00123802424060BE00123012408E001238024640004E00023022401E000230024012B02D1FFF76DFF02E0FC
:401F4000054A064B1A60200010BDC04668002640A40200206000264017030000000F264070B582B004000D001600244B1B78102B40D10B20FFF7AEFB214B1B68DB0734D4FC
:401F8000FA239B005E43019600221E4B1A601E4A1E4B1A601E4A1F4B1A606400FF231C40002D03D12422154B1A7004E02522134B1A7001231C43184B1C600222174B1A600D
:401FC000124B1C680823FF3320001840144B1B68C02423401843040001A8FFF74BFF2043EED0FFF75BFF040000E008240B20FFF767FB00E00424200002B070BDA4020020E9
:4020000064002640080F264017030000000F2640ED0F0000C00F26404002264068002640400F264010B582B0104B1B789B061AD5FA239B00584301900D4B1B689B0601D5C3
:40204000182200E010220B4B1A600B4B18681223FF331840040001A8FFF70CFF2043F4D0FFF71CFF00E0042002B010BDA40200206400264068002640000F2640F0B583B09B
:4020800004000D00164B1B789B0626D5FA239B005A430192134B18680223FF3318400700114B1B6804261E4001A8FFF7E3FE384333000343EED0002E05D00C4B1B682B70F2
:4020C0000B4A094B1A60FFF7E9FE002806D1002C04D10422074B1A6000E0042003B0F0BDA4020020000F2640C00F264040032640ED0F000068002640014B18687047C0461E
:40210000AC02002010B50B20FFF7E4FA074B1C88A2B21400064B1B789B0602D504231A4394B20B20FFF7CCFA200010BDB4020020A402002010B50B20FFF7CCFA044B1C887A
:40214000A4B200221A800B20FFF7BAFA200010BDB4020020054B1B682022134000D0082301221343024A13607047C0466400264068002640F0B583B001900C0017001D001C
:40218000002917D02A4B1B78102B08D10B20FFF7A1FA284B1B68DB070ED508260FE0244B1B78602B0AD1244A138808218B431380002604E0042602E0002600E00426002EF0
:4021C0002FD128221A4B1A7000231C4A13601C4A13601C4B1F601C4B1C60EAB21B4B1A70019B5C00FF231C40134A138802218B4313804023164A13601649174A11601421EE
:40220000FF31164A1160164A1360EB0704D5FFF7A1FF144B1C6004E0124B1C600222124B1A600B20FFF74CFA300003B0F0BDC046A402002064002640B4020020A8020020A9
:40224000AC020020B0020020C8020020BC020020800F264017030000000F2640080F2640880F26404002264068002640014B1878C0B2704764000F4010B500F076FA044A57
:40228000117810230B43DBB2137000F072FA10BD94000F40014B98647047C0460000002010B5040000F061FA044A1168044B0B40A4051C43146000F05CFA10BD00E400E00B
:4022C000FFFF3FFF0422014B1A60704700E100E00422014B1A60704780E100E010B50400FFF7F6FF2000FFF7D5FF0320FFF7D8FFFFF7E8FF10BDC0460004000C014B186048
:402300007047C0460801204010B5040000F02DFA054B1968054A0A401A601A6814431C6000F027FA10BDC04600012040FFFFFCFF0004000C014B18607047C046140120401A
:4023400070B504000D0000F010FAAC40024B1C6000F00FFA70BDC0460800204010B500F004FA064A116801230B43136000F001FA08210120FFF7E4FF10BDC0460000204042
:40238000014B18607047C0463801204010B5C82292040B4B1A60C32292000A4B1A600220FFF7EEFF80204002FFF7AEFF802424022000FFF7BDFF2000FFF79EFF10BDC046FC
:4023C000000120402401204010B5064B1B78002B04D1FFF7DBFF0122024B1A70FFF7BEFF10BDC046900100200004000C014B18607047C04648012040024B18680004000C36
:402400007047C0464801204010B5040000F0ADF9054B1968054A0A401A601A6814431C6000F0A7F910BDC04640012040FFFFFCFF0004000C014B18607047C046540120405B
:4024400070B504000D0000F090F9AC40024B1C6000F08FF970BDC0460800204010B500F084F9064A116802230B43136000F081F908210220FFF7E4FF10BDC0460000204043
:40248000014B18607047C0467801204010B5C82292040B4B1A60C32292000A4B1A600220FFF7EEFF80204002FFF7AEFF802424022000FFF7BDFF2000FFF796FF10BDC046C3
:4024C000400120406401204010B5064B1B78002B04D1FFF7DBFF0122024B1A70FFF7BEFF10BDC04691010020014B18607047C0467001204010B500F075F810BD10B500F0D5
:402500001DF810BD10B5044A1368802109060B431360FFF7EFFF10BD0000254010B5064B1B78002B04D1FFF7E9FF0122024B1A70FFF7E8FF10BDC04692010020154A164B00
:402540001A600023154A13601549164A1160164A16490A6007201649086016490B6006381549086015490A60154A13600421154A1160154A1360154A1360154A1360154A74
:402580001360154A1360154A13601268144B1A807047C0460B000002000025404000254001000A004800254007000080000325400403254010032540440025400002254022
:4025C0000402254050002540880E2540C80E2540480F2540080F2540C80F2540880F25409401002005490B68F0229343603A13430B60034B1A88034B1A60704700020240A9
:4026000094010020880F2540014B18647047C0460000002010B5040000F0A7F8044A1368C0218B43A4011C43146000F0A2F810BD00E400E00122014B1A60704700E100E080
:402640000122014B1A60704780E100E010B50400FFF7F6FF2000FFF7D7FF0320FFF7DAFFFFF7E8FF10BDC04610B5FFF7E9FF0248FFF7CAFF10BDC046150E00009423014A93
:40268000D05070470000002010B5040000F06DF8044A1168044B0B40A4031C43146000F068F810BD14E400E0FF3FFFFF80229203014B1A607047C04600E100E08022920347
:4026C000014B1A607047C04680E100E010B50400FFF7F4FF2000FFF7D1FF0320FFF7D4FFFFF7E4FF10BDC046014B1878C0B2704765000F40014B58647047C0460000002048
:4027000010B5040000F031F8044A1168044B0B40A4031C43146000F02CF810BD00E400E0FF3FFFFF0222014B1A60704700E100E00222014B1A60704780E100E010B50400EE
:40274000FFF7F6FF2000FFF7D5FF0320FFF7D8FFFFF7E8FF10BDC0460230800803D00138FDD1C046C046C0467047EFF3108072B6704780F31088704770B50400FFF7F5FF61
:402780000500102C05D8104A136803218B43136016E0202C07D80C490B6803229343023A13430B600CE0302C07D807490B6803229343013A13430B6002E00020FEF794FF75
:4027C0002800FFF7D6FF70BD3000104010B5AF4B1B68002B00D09847AD4B1B68DB0702D50022AC4B1A60AC4B1B789B0628D5AB4B1B68DB0507D5AA4A1188C0239B000B43A0
:402800001380012300E00023A44A1268D20706D5A34A118890239B000B4313800123002B0FD09D4A1278D20701D5012200E002229B49088802430A800021974A117000E0F2
:402840000023954A1278920600D417E1934A1268D20611D51022934B1A608F4B1B78DB0701D5012300E002238D4A11880B4313801022894B1A7007E1874A1278120720D549
:40288000864A126892070AD50222864B1A60844A118888239B000B431380012311E07E4A1278D20703D525217B4A117009E02421794A11707C4A1268002A02D014397B4AF5
:4028C0001160754A1278520700D4AEE0724A1278D20749D5764A1268120727D5754A1268754909681F240C40744909686418141B082C09D8002C16D1714A1168714B0B40A4
:402900001360012308340EE008240CE06B4A11686D48006841186D480068C0B20870116801311160013C002CF0D119E0604A1268520715D5614A1168634800684118634832
:402940000068C0B208701168013111601168594A1268914203D204215D4A116000E001235C495D4A116060E04C4A1268920726D502224C4B1A6059490B681D321A40096865
:4029800080231B020B4000D001239B18544A1168CB1A13601268534B1A60414A118884239B000B431380504B1A68802149020A431A6019684D4A0A401A60012335E04C4AA2
:4029C0001268D2061ED427E0454A1168364A126891421DD2344A1268013A414909688A4204D1402243490A6030490A603C4A11684148006841180978C9B240480160116817
:402A000001311160354A12681F210A40082ADBD11021384A116008E0354A1268520604D52F4B1A682F4B1A600123002B2CD0244A1168244B0B4013600023314A13601B4A97
:402A40001360304B1B789B070ED5134B1B78DB0701D5092300E00A23114A11880B43138060220D4B1A700FE0274B1B689B0601D5182200E01022164B1A6005E0064B1B78EA
:402A8000DB0601D4FFF7C8F910BDC0468C0100208C0E2640880E2640A40200200C0F2640B4020020000F2640B0020020880F2640CC0F2640C002002008032640C402002052
:402AC00060002640FFFEFFFFB80200204003264068002640ED0F0000C00F264008022640A8020020AC02002004022640FFFFFEFF8C0F2640800F2640C8020020400226409C
:402B0000C80F2640BC02002064002640002243088B4274D303098B425FD3030A8B4244D3030B8B4228D3030C8B420DD3FF22090212BA030C8B4202D31212090265D0030B86
:402B40008B4219D300E0090AC30B8B4201D3CB03C01A5241830B8B4201D38B03C01A5241430B8B4201D34B03C01A5241030B8B4201D30B03C01A5241C30A8B4201D3CB02C6
:402B8000C01A5241830A8B4201D38B02C01A5241430A8B4201D34B02C01A5241030A8B4201D30B02C01A5241CDD2C3098B4201D3CB01C01A524183098B4201D38B01C01AD8
:402BC000524143098B4201D34B01C01A524103098B4201D30B01C01A5241C3088B4201D3CB00C01A524183088B4201D38B00C01A524143088B4201D34B00C01A5241411AAF
:402C000000D20146524110467047FFE701B5002000F0F0F802BDC0460029F7D076E7704703460B437FD4002243088B4274D303098B425FD3030A8B4244D3030B8B4228D341
:402C4000030C8B420DD3FF22090212BA030C8B4202D31212090265D0030B8B4219D300E0090AC30B8B4201D3CB03C01A5241830B8B4201D38B03C01A5241430B8B4201D30E
:402C80004B03C01A5241030B8B4201D30B03C01A5241C30A8B4201D3CB02C01A5241830A8B4201D38B02C01A5241430A8B4201D34B02C01A5241030A8B4201D30B02C01A22
:402CC0005241CDD2C3098B4201D3CB01C01A524183098B4201D38B01C01A524143098B4201D34B01C01A524103098B4201D30B01C01A5241C3088B4201D3CB00C01A524166
:402D000083088B4201D38B00C01A524143088B4201D34B00C01A5241411A00D201465241104670475DE0CA0F00D04942031000D34042534000229C4603098B422DD3030A61
:402D40008B4212D3FC22890112BA030A8B420CD3890192118B4208D3890192118B4204D389013AD0921100E08909C3098B4201D3CB01C01A524183098B4201D38B01C01AEC
:402D8000524143098B4201D34B01C01A524103098B4201D30B01C01A5241C3088B4201D3CB00C01A524183088B4201D38B00C01A5241D9D243088B4201D34B00C01A52419D
:402DC000411A00D20146634652415B10104601D34042002B00D54942704763465B1000D3404201B5002000F005F802BD0029F8D016E770477047C0469E2110B5C905041C0B
:402E000002F052F8002803D1201C00F055FD10BD9E21201CC90500F0C9FB00F04DFD80231B069C466044F2E770B500220C4B04000D0001F0FFFF002804D12000290001F060
:402E40003BFF70BD064B00222000290001F0E0FB01F032FF80231B069C466044F1E7C0460000E041F8B54A02430244004E00C50F240E28009B09360EC90F92098D4259D0A7
:402E8000A01B002800DC8DE0002E1AD1002A00D079E05A0704D00F221A40042A00D004335A0138D50134FF2C00D189E028009B015B0AE4B25B02E4055B0A2343C007184391
:402EC000F8BDFF2CE5D08021C9040A431B2800DD89E016002021C640081A8240511E8A4132439B1A5A0114D59B019E09300001F0E5FF05388640844265DC041B330020202C
:402F00000134E340041BA640721E964100243343BFE75A07BFD1DF082800FF2C2FD1002F00D187E08022D20313003B435B025B0AFF24BFE7A11B002949DD002E29D0FF2C0B
:402F4000A7D08026F60432431B2900DD8DE017002026CF40711A8A40511E8A413A439B185A01D6D50134FF2C64D0012276491A405B080B4013438CE7031ECAD100207B0266
:402F80005B0AE4B296E701380028AAD0FF2C9DD17FE7002A00D17CE701390029DFD0FF2CD2D176E7002820D1601CC0B2012853DD80279E1AFF0437402FD0D61A0D0095E773
:402FC0002800002376E7614B241A334061E700294DD1611CCEB2012E2FDDFF292AD09B185B080C0055E701227BE7002C1BD1002B5BD0C04300280CD0FF2E7ED01B2800DDF0
:4030000092E01D002024C540201A8340581E83412B43D31A34000D0064E7002E00D065E700200024ABE7FF2E67D08024E40440422343E3E7FF2400233CE7002C61D1002BE6
:403040007ED0002A00D124E79B185A0100D460E73E4A0C0013401CE7002C1ED1002B2FD1002A66D013000D0013E7012277E7002C1FD1002B5AD0C94300290BD0FF2E50D0DA
:403080001B295FDC1F002024CF40611A8B40591E8B413B439B18340062E7002B1CD1002A4AD013000D00FF24F3E6130034000D00EFE6FF2E35D08024E40449422343DFE7D2
:4030C000002A00D1E5E68027981AFF04074000D152E7D31A0D00DCE6FF24002A00D1D8E68020DB08C003034204D0D208024201D113000D00DB00FF24CBE61300FF240D0064
:40310000C7E6002B0DD0FF24002A00D1C1E68021DB08C9030B42EDD0D2080A42EAD11300E8E71300FF24B4E6012372E713003400AFE60027002022E780270020FF03F1E6DF
:403140001300A6E60123A5E7FFFFFF7DFFFFFFFBF0B5564644465F464D46F0B444024600C70F83B08846650A360EBA463DD0FF2E22D00023EC00802599469B46ED042543D8
:403180007F3E43465C025800DB0F640A000E984636D0FF2830D080230021E400DB041C437F38301A0190484642460843724E800030587A4013008746002D44D1082399461B
:4031C000063B9B46DDE70122FF2000241A406402C305640AD2071C431443200003B03CBC90469946A246AB46F0BD002D20D104239946033B9B46C4E7002C17D1022102E0F1
:40320000002C0AD10121321A01924A4643460A435A48920082587B409746200001F04EFE431F76309C4040420021BAE70321B8E7280001F043FE431F9D4000237630464248
:4032400099469B469DE70C239946093B9B4698E780240022E403FF20B9E70024C2468B465A465346022AAED0032A7DD0012A31D1012200201A400024A9E70122101A1B2884
:4032800056DD1A4000200024A1E78023DB031D424BD18023DB032B435C02640A3A00FF2095E76D016001854230D2019A0024013A01921B220127290064006D00002901DBA0
:4032C000A84201D82D1A3C43013A002AF3D16A1E95412C4301987F300028CEDD620704D00F222240042A00D00434220103D5244A019814408030FE2800DD64E70122A40112
:40330000640AC0B21A4062E72C00A9E72D1A1A220124CFE76B02BCD500248023DB031C436402640A4246FF2051E71C42B3D1F4E721002022C140101A8440621E94410C4388
:40334000620704D00F222240042A00D00434620104D5012201201A40002438E70122A401640A1A40002032E78023DB031C436402640A5246FF202AE768570000A857000027
:40338000FFFFFFF7F0B557464E4645464300E0B446028846760A1F0EC40F002F47D0FF2F25D0002380259A469946F600ED042E437F3F434642465D02D20F5B006D0A1B0EF9
:4033C000904640D0FF2B39D080220020ED00D20415437F3BFB1842465746591C62408C4607430F2F5CD86F49BF00C9598F46002E45D108239A46063B9946DAE742460228F0
:403400002DD0032800D1C3E0012800D0A2E0002500260240D4B27602ED05760A2E43E407264330001CBC90469946A246F0BD002E1AD104239A46033B9946BAE72A00511EEA
:403440008A41901CC6E70120002DC3D0280001F035FD431F76309D4043420020BAE70124FF2514400026D6E7300001F027FD431F9E400023763047429A46994699E70C230C
:403480009A46093B994694E780260024F603FF25C1E735004846B2E7350022004846AEE72904090C0800370C3604360C2C0C7943704367437443060C64183619B14203D96C
:4034C00080214902884647440004000C310409188D01681E8541890E2943350CED19AD010D43290104D5012369081D4063460D4319007F31002925DD680704D00F20284043
:40350000042800D00435280103D5274980330D401900FE29A3DC0124AD016E0A1440CDB279E78020C003064207D0054205D128434602760A4446FF256DE706437602760A93
:40354000FF2568E70124611A1B2905DD14400025002660E76346CBE72E002023CE40591A8D406B1E9D412E43730704D00F233340042B00D00436730104D501240125144022
:40358000002648E70124B601760A1440002542E780260124F6032E437602760A1440FF2539E7C046E8570000FFFFFFF7F8B54A024E0043024400240EC50F9B09360EC90F24
:4035C0009209FF2E00D183E001204140A01BA9425CD0002800DC95E0002E1CD1002A00D081E05A0704D00F221A40042A00D004335A013BD50134FF2C00D191E001209B01AD
:403600005B0AE4B205405B02E4055B0AED0723432B431800F8BDFF2CE3D08021C9040A431B2800DD90E016002021C640081A8240511E8A4132439B1A5A0115D59B019E09B4
:40364000300001F03BFC0538864084426CDC041B330020200134E340041BA640721E964100243343BDE70D005A07BCD1DF0801231D40FF2C33D1002F00D190E08022D203D4
:4036800013003B435B025B0AFF24BCE700284FDD002E2ED0FF2CA4D08025ED042A431B2800DD97E016002025C640281A8240501E824132439B185A01D5D50134FF2C6DD0D8
:4036C00001227B481A405B08034013430D0088E7002A00D07AE777E7031EC5D100257B025B0AE4B28FE701380028A4D0FF2C97D177E7002A00D174E701380028DAD0FF2C3D
:40370000CDD16EE7002821D1601CC0B2012858DD80279E1AFF0437402FD0D61A0D008FE701231D4000236EE7624B241A334058E7002851D1601CC6B2012E33DDFF282DD0AE
:403740009B185B0804004CE7012274E7002C1AD0FF2E1FD08024E404404223431B2800DD96E01D002024C540201A8340581E83412B43D31A34000D005EE7002E00D05FE780
:4037800000250024ABE7002B44D0C0430028F0D0FF2EE3D11300FF240D0022E70D00FF24002330E7002C5DD1002B7DD0002A00D117E79B185A0100D456E73E4A04001340A4
:4037C0000FE7002C1ED1002B2FD1002A65D013000D0006E701226DE7002C1FD1002B59D0C04300280BD0FF2E4FD01B285EDC1D002024C540201A8340581E83412B439B18AD
:40380000340058E7002B1CD1002A49D013000D00FF24E6E6130034000D00E2E6FF2E34D08024E40440422343DFE7002A00D1D8E68027981AFF04074000D14DE7D31A0D00C9
:40384000CFE6FF24002A00D1CBE68020DB08C003034204D0D208024201D113000D00DB00FF24BEE6002B10D0FF24002A00D1B8E68020DB08C003034203D0D208024200D19F
:403880001300DB000D00FF24ABE61300FF24A8E601236EE713003400A3E6002700251EE780270025FF03E9E613009AE60123A6E7FFFFFF7DFFFFFFFB4302590A4300C20FEC
:4038C0001B0E00207E2B0EDD9D2B0DDC802000040143952B0BDC9620C31AD9400B005842002A00D118007047034BD018FBE7963B99400B00F3E7C046FFFFFF7F70B500281A
:4039000030D0C317C5185D40C40F280001F0D6FA9E231B1A962B0DDC9622D21A95406A02520AD8B25202C005520AE40702432243100070BD992B19DC9922D21A9540124A34
:403940002A40690704D00F210D40042D00D00432510103D50C4B1A409F231B1A9201520AD8B2DFE7002400200022DBE705222E00121AB921D6402A00C91A8A40551EAA4106
:4039800035001543DBE7C046FFFFFFFBF8B556465F464D464446F0B40F00FD0FAA4609037C002E005F00450F490A7F0D2943C5001803BC46400A570F640DDB0F3843D20012
:4039C0009A4500D1AAE06646A61B002E00DCFFE06346002B39D10300134300D0D9E06B0709D00F232B40042B05D02B1DAB42AD416D4249191D000B0200D482E0CA4B0134AD
:403A00009C4200D1FEE00A005646C84BED081A405007640552020543120B640D002112030B0D1B056405120B1A436308C04CF60714401C43640064083443280021003CBC07
:403A400090469946A246AB46F8BDB74B9C42C6D080231B041843382E00DDEBE01F2E00DD1EE120239B1B9C4603006746BB40984613004746F3403B436746BA40571EBA416D
:403A800013430200F240EB1A9D42B6411D008A1A7642911B0B0231D54A02560A002E00D1B4E0300001F00AFA0300083B1F2B00DDB5E020222900D21AD1409E400A009D40D6
:403AC00032439C4200DDB1E01C1B631C1F2B00DDD5E0202114002800C91A8C40D8408D400443DA40681E854111002543002476E74146314300D134E2310045466B0700D0DB
:403B00006FE756464807ED08C9080543864B9C4235D00A036405120B640D7FE76346E31A9B46002B00DC8BE06746002F3CD07E4FBC4200D153E780273F0438435B46382BF8
:403B400000DCF7E00243501E82410020D2B253194218AB4289411D00494289180B02CDD5714B01349C4200D13DE101206F4A6B080A4028401843D507054351082FE72B002D
:403B80000B4300D1CBE180231B030B431A03120B44E7013E002E6DD1AE1AB5429B41091A5B42C91A350075E70700174300D116E701235B429C46E3445B46002B00D0E0E0F7
:403BC000AA18AA429B4109185B4259181500C5E7002E75D1661C7605760D012E00DCF3E0AE1AB0464545BF410E1A7F42F61B370200D48FE0551BAA42B641411A76428E1BAC
:403C00009A464BE756460022002507E7280001F055F920300300083B1F2B00DC49E72A002838824000259C4200DC4DE73F49E41A1140D4E60243501E8241D3B2002222E738
:403C4000002B00D0F3E0631C9C465B055B0D012B00DC9FE0344B9C4500D1C3E0AA180918AA42804140424118CD075208154349086446B4E62C4B9C4200D0ECE6AFE61100CF
:403C80001F3CE1400C00202B00D17FE04021CB1A9A4015436A1E95410021254300242DE733000700203BDF403B00202E70D04027BE1BB0400243501E824113430022E2E607
:403CC000002C4FD0184CA44500D1ABE08024240476422143382E00DDDFE01F2E00DD43E12027BC1BA1460C004F46BC40A0462C004746F4403C434F46BD406F1EBD41F14056
:403D00002C43151BAA429241411A5242891A64469A46BFE641464546314300D0BEE6002600240025F2E6C046FF070000FFFF7FFFFFFF0F801F2B59DC2027FF1ABC46070026
:403D400063469F405B46B9461700DF40B8464F4643461F4363469A40531E9A415B463A43D840F4E60C002C435CD0F643002E55D1551BAA42A441411A6442091B9A46644664
:403D800088E6964FBC4200D0D8E628E6002280E700208FE70B002B43002C00D0C2E0002B00D101E10300134300D118E6AB18AB42B6410918764271180A0200D409E1884A35
:403DC0001D00114064460AE6002C5BD10E002E4300D08AE00100114300D1C2E0010015009A46FCE56446002100258FE620235B429C46DC4463460700DF405B46BC46202B07
:403E000000D1ACE040235F46DB1B98400243501E8241634613431A00002098E66F4CA44500D057E70100150064469A46D7E5002C39D10C002C436ED0DB43002B1AD0674C3F
:403E4000A44568D0382B00DDA4E01F2B00DDAEE020240F00E41AA740B9462F00DF40B846A3464F46444627435C46A5406C1EA541D9403D43AD1895429B4109185B4259187C
:403E800064466BE60C002C4315D1010011437BD0010015009A46514CA1E50D43691E8D410021ECB22DE74D4CA44534D0802424045B422143C6E7040014434ED0ED084C07B4
:403EC0002C438025C9082D03294208D0C6082E4205D1D208410711430C009A463100620FC900E50011433D4C79E50600164300D175E5AE1AB0464545BF410E1A7F42F61B9D
:403F0000370200D4F4E5551BAA42B641411A7642891B9A4663E50100150064465FE5002200257BE5002B3BD00300134315D0ED084B072B438025C9082D03294207D0C408E1
:403F40002C4204D141070B002100D2081343C9005A0F1143DD00214C41E5204C3FE5002054E700260025D1E534000F00203CE7403C00202E2BD04027BE1BB1400D43691E25
:403F80008D4100212C43BCE6802100260903134C0025BBE50D43691E8D410021EDB269E7010015000D4C1AE50100150017E51C000F00203CE7403C00202B0CD04027FB1A48
:403FC00099400D43691E8D410021254352E70021D4E71D0092E50021F3E7C046FF070000FFFF7FFFF0B556464D4644465F46F0B41D000E034C00CB0F87B0070092468146B6
:40400000360B640D98466AD06D4B9C4235D08022430F12041343F6001E43C3009946694B00279C460023644402932B0368001B0BED0F51469B46400D009500D178E0604BBF
:4040400098426CD05B46DA004B0F802109040B4313439B465346D9005A4B9C46002360444246201A6A40924601901F430F2F00D9B0E05548BF00C0598746374300D088E090
:40408000002399460233082700260293CDE74346B34649460093029B009A9246022B00D0BFE1002153460122002689461A40444B002136030C0D2405360B2643434C1B052B
:4040C00026401E437600D207760816434846310007B03CBC90469946A246AB46F0BD330003434FD0002E00D1BCE1300000F0E6FE03000B3B1C2B00DDADE11D220100D31ACA
:4041000008393A008F408E40DA40B9461643304B00279C46002360444442029385E753465A4613432CD1002300219B46023397E70B4320D05B46002B00D19EE1584600F0D7
:40414000BDFE03000B3B1C2B00DD8FE102005946083A91408B461D21CB1A5146D9400B0059460B4351469B469140194B9C4660444042002374E7002300219B4601336FE775
:4041800003236DE70023994601330427002602934BE703230C27029347E70122D51A382D00DCB0E153461A4000210023002689467EE700238026994600223603004B77E7FA
:4041C000FF07000001FCFFFF28580000FFFF0F80F30300005E4500D972E100D16DE1019B4D46013B01930023340002935B461E020B0E1E430B020393330C994633041B0C88
:40420000494620000093FEF781FC009B370043430600494620009846FEF7FEFC2C0C09040C43A04509D9E419731EA74200D95CE1A04500D859E1023EE4194346E41A4946BE
:404240002000FEF763FC0300009A80465343494620009B46FEF7E0FC2A040904120C0A4393450DD94346D219013B974200D93AE1934500D837E102235B429C46D219E04414
:404280005B46D21A4346360433439B460399180C0B0C1D00059309045B46090C0C001B041B0C4443049159436B4368431B190D0CEB189C4203D980246402A44660441C0CDB
:4042C00009041B04090C20185D18824200D2DEE000D1D7E0161A029B9C465D1BAC459B415B42F61AB74200D106E149463000FEF70DFC009B04004343494630009846FEF72E
:404300008BFC2E0C09040E43B04509D9F619631EB74200D9F3E0B04500D8F0E0023CF6194346F31A494618000293FEF7EFFB009B06004343494602989846FEF76DFC2D04FA
:4043400009042D0C0D43A84509D9ED19731EAF4200D9D6E0A84500D8D3E0023EED192404210043463143049E059A3000ED1A0B040C0C1B0C58436643534354439A19030CC4
:404380009B189E4203D980225202944664441A0C00041B04000C14191B18A54250D34DD001231943964A019B94466344002B00DCF3E64A0709D00F220A40042A05D00A1D0E
:4043C0008A42894149428B4411005A46D20108D55A468C4B1A4093468022D2009446019B6344894A934200DD5BE65A46C908500708435602514601225B058146360B5B0D76
:404400000A4055E680231B031E4211D05A461A420ED15E461E433603360B2A0089467B4B46E6032B00D1E1E0012BBBD11A40BBE61E433603360B4246744B39E6002BB1D050
:404440007D194A1EAF4252D91100A542A8D1039A9A42A5D1A6E703003E00283B9E400023994654E600F02AFD203041E603005246283B9A400021934677E6504600F01EFD19
:4044800020305EE6029B0026AB4200D323E7039E0299B44661448846B045B6415B467642F619B218013B0291974213D290424FD800D18EE0161A9B460DE7894500D28EE636
:4044C00074084B46F60735005B081D434B46DB0702938BE69742EDD10399029CA142E5D93E1A9B46F7E69846CAE61E00A5E6AC423ED874D0110053E70121494252E71C00ED
:404500000EE71E002BE71F2D3CDC20230A0058465B1B9840EA4099400243481E81415E461143EE404B0709D00F230B40042B05D00B00191D99429B415B42F61833023CD58E
:404540005346012200211A40002601238946AFE502235B429C46039CE344A446029B63449846A045B6417642F6190293B218B1E603988A1E41008142B6417642F619AD197D
:40458000039161E71F225242D31A5A46DA401300202D29D040225846551BA8400143481E814107200B4318400026002809D00F2200261A401900042ABBD10B007007760214
:4045C000360BDB0803439946012253461A4000236EE502998D42BBD89B4600267BE603989842C5D3110032E70020D7E780265B4636031E433603360B009A8946034B57E51E
:40460000FF030000FFFFFFFEFE070000FF070000F0B557464E464546E0B40E001100F20F9246C500420F180337037400400A4E0F7F0A3043CF4E17435A00640D520DDB0F78
:40464000C900B24200D1E5E001267340A61AB446534500D1AFE0002E00DC0DE1002A3AD103000B4300D0E4E06B0709D00F232B40042B05D02B1DAB42AD416D427F191D00D6
:404680003B0200D488E0BB4B01349C4200D110E13A00B94B51461A4001235007ED08520264050543120B640D0B400021280012030D0D120B64052D0515436208AF4CDB075A
:4046C0002C401443640064081C4321001CBC90469946A246F0BDA74B9C42C5D080231B0418436346382B00DDFDE01F2B00DD30E1624620239B1A02009A40664690460A00FD
:404700009940F24046464B1E99413243114363460200DA40691A8D429B410D00BA1A5B42D71A3B0235D57A02530A98464346002B00D1C4E0404600F0C1FB0300083B1F2B8B
:4047400000DDC5E020222900D21A4746D1409F400A009D403A439C4200DDC0E01C1B631C1F2B00DDE4E0202114002800C91AD8408C408D400443DA40681E85411700254346
:40478000002471E7424663461A4300D14CE2674645466B0700D069E7012351467807ED08FA080B40054373498C4238D012036405120B640D79E7002E00DC9AE0002A47D09F
:4047C0006C4A944200D14FE78022120410436246382A00DC08E10143481E81410022C9B24919D219A942BF410D007F42BF183A0200D442E15F4A0134944200D14EE101205E
:404800005D4A69083A4028400843D507054357089A4629E706000E4300D017E714E72900114300D1F9E1802109030A431203120B3BE701235B429846C4446346002B72D16C
:40484000691A8D429B413F1A5B42FF1A0D0068E702000A4300D107E7012252429046C4446246002A00D0E6E06918A942B6413F187642F7190D00BAE7002E00D080E0621C88
:404880005205520D012A00DCF9E06A1A91464D45B6413A1A7642921B9046120200D499E04D1BA9428941C71B49427A1A90469A463CE752460123002513400022F5E628003E
:4048C00000F0FCFA20300300083B1F2B00DC39E72A002838824000259C4200DC3EE7264FE41A1740C0E60143481E81410022C9B210E7002E00D0F1E0621C94465205520D59
:40490000012A00DCA0E01B4A944500D1C5E06918A94292413F185242D2194908D5070D4357086446A0E6134B9C4200D0D9E69BE611001F3CE1400C00202B00D180E0402159
:40494000CB1A9A4015436A1E95410027254300241FE763460200203BDA406346202B71D0402366469B1B98400143481E814111430022CFE6FF070000FFFF7FFFFFFF0F8071
:40498000002C48D0CA4CA24200D1A2E07442A1468024240427434C46382C00DDDBE01F2C00DD44E14E462024A41B3E00A640A246B0464C462E00E640B446464664462643A0
:4049C0005446A5406C1EA54134002C434D46EF400D1B28E04A4643464D461A4300D0A5E6002300240025DEE61F2A5ADC66462022921B060096409146B04662460E00D64010
:404A0000424616434A4691404A1E9141020060463143C240E4E63C002C435AD0F443A146002C52D14D1BA9428941C71B49427F1A14009A4675E69E4A944200D0C7E613E62A
:404A400000227FE700208FE7002C00D0C8E03B002B4300D10FE103000B4300D104E66918A9429B413F185B42DF193B0200D41AE1904B0D001F406446F6E59A4689E63A0069
:404A80002A43002C5CD1002A75D102000A4300D1CAE007000D009A46E6E564460022002581E662460600203AD6406246B046202A00D1B7E040226646921B9040014342461A
:404AC000481E8141114300228AE6794CA24200D061E707000D0014009A46C5E5002C41D13C002C4378D0F443A146002C20D0704CA24271D04C46382C00DDB2E01F2C00DD5C
:404B0000BCE02026341BA2463C005646B4404E46A0462C00F440A446444666463443A4465446A54064466E1EB54125434C46E7406D188D4289413F184942CF19140056E631
:404B4000002A2FD102000A4300D184E007000D009A46574C88E53D436F1EBD41ECB200270D1B60E7524CA24236D0744280263604A1463743BEE702000A4300D174E56A1A23
:404B800090464545B6413A1A7642921B9446120200D4F7E54D1BA9428941C71B49427F1A9A4661E502000A433AD0ED087C072C438025FA082D032A4208D0C7082F4205D18D
:404BC00045072C003A009A46C9080C43670FD200E5001743364C47E507000D00140043E53A002A4343D002000A4319D0ED087C072C438025FA082D032A4207D0C6082E424D
:404C000004D147073C003200C9080C43D700620FE50017439A46264C26E50022002544E5234C21E5002049E700230025BBE54C463E00203CE6404C46B446202C31D0402433
:404C40004E46A61BB7403D436C1EA54164462C4300270D1BE7E6802200231203144C0025A1E53D436F1EBD410027EDB260E707000D000F4CF8E407000D00F5E44E463C00BE
:404C8000203EF440A0464C46202C0ED040244E46A41BA7403D436F1EBD4144460027254346E70027CFE70D0073E50027F2E7C046FF070000FFFF7FFF0B0330B5134D1A0B8F
:404CC0004B005B0DC90F0024AB4211DD104CA34210DC8024640322430E4CE41A1F2C0CDD0D48C31ADA4013005C42002900D11C00200030BD094BCC18FAE7E040084CA4466A
:404D000063449A4013000343EEE7C046FE0300001D0400003304000013040000FFFFFF7FEDFBFFFF4200120E511C4302C9B270B55D0AC40F012915DDE02189008C466D0712
:404D40001B0B6244002128000D0D2D052B431C4D52052B40520813435B00E4075B082343190070BD002A15D1002D1FD0280000F0A5F80A281DDC0B232A001B1ADA4013006E
:404D80000200153295400F4A1B03121A52051B0B520DD7E7002D06D080221B0B120313436D07094ACEE7084A0023CBE700220023C8E703000B3B9D402B000025E3E7C04685
:404DC000FFFF0F8089030000FF0700008446101C62468C46191C634600E0C0461FB500F0DFF9002801D40021C8421FBD10B500F033F94042013010BD10B500F0D1F90028B8
:404E000001DB002010BD012010BDC04610B500F0C7F9002801DD002010BD012010BDC04610B500F059F9002801DC002010BD012010BDC04610B500F04FF9002801DA00204C
:404E400010BD012010BDC0468446081C6146FFE71FB500F0BDF8002801D40021C8421FBD10B500F049F84042013010BD10B500F0AFF8002801DB002010BD012010BDC046C2
:404E800010B500F0A5F8002801DD002010BD012010BDC04610B500F057F8002801DC002010BD012010BDC04610B500F04DF8002801DA002010BD012010BDC0461C21012390
:404EC0001B04984201D3000C10391B0A984201D3000A08391B09984201D30009043902A2105C40187047C04604030202010101010000000000000000430270B542004C002E
:404F00005D0AC30F4802120E460A240EC90FFF2A0FD0FF2C11D00120A24200D070BDB542FCD18B420DD0002AF8D12800431E9841F4E70120002DF1D1EBE70120002EEDD1D1
:404F4000E9E70020EAE7C0464302F0B542005D0AC30F4802440A4800120E000EC90FFF2A1FD0FF2822D0002A09D16E426E4100280FD1002C0DD10020002D09D005E0002846
:404F800001D1002C01D08B4213D0584201231843F0BD002EF7D048424141012049420843F6E7002DDDD002204042F1E7002CDAD0F9E78242E9DC04DBA542E6D80020A542B7
:404FC000E6D25842434101205B421843E0E7C0464302F0B542004C005E0AC30F4802120E450A240EC90FFF2A17D0FF2C19D0002A0BD170427041002C17D0002807D0484257
:405000004141012049420843F0BD002C13D08B4214D0584201231843F6E70220002EF3D1E3E70220002DEFD1E1E7002DE5D10020002EE9D0EDE7002DE9D1EAE7A242E8DCC1
:4050400004DBAE42E5D80020AE42DDD25842434101205B421843D7E7F0B55F4656464D464446F0B41F035C00DB0F9A46194B0E034D00C90F8046360B6D0D8B4691463F0BF4
:40508000640D9D4219D0134B9C421BD00123A54206D018003CBC90469946A246AB46F0BDBE42F6D1C845F4D1D34510D0002DF0D1304303005A1E9341EBE7310001230143B8
:4050C000E7D1E0E73A430123002AE2D1DEE70023DFE7C046FF070000F0B55F46444656464D46F0B41F033C0B2C4F0E034D00A3465C008446360B6D0DC90F9046640DDB0F3D
:40510000BD422BD0254FBC422ED0002D0ED130430700814678427841002C17D15F463A4314D14B460020002B0AD006E0002C02D15846024301D099421AD00123484218430D
:405140003CBC90469946A246AB46F0BD0028F2D058425841012240421043F1E737000743D0D002204042EBE75F461743CDD0F8E7A542E2DC05DB5E45DFD808D000205E4583
:40518000DED248424841012340421843D8E7C445D3D80020C445F4D3D2E7C046FF070000F0B55F464D4644465646F0B41C03240BA4462F4C0F034D005E00C90F80463F0B04
:4051C0006D0D8B469146760DDB0FA54220D0284CA64222D0002D12D1384344424441002E20D0002C0DD05C42634101245B421C4320003CBC90469946A246AB46F0BD002E5A
:4052000017D05B4519D05B465C4201231C43EFE7390002240143EBD1D9E7614602241143E6D1D7E761460A43DBD100240028DFD0E9E761460A43E4D1E5E7B54203DD0122D7
:405240005C421443D4E7B542CDDB6745DBD809D000246745CCD259464C426141012449420C43C5E7C845CED80024C845F3D3BFE7FF070000014B18687047C0463801002087
:405280000E4B70B500251E000D4CE41AA410A54204D0AB00F35898470135F8E700F0E6FA084B00251E00084CE41AA410A54204D0AB00F35898470135F8E770BD785800006F
:4052C000785800007858000080580000002310B59A4203D0CC5CC4540133F9E710BD03008218934202D019700133FAE770470000000000000606000000300F400008004012
:405300000F400008841F850D870D404149FF4AFF4BFF4F01501852805A045B045D115F016040624064406540668068806A806C806E808C0490019802A501B002B204B50140
:40534000B601BE45BF10C054C9FFCAFFCBFFCD83CE03CF01D018D804D904DA04DB04DD01DF01E040E240E440E540E680E880EA80EC80EE80018009020B0819452210282014
:4053800041014681480259455A207402768081808704C001C20ACA02D091D208D60FE080E204E60810013001405445EC4720482349FF4AFF4BFF4D834E034F0150185604F6
:4053C00058045A045B045C035D015F016040624064406540668068806A806C806E8092019301AE01AF01B601B701BF40D401D804D904DB04DC01DD10DF010A800C021601A0
:4054000019011F8026402C0236024101480249024B045101520359015A285B805D025E805F0462806340874095029E01A002B420B502C218C480CA10CC80D001D208D6DF70
:40544000D809EC01404549FF4AFF4BFF4F0150185A045D095F016040624064406540668068806A806C806E8085018E01920195089902A104B102B201B301B508B601B70437
:40548000BE40C054C5ECC720C823C9FFCAFFCBFFCD83CE03CF01D018D280D401D804D904DA04DB04DC39DD99DF01E040E240E440E540E680E880EA80EC80EE8002020B402F
:4054C00018201940229423802B803020320839084101468049054B404E025101520259457280734080108504878088208E0896289F80A680AA40AF80C001C208CA01CC0690
:40550000CE02D081D218D60BE208E608EE016B106F207302DAC0DC20012006028A029F12A720C0C087029F12A720A920E640EC8083109F10AF20E220EE1000200520C00381
:405540000040032004040704420848114D208004872088019920A010C00FD008D20EE001AA08B440B704EA02EE08068009840C400F10844087108A808D04A580A980C00457
:40558000C20FE6061002120A1301000003000F4035320F4018330F402B340F4025350F403C360F4029370F4005400F4006410F4006420F4005430F4003440F4010450F40F1
:4055C00005460F400D470F4003600F400000000008008800000000000100000008008800000000000200000008008800000000000300000008008800000000000400000072
:40560000080088000000000005000000080088000000000006000000080088000000000007000000080088000000000000000000A8008000FFFFFFFF0000000001000000F3
:40564000A8008000FFFFFFFF0000000002000000A8008000FFFFFFFF0000000003000000A8008000FFFFFFFF000000000400000000000000000000000000000005000000B0
:4056800000000000000000000000000006000000000000000000000000000000070000000000000000000000000000000800000000000000000000000000000009000000CC
:4056C0000000000000000000000000000A0000000000000000000000000000000B0000000000000000000000000000000C0000000000000000000000000000000D0000007C
:405700000000000000000000000000000E0000000000000000000000000000000F000000000000000000000000000000030405060708090A0B0C0E0F101112131415161748
:4057400018191B1C1D1E1F2021222325262728292A2B2E2F3031323334350000000000000000000006070000A2320000C6310000843200005C3200008432000050320000E9
:40578000843200005C320000C6310000C6310000503200005C3200000833000008330000083300008A320000C6310000C6310000703200005A3200007032000050320000FA
:4057C000703200005A320000C6310000C6310000503200005A32000008330000083300000833000014330000A0340000FE330000FE330000FC330000923400009234000096
:4058000088340000FC330000923400008834000092340000FC33000098340000983400009834000022350000D4410000A2400000A841000098400000A8410000B2410000B7
:40584000A841000098400000A2400000A2400000B2410000984000008E4000008E4000008E4000000444000043000000F8B5C046F8BC08BC9E467047F50200006D0E0000AB
:40588000F8B5C046F8BC08BC9E467047CD020000A0580000C0000020800000009001000000000000010000000000204E409C000028000000005A6202000000000000000039
:4058C00000000000000000000000000000000000000000000000000068580000000000000000000000000000000000000000000000000000000000000000000000000000E8
:40590000000000000000000000000000000000000000000000000000D80000200000000000000000000000000000000000000000000000000000000000000000000000006F
:405940000000000000000000000000000000000000000000000000000000000000000000000000000000000000000000000000000000000000000000000000000000000027
:4059800000000000000000000000000000000000000000000000000000000000000000000000000000000000000000000000000000000000000000000000000000000000E7
:4059C00000000000000000000000000000000000000000000000000000000000000000000000000000000000000000000000000000000000000000000000000000000000A7
:405A00000000000000000000000000000000000000000000000000000000000000000000000000000000000000000000000000000000000000000000000000000000000066
:020000040003F7
:0200000490303A
:020000001606E2
:0200000490402A
:4000000000000000000000000000000000000000000000000000000000000000000000000000000000000000000000000000000000000000000000000000000000000000C0
:400040000000000000000000000000000000000000000000000000000000000000000000000000000000000000000000000000000000000000000000000000000000000080
:0200000490501A
:0C0000000002101111A00001102E27A614
:0200000490600A
:0100000001FE
:00000001FF