:4000000000400020110000008D0600008D06000010B500F043FBC04610B512221C4B1A60302000F0CFFF1B4A1B4B1A6000241B4B1C601B4B1B4A1A60CE21C9011A4A11602A
:400040001A4A1A60E822520119490A601949196019490A60194A1A6080221206184B1A608022D202174B1A604322174B1A60023A164B1A600132164B1A601649082000F02F
:40008000C5FE082000F0ACFE134B1C6010BDC046300010400600008004010B40000301400000014040FF00800C03014043FF00800403014041FF00800803014042FF00804D
:4000C00008010B4000010B404C0101401401014008010140411200000C020B4070B572B600240FE041486200131959000B00411889881A5AC31858880004104300F0BCFA15
:400100000134E4B2022CEDD9002411E0374EA2001319590071188D8AC88A000428430A8B498B09041143802200F0ACFA0134E4B2002CEBD02D4920312D487C3000F072FAE6
:40014000802252002B4B1A80FF3A2B4B1A70EE232A4A136030212A4A1160EE210902294A1160AA21284A1160284A136099231B04274A13602749284A116080218902274AD4
:40018000116080210903264A1160264A1360264A136026490B783C22934314221343DBB20B70234A117816230B43DBB213700322204B1A60242320490B6002211F48016023
:4001C00031241F480460D82424011E4804601E4801601E481E4908601E490A601E4A1360FFF71AFF00F038FA70BDC0460C1400008C16000000600F4002600F400001024083
:400200000002024000030240000402400006024010500F400400990020500F4024500F4028500F4050500F4070500F4001700F4000700F40000104400801044000020440BD
:4002400008020440080304400004044031601B0008040440000604400806044010B5064C2378002B07D1054B002B02D0044800E000BF0123237010BD480100200000000027
:4002800008140000084B10B5002B03D00749084800E000BF07480368002B00D110BD064B002BFBD09847F9E7000000004C01002008140000C000002000000000F8B504002A
:4002C0000D0000F06DFC0F2020401A4E30603F212940194B1960194C00252570800108434005E060164FA760164B1B686360200000F022FB01232370E560A760124B1B68D8
:400300006360200000F018FB022323703368DB06FC22D2041343E360A7600C4B1B686360200000F009FB00F003FA09491C2000F06DFDF8BDB4010020C8010020B80100203D
:40034000FFFF1F80A0002E40C0002E40E0002E40ED030000104B1878C0B2002819D15A78D2B29B78DBB29A4205D20B4A93785078181AC0B20EE0084B5A78D2B29B78DBB24B
:400380009A4207D9044A93785078181A1030C0B200E010207047C04664010020124A93780133DBB293709378DBB20F2B02D900220D4B9A700C4B1B78002B0BD00A4A5378BF
:4003C0000133DBB253705378DBB20F2B02D90022054B5A70044A537891785B1A59424B41DBB213707047C0466401002070B580225201444B1A60444B1B68DA0706D49A072F
:4004000006D45A0706D41B0706D406E0002404E0012402E0022400E003243C4B9A78D2B264013B4B9C4664442368DB0202D46168490D02E06168C90889B2364B5000821878
:400440009000C152314A9178C9B22068000C0F2528404D0069188D005D19A8709178C9B2A5682D0E4800411888001818C5709178C9B2A068000CC0B24D0069188D005D198C
:4004800028719178C9B2A068000AC0B24D0069188D005D1968719178C9B2A568EDB2480041188800181885719178C9B2E5682D0E4800411888001818C5719178C9B2E0680B
:4004C000000CC0B24D0069188D005D1928729178C9B2E068000AC0B24D0069188D005D1968729278D2B2E068C0B251008A1891005B189872FFF752FF226801231343236009
:4005000070BDC04600002E4008002E4064010020A0002E40CC01002010B5FFF71BFF00280BD0064A53780133DBB253705378DBB20F2B02D90022014B5A7010BD64010020B6
:4005400010B582B0041E17D0FFF704FF6B46D87107331B78002B11D00A4B5B78DBB25A00D3189900084B59180C22200000F03AFFFFF7D2FF002002E0022000E0022002B042
:4005800010BDC04664010020CC01002080797047C0787047407970470079704710B501210720FFF78BFE00242000FFF7C9FF0028F9D12000FFF7ECFF0D2802D0F52812D02F
:4005C00022E0012000F09AFEFA20400000F056FC002000F093FE00242000FFF7DDFF2000FFF7D8FFDFE7012000F088FEFA20400000F044FC002000F081FE00242000FFF760
:40060000C5FF00F00DF8CEE7002000F06BFEFA20400000F033FC012000F064FEC3E7C0467047C046F0B50025002711E0BB00C658F3B2FF22964308E06A008A181478A419E3
:40064000527822700135013BDBB2002BF4D10137092FEBD9F0BDC0460323044A1360044A13600022034B1A607047C0463000304030003140000E3F4010B50A00002100F04B
:40068000BAFE10BD10B500F0ADFE10BD10B500F07DFE03680C2B00D1FEE7FEE770B50F4E0F4D13E029686B68AC68002202E001C901C30432A242FAD1E868002202E00021E6
:4006C00002C304328242FAD11035013E002EE9D100F062FEFFF762FFFEE7C046010000006419000010B50E4A136801218B43136000230AE0032B03D89A000A49505800E06E
:4007000009489900094A885001332F2BF2D9FFF7E5FC034A116801230B43136010BDC04600001040000000008D06000000000020054B1A6801210A431A601B68194201D188
:40074000012000E00020704704002E4010B50E4A0E4B1A60FFF7ECFF1C2000F041FB0C4A116801230B431360C02300E0013B002B03D0074A1268D207F8D5002B01D10120B6
:4007800000E0002010BDC0460112000000002E4010002E4003B2002B0DDB094A1168094B0B400004034313601268074B1340984203D0012002E0022000E000207047C046C9
:4007C00014002E40FFFF00800000FF7F002809D10C4B19680C4A0A401A601B68DB040CD501300DE0074B1A68802149010A431A601B680B4203D1012002E0002000E00020D9
:400800007047C04614002E40FFEFFFFF70B5841EE4B20D2C35D88C1EE4B2052C03D9002B31D1012931D1032A31D8904231D3914231D31C4D2C68240AE4B20F26B443204311
:400840002E68194C3440000204432C602C686040F0242401204220D1002B00D002234901C9B29200D2B2114319430E4A1368EE2083430B4313601368034099420FD0ED38C4
:400880000EE002200CE002200AE0022008E0022006E0022004E0022002E0012000E0002070BDC04614002E40FFF0FFFF002809D10B4B1A6810218A431A601B6819420BD046
:4008C00001300CE0064B1A6810210A431A601B68194203D1012002E0002000E00020704714002E40002809D10B4B1A6801218A431A601B6819420BD001300CE0064B1A6816
:4009000001210A431A601B68194203D1012002E0002000E00020704714002E40054B18601B681B041B0C984201D0012000E000207047C04604002E4010B503785B01204A2E
:40094000944663441F4A41680A431A6003785B01634419681C4A11401C4A44682240914224D182681A6103785B0163441A6981688A421DD1C2685A6103785B0163445A69FC
:40098000C1688A4216D1012252429A6103785B0163449A6901320FD10022DA6103785B016344DB69002B09D0012008E0012006E0012004E0012002E0012000E0002010BDEC
:4009C000A0002E40800080007F007F007FFF7FFF10B503781B01104A944663440F4A41680A431A6003781B01634419680C4A11400C4A4468224091420AD182685A60037858
:400A00001B0163445A6883689A4203D0012002E0012000E0002010BD20002E4008008000F7007F00F7FF7FFF70B500240AE063001B199800104B1818FFF7CAFF002805D1FC
:400A40000134E4B2072CF2D9002500E00125002D0BD00FE0230108486030C018FFF76CFF002806D10134E4B200E000240F2CF1D900E00125280070BDB0170000002809D157
:400A80000C4B19680C4A0A401A601B689B040CD501300DE0074B1A68802189010A431A601B680B4203D1012002E0002000E000207047C04614002E40FFDFFFFF10B5802214
:400AC0001206334B1A60334A136801218B431360A0231B0100E0013B002B03D02D4A1268D207F8D4002B49D01C2000F083F92A491C2000F08BF903211C2000F099F90020EB
:400B0000FFF748FE002819D1FFF760FE002817D1FFF7B4FF002815D10023002201210C30FFF774FE00280FD1FFF7C0FE00280DD1FFF7D8FE00280BD001230AE0012308E096
:400B4000012306E0012304E0012302E0012300E00023002B14D1FFF767FF002812D10F48FFF7DCFE00280FD10A4B1A6807218A431A601B68194209D0013008E0012006E073
:400B8000012004E0012002E0012000E0002010BD00042E4010002E40C90B00000112000010B5084B1B78002B02D1FFF787FF00E00020002804D10122024B1A70FFF7C6FD93
:400BC00010BDC046680100207047C046074B1B78272B05D8064B1B78DBB2064A136004E0054B1B78DBB2034A1360704702F3FF0F42F3FF0F20FF0B40C1F1FF0F00230AE04C
:400C0000204A12683F210A401F49C95C8A4201D1033303E001332D2BF2D903231B4A12781B2A16D8302B05D1194B1B78DBB2194A136006E0182B04D1174B1B78DBB2154AD9
:400C4000136016490B681F229343173A13430B6016E0302B05D1124B1B78DBB20D4A136006E0182B04D10F4B1B78DBB2094A13600A4A13681F218B430B4909780B431360E7
:400C80007047C0462CFF0B401019000002F3FF0F3FF3FF0F28FF0B403EF3FF0F34FF0B40C3F1FF0FC2F1FF0FC0F1FF0F00230AE00D4A12683F210A400C49C95C8A4201D184
:400CC000033303E001332D2BF2D9032308490868084A02400A60084A944663441B78DBB2064A13607047C0462CFF0B401019000000002240FFFFFFBF4DF3FF0F28FF0B40AF
:400D0000034B18688023DB05184000D0012070470000224010B50B4A136801218B431360094B1A68094B1A60094A12685A60FFF765FFFFF74BFF074A116802230B43136093
:400D400010BDC04650000C4034FF0B406C01002020FF0B4024002C4030B500230AE0134A12683F210A401249C95C8A4201D1033303E001332D2BF2D903230E490A680220ED
:400D800082430A600C4C21681F2291430B4805682A400A4322604168094A1160094A944663441B78DBB2084A136030BD2CFF0B401019000024002C4034FF0B406C010020C8
:400DC00020FF0B404DF3FF0F28FF0B40034B1B680220184000D001207047C04624002C401F2318401E3B8340014A13607047C04600E100E01F2318401E3B8340014A1360DA
:400E00007047C04680E100E001BE704770B504000D001F2802D90020FFF7F6FF1034A40080239B059C4664442068256070BDC04670B504000E00032902D90020FFF7E4FFAF
:400E40001F2C02D90020FFF7DFFF03252540ED00063500F06AFAA408A400074B9C46644421680323AB4099430B003100A9401943216000F05EFA70BD00E400E010B50400A9
:400E800006E0084B586800F047FA074B9C46644480231B029C42F4D8024B9868604300F03BFA10BDC40000200080FFFF70B582B000F070F9002862D000F037FA0500314AD3
:400EC000116801230B43136000230AE02E4A12683F210A402D49C95C8A4201D1033303E001332D2BF2D903230021294A1160294A1268D20606D1274802681F318A43133939
:400F00000A430260244C2168244A1140244A5A438023DB019C466244D20B013A5205520D0B001343A0225203134323601D4B1B680193302000F000FA1B4A13688021C90511
:400F40000B4313602668194B1E40002407E00120FFF794FF1034A30533430F4A1360EE2CF5D90120FFF78AFFFF239B051E430A4B1E60019A0B4B1A60280000F0DAF902B0F7
:400F800070BDC04650000C402CFF0B401019000028FF0B4034FF0B400800224000F800C040420F003000104000002240FFFF3FC010B5034B1B7B584300F0AEF910BDC04693
:400FC000C4000020F0B55F4656464D464446F0B483B0040000F0A9F90190FFF791FE002804D0FFF763FE01239A4601E000239A46FFF7ECFE002808D0182C01D0302C07D123
:40100000FFF7AAFE01239B4604E000239B4601E000239B46E61E2D2E74D8464B1B78DBB29C4208D8444B1B78DBB29946434B1B78DBB2984631E0424B1B78DBB29C4208D890
:40104000404B1B78DBB299463F4B1B78DBB2984623E03E4B1B78DBB29C4208D83C4B1B78DBB299463B4B1B78DBB2984615E03A4B1B78DBB29C4208D8384B1B78DBB2994610
:40108000374B1B78DBB2984607E0364B1B78DBB29946354B1B78DBB29846344B9F5D2F2F09D92A2C07D91922314B1A60052000F033F9192503E02E4B1D683F231D40BD428B
:4010C00006D92A4B9A5D2A4B1A60052000F024F9254B9C4664442378DBB2264A1360264B4A461A60254B42461A600520FFF760FFBD420AD21D4B9A5D1D4B1A60052000F0E7
:401100000BF902E00020FFF77FFE5346012B01D1FFF7CCFE5B46012B01D1FFF7FBFD019800F007F903B03CBC90469946A246AB46F0BDC04640F3FF0F41F3FF0F42F3FF0F17
:4011400043F3FF0F44F3FF0F45F3FF0F46F3FF0F47F3FF0F48F3FF0F49F3FF0F4AF3FF0F4BF3FF0F4CF3FF0F4DF3FF0F101900002CFF0B4028FF0B401CFF0B4020FF0B406B
:40118000034B1868C0231B02184000D00120704700010B40034B1B68002B01DA012000E0002070470000224010B500F0BEF8044A1368C02109020B43136000F0BAF810BDB4
:4011C00000010B4010B500F0B0F808490A68084B1A408024E40122430A600A6813408022120213430B6000F0A4F810BD00010B40FF3FFFFF70B5050000F097F80400FFF7BE
:40120000BFFF002803D0FFF7DDFF012100E0002108482840084A1568084B2B40184310601368012901D1FFF7BFFF200000F081F870BDC0460404040010020B40FBFBFBFFB0
:4012400010B5244B1B685B0715D5234B5B685B070ED5224B596A042001401F4C62688A4362605A6A82435A629B69002B00D098470420FFF7BFFF174B1B685B0518D5164B0E
:401280005B685B0510D5154B596A8022D2001140114842688A434260596A114A0A405A62DB69002B00D098478020C000FFF7A2FF084B1B685B030CD5074B5B685B0304D532
:4012C000064B1B6A002B00D098478020C002FFF791FF10BD10020B40D80000208C010020FFFBFFFF04490A68D2B240239A43800118401043086070470004044004490A68BA
:40130000D2B210239A430001184010430860704700040440000000000230800803D00138FDD1C046C046C0467047EFF3108072B6704780F31088704770B50400FFF7F5FF83
:401340000500102C05D8104A136803218B43136016E0202C07D80C490B6803229343023A13430B600CE0302C07D807490B6803229343013A13430B6002E00020FFF744FD1A
:401380002800FFF7D6FF70BD30001040014B18687047C046400100200E4B70B500251E000D4CE41AA410A54204D0AB00F35898470135F8E700F0C4FA084B00251E00084C9A
:4013C000E41AA410A54204D0AB00F35898470135F8E770BD4C1900004C1900004C19000054190000002310B59A4203D0CC5CC4540133F9E710BD03008218934202D0197048
:401400000133FAE7704700000000000000300F40000280320F40800500400F400008000000320F40301700008000000082728538870FA401A801AC01B401D804DF01040340
:40144000062007090C800E080FA0102A1680171419201A081B101C011D201E281F40260127102D202E802F6033303580360437213E2A3F8045A84C014E04564057015E20B4
:401480006C2A74C0762A7704C0F0C2F0C477CAF0CCF0CEF0D070D230D6200410060C0A0310101101130E141C15071602180C19071A11200921042210231128142D022F3166
:4014C0003107321F332037183F40580459045F018001810185088601880889188D108E0291249318951896049724991C9B209D3C9E02A101A204A502A601AB24AC01AF01A7
:40150000B001B202B31CB404B538B608B703B802B980BB20BE54D418D804D904DB04DF0100140452075009050A080D080F02128814011640170818101C401FA421802201E0
:40154000232025082680270829012A802B402C822D283028320133013401350237583C803D013E285E02670A8321900299229A689B109E809F29A068A201A301A588A74012
:40158000A902AA04B180B308C0F6C2AEC4BACAF9CCF7CEF0D680D8300308040209010B061403190C1A011B031F0C2101230E240327033203330F38083B083E04400347402A
:4015C00049FF4A074BFF4C404D204EF04F055008580459045A045F01604061A86240632082408302841885068660870988048C028E018F0890189220945095089620970391
:4016000098019A02A018A220A306A403A508A705A803AB09AE28B003B108B204B307B478BA20BB08BE04BF01C023C106C50EC60CC70BC815C9FFCAFFCBFFCEF0CF44D00CF0
:40164000D401D804D904DA04DB04DF01E6C0EA40EB020024028003020408072009040A040B800F2810A811401508180419051B121D082104220423902504272028402A20F5
:401680002B142D092F403204344036803720380839803A013D023F2040044220450848104B104D084F085080514052085501560159045A115B8081488410860189018B1057
:4016C0008D408E1092049404950196089D09A028A280A505A608A802A904AB80AE84B484C02FC26EC42FCAC7CC32CEABD046D204D60F02105301C010D480AB01AE10E84042
:40170000EE2010011201130103000F4006320F402E330F4043340F403C350F405D360F4050370F4004420F4004430F4003600F401F1000000C0800001F1800000340000002
:40174000026000000067031813000C04081C0061017F0000041C00621C000363002400000060101F0F0000000000A008000004002605030001000CE024FFFFFF62A0F0417C
:401780000C000000000002110404040400000001000000000000400200103010001010120000000000000000000000000000000000000000080088000000000001000000A4
:4017C0000800880000000000020000000800880000000000030000000800880000000000040000000800880000000000050000000800880000000000060000000800880075
:401800000000000007000000080088000000000000000000A8008000FFFFFFFF0000000001000000A8008000FFFFFFFF0000000002000000A8008000FFFFFFFF00000000A2
:401840000300000000000000000000000000000004000000000000000000000000000000050000000000000000000000000000000600000000000000000000000000000056
:401880000700000000000000000000000000000008000000000000000000000000000000090000000000000000000000000000000A00000000000000000000000000000006
:4018C0000B0000000000000000000000000000000C0000000000000000000000000000000D0000000000000000000000000000000E000000000000000000000000000000B6
:401900000F000000000000000000000000000000030405060708090A0B0C0E0F101112131415161718191B1C1D1E1F2021222325262728292A2B2E2F303132333435430065
:40194000F8B5C046F8BC08BC9E46704785020000E5060000F8B5C046F8BC08BC9E4670475D02000078190000C00000208800000048010000000000000000000001000000C7
:401980000000C05D80BB000030000000006CDC02F00000000404040000000000000000000000000000000000000000000000000000000000000000003E1900000000000002
:4019C0000000000000000000000000000000000000000000000000000000000000000000000000000000000000000000000000000000000000000000E000002000000000E7
:401A000000000000000000000000000000000000000000000000000000000000000000000000000000000000000000000000000000000000000000000000000000000000A6
:401A40000000000000000000000000000000000000000000000000000000000000000000000000000000000000000000000000000000000000000000000000000000000066
:401A80000000000000000000000000000000000000000000000000000000000000000000000000000000000000000000000000000000000000000000000000000000000026
:401AC00000000000000000000000000000000000000000000000000000000000000000000000000000000000000000000000000000000000000000000000000000000000E6
:020000040001F9
:0200000490303A
:02000000B9A99C
:0200000490402A
:4000000000000000000000000000000000000000000000000000000000000000000000000000000000000000000000000000000000000000000000000000000000000000C0
:0200000490501A
:0C0000000002100B11A000011012CB49EF
:0200000490600A
:0100000001FE
:00000001FF